{
  "_format": "hh-sol-artifact-1",
  "contractName": "MartinDeposit",
  "sourceName": "contracts/MartinDeposit.sol",
  "abi": [
    {
      "inputs": [
        {
          "internalType": "address",
          "name": "_oracle",
          "type": "address"
        },
        {
          "internalType": "address",
          "name": "_dogeToken",
          "type": "address"
        },
        {
          "internalType": "uint256",
          "name": "_oracleMaxDelay",
          "type": "uint256"
        },
        {
          "internalType": "address",
          "name": "_manager",
          "type": "address"
        }
      ],
      "stateMutability": "nonpayable",
      "type": "constructor"
    },
    {
      "anonymous": false,
      "inputs": [
        {
          "indexed": false,
          "internalType": "uint256",
          "name": "usdAmount",
          "type": "uint256"
        }
      ],
      "name": "Deposit",
      "type": "event"
    },
    {
      "anonymous": false,
      "inputs": [
        {
          "indexed": false,
          "internalType": "uint256",
          "name": "usdAmount",
          "type": "uint256"
        },
        {
          "indexed": false,
          "internalType": "uint256",
          "name": "positionType",
          "type": "uint256"
        },
        {
          "indexed": false,
          "internalType": "address",
          "name": "inviter",
          "type": "address"
        }
      ],
      "name": "Open",
      "type": "event"
    },
    {
      "anonymous": false,
      "inputs": [
        {
          "indexed": true,
          "internalType": "address",
          "name": "previousOwner",
          "type": "address"
        },
        {
          "indexed": true,
          "internalType": "address",
          "name": "newOwner",
          "type": "address"
        }
      ],
      "name": "OwnershipTransferred",
      "type": "event"
    },
    {
      "anonymous": false,
      "inputs": [
        {
          "indexed": false,
          "internalType": "uint256",
          "name": "reinvestAmount",
          "type": "uint256"
        }
      ],
      "name": "Reinvest",
      "type": "event"
    },
    {
      "anonymous": false,
      "inputs": [
        {
          "indexed": false,
          "internalType": "uint256",
          "name": "withdrawAmount",
          "type": "uint256"
        }
      ],
      "name": "Withdraw",
      "type": "event"
    },
    {
      "inputs": [
        {
          "internalType": "address",
          "name": "user",
          "type": "address"
        }
      ],
      "name": "checkPositionOpened",
      "outputs": [
        {
          "internalType": "bool",
          "name": "",
          "type": "bool"
        }
      ],
      "stateMutability": "view",
      "type": "function"
    },
    {
      "inputs": [
        {
          "internalType": "uint256",
          "name": "usdAmount",
          "type": "uint256"
        }
      ],
      "name": "deposit",
      "outputs": [],
      "stateMutability": "nonpayable",
      "type": "function"
    },
    {
      "inputs": [
        {
          "internalType": "uint256",
          "name": "dogeAmount",
          "type": "uint256"
        }
      ],
      "name": "doge2Usd",
      "outputs": [
        {
          "internalType": "uint256",
          "name": "",
          "type": "uint256"
        }
      ],
      "stateMutability": "view",
      "type": "function"
    },
    {
      "inputs": [],
      "name": "dogeToken",
      "outputs": [
        {
          "internalType": "contract IERC20",
          "name": "",
          "type": "address"
        }
      ],
      "stateMutability": "view",
      "type": "function"
    },
    {
      "inputs": [],
      "name": "dogeTokenDecimals",
      "outputs": [
        {
          "internalType": "uint8",
          "name": "",
          "type": "uint8"
        }
      ],
      "stateMutability": "view",
      "type": "function"
    },
    {
      "inputs": [
        {
          "internalType": "address",
          "name": "inviter",
          "type": "address"
        }
      ],
      "name": "getInviterGrade",
      "outputs": [
        {
          "internalType": "uint256",
          "name": "",
          "type": "uint256"
        }
      ],
      "stateMutability": "view",
      "type": "function"
    },
    {
      "inputs": [],
      "name": "getLatestPrice",
      "outputs": [
        {
          "internalType": "int256",
          "name": "",
          "type": "int256"
        },
        {
          "internalType": "uint8",
          "name": "",
          "type": "uint8"
        }
      ],
      "stateMutability": "view",
      "type": "function"
    },
    {
      "inputs": [
        {
          "internalType": "address",
          "name": "inviter",
          "type": "address"
        }
      ],
      "name": "getMyInvitees",
      "outputs": [
        {
          "components": [
            {
              "internalType": "address",
              "name": "addr",
              "type": "address"
            },
            {
              "internalType": "uint8",
              "name": "level",
              "type": "uint8"
            },
            {
              "internalType": "address",
              "name": "inviter",
              "type": "address"
            },
            {
              "internalType": "uint256",
              "name": "time",
              "type": "uint256"
            }
          ],
          "internalType": "struct MartinDeposit.Invitee[]",
          "name": "",
          "type": "tuple[]"
        }
      ],
      "stateMutability": "view",
      "type": "function"
    },
    {
      "inputs": [
        {
          "internalType": "address",
          "name": "user",
          "type": "address"
        }
      ],
      "name": "getPosition",
      "outputs": [
        {
          "components": [
            {
              "internalType": "uint256",
              "name": "depositAmount",
              "type": "uint256"
            },
            {
              "internalType": "uint256",
              "name": "withdrawAmount",
              "type": "uint256"
            },
            {
              "internalType": "uint256",
              "name": "withdrawnCapital",
              "type": "uint256"
            },
            {
              "internalType": "uint256",
              "name": "reinvestAmount",
              "type": "uint256"
            },
            {
              "internalType": "enum MartinDeposit.PositionType",
              "name": "period",
              "type": "uint8"
            },
            {
              "components": [
                {
                  "internalType": "enum MartinDeposit.EventType",
                  "name": "eveType",
                  "type": "uint8"
                },
                {
                  "internalType": "uint256",
                  "name": "changedAmount",
                  "type": "uint256"
                },
                {
                  "internalType": "uint256",
                  "name": "time",
                  "type": "uint256"
                }
              ],
              "internalType": "struct MartinDeposit.Event[]",
              "name": "events",
              "type": "tuple[]"
            },
            {
              "components": [
                {
                  "internalType": "uint256",
                  "name": "amount",
                  "type": "uint256"
                },
                {
                  "internalType": "uint256",
                  "name": "time",
                  "type": "uint256"
                }
              ],
              "internalType": "struct MartinDeposit.SubPosition365[]",
              "name": "subPositions",
              "type": "tuple[]"
            }
          ],
          "internalType": "struct MartinDeposit.Position",
          "name": "",
          "type": "tuple"
        }
      ],
      "stateMutability": "view",
      "type": "function"
    },
    {
      "inputs": [
        {
          "internalType": "address",
          "name": "",
          "type": "address"
        }
      ],
      "name": "inviterGrade",
      "outputs": [
        {
          "internalType": "uint8",
          "name": "",
          "type": "uint8"
        }
      ],
      "stateMutability": "view",
      "type": "function"
    },
    {
      "inputs": [
        {
          "internalType": "address",
          "name": "",
          "type": "address"
        },
        {
          "internalType": "uint256",
          "name": "",
          "type": "uint256"
        },
        {
          "internalType": "uint256",
          "name": "",
          "type": "uint256"
        }
      ],
      "name": "invitionLevelMap",
      "outputs": [
        {
          "internalType": "address",
          "name": "",
          "type": "address"
        }
      ],
      "stateMutability": "view",
      "type": "function"
    },
    {
      "inputs": [
        {
          "internalType": "address",
          "name": "",
          "type": "address"
        }
      ],
      "name": "invitionMap",
      "outputs": [
        {
          "internalType": "address",
          "name": "",
          "type": "address"
        }
      ],
      "stateMutability": "view",
      "type": "function"
    },
    {
      "inputs": [],
      "name": "manager",
      "outputs": [
        {
          "internalType": "address",
          "name": "",
          "type": "address"
        }
      ],
      "stateMutability": "view",
      "type": "function"
    },
    {
      "inputs": [],
      "name": "max",
      "outputs": [
        {
          "internalType": "uint256",
          "name": "",
          "type": "uint256"
        }
      ],
      "stateMutability": "view",
      "type": "function"
    },
    {
      "inputs": [],
      "name": "min",
      "outputs": [
        {
          "internalType": "uint256",
          "name": "",
          "type": "uint256"
        }
      ],
      "stateMutability": "view",
      "type": "function"
    },
    {
      "inputs": [
        {
          "internalType": "uint256",
          "name": "usdAmount",
          "type": "uint256"
        },
        {
          "internalType": "uint256",
          "name": "positionType",
          "type": "uint256"
        },
        {
          "internalType": "address",
          "name": "inviter",
          "type": "address"
        }
      ],
      "name": "open",
      "outputs": [],
      "stateMutability": "nonpayable",
      "type": "function"
    },
    {
      "inputs": [],
      "name": "oracle",
      "outputs": [
        {
          "internalType": "address",
          "name": "",
          "type": "address"
        }
      ],
      "stateMutability": "view",
      "type": "function"
    },
    {
      "inputs": [],
      "name": "oracleMaxDelay",
      "outputs": [
        {
          "internalType": "uint256",
          "name": "",
          "type": "uint256"
        }
      ],
      "stateMutability": "view",
      "type": "function"
    },
    {
      "inputs": [],
      "name": "owner",
      "outputs": [
        {
          "internalType": "address",
          "name": "",
          "type": "address"
        }
      ],
      "stateMutability": "view",
      "type": "function"
    },
    {
      "inputs": [
        {
          "internalType": "address",
          "name": "",
          "type": "address"
        }
      ],
      "name": "positionMap",
      "outputs": [
        {
          "internalType": "uint256",
          "name": "depositAmount",
          "type": "uint256"
        },
        {
          "internalType": "uint256",
          "name": "withdrawAmount",
          "type": "uint256"
        },
        {
          "internalType": "uint256",
          "name": "withdrawnCapital",
          "type": "uint256"
        },
        {
          "internalType": "uint256",
          "name": "reinvestAmount",
          "type": "uint256"
        },
        {
          "internalType": "enum MartinDeposit.PositionType",
          "name": "period",
          "type": "uint8"
        }
      ],
      "stateMutability": "view",
      "type": "function"
    },
    {
      "inputs": [
        {
          "internalType": "bytes32[]",
          "name": "proof",
          "type": "bytes32[]"
        },
        {
          "internalType": "uint256",
          "name": "jsonAmount",
          "type": "uint256"
        },
        {
          "internalType": "uint256",
          "name": "reinvestAmount_",
          "type": "uint256"
        }
      ],
      "name": "reinvest",
      "outputs": [],
      "stateMutability": "nonpayable",
      "type": "function"
    },
    {
      "inputs": [
        {
          "internalType": "address",
          "name": "user",
          "type": "address"
        }
      ],
      "name": "remainingDepositAmount",
      "outputs": [
        {
          "internalType": "uint256",
          "name": "",
          "type": "uint256"
        }
      ],
      "stateMutability": "view",
      "type": "function"
    },
    {
      "inputs": [],
      "name": "renounceOwnership",
      "outputs": [],
      "stateMutability": "nonpayable",
      "type": "function"
    },
    {
      "inputs": [],
      "name": "root",
      "outputs": [
        {
          "internalType": "bytes32",
          "name": "",
          "type": "bytes32"
        }
      ],
      "stateMutability": "view",
      "type": "function"
    },
    {
      "inputs": [
        {
          "internalType": "address",
          "name": "dogeToken_",
          "type": "address"
        }
      ],
      "name": "setDogeToken",
      "outputs": [],
      "stateMutability": "nonpayable",
      "type": "function"
    },
    {
      "inputs": [
        {
          "internalType": "address",
          "name": "newManager",
          "type": "address"
        }
      ],
      "name": "setManager",
      "outputs": [],
      "stateMutability": "nonpayable",
      "type": "function"
    },
    {
      "inputs": [
        {
          "internalType": "uint256",
          "name": "min_",
          "type": "uint256"
        },
        {
          "internalType": "uint256",
          "name": "max_",
          "type": "uint256"
        }
      ],
      "name": "setMinAndMax",
      "outputs": [],
      "stateMutability": "nonpayable",
      "type": "function"
    },
    {
      "inputs": [
        {
          "internalType": "address",
          "name": "newOracle",
          "type": "address"
        }
      ],
      "name": "setOracle",
      "outputs": [],
      "stateMutability": "nonpayable",
      "type": "function"
    },
    {
      "inputs": [
        {
          "internalType": "uint256",
          "name": "maxDelay",
          "type": "uint256"
        }
      ],
      "name": "setOracleMaxDelay",
      "outputs": [],
      "stateMutability": "nonpayable",
      "type": "function"
    },
    {
      "inputs": [
        {
          "internalType": "address",
          "name": "newOwner",
          "type": "address"
        }
      ],
      "name": "transferOwnership",
      "outputs": [],
      "stateMutability": "nonpayable",
      "type": "function"
    },
    {
      "inputs": [
        {
          "internalType": "bytes32",
          "name": "newRoot",
          "type": "bytes32"
        }
      ],
      "name": "updateRoot",
      "outputs": [],
      "stateMutability": "nonpayable",
      "type": "function"
    },
    {
      "inputs": [
        {
          "internalType": "uint256",
          "name": "usdAmount",
          "type": "uint256"
        }
      ],
      "name": "usd2Doge",
      "outputs": [
        {
          "internalType": "uint256",
          "name": "",
          "type": "uint256"
        }
      ],
      "stateMutability": "view",
      "type": "function"
    },
    {
      "inputs": [],
      "name": "usdDecimals",
      "outputs": [
        {
          "internalType": "uint8",
          "name": "",
          "type": "uint8"
        }
      ],
      "stateMutability": "view",
      "type": "function"
    },
    {
      "inputs": [
        {
          "internalType": "uint256",
          "name": "",
          "type": "uint256"
        }
      ],
      "name": "users",
      "outputs": [
        {
          "internalType": "address",
          "name": "",
          "type": "address"
        }
      ],
      "stateMutability": "view",
      "type": "function"
    },
    {
      "inputs": [
        {
          "internalType": "bytes32[]",
          "name": "proof",
          "type": "bytes32[]"
        },
        {
          "internalType": "address",
          "name": "addr",
          "type": "address"
        },
        {
          "internalType": "uint256",
          "name": "amount",
          "type": "uint256"
        }
      ],
      "name": "verifyMerkleProof",
      "outputs": [
        {
          "internalType": "bool",
          "name": "",
          "type": "bool"
        }
      ],
      "stateMutability": "view",
      "type": "function"
    },
    {
      "inputs": [
        {
          "internalType": "bytes32[]",
          "name": "proof",
          "type": "bytes32[]"
        },
        {
          "internalType": "uint256",
          "name": "jsonAmount",
          "type": "uint256"
        },
        {
          "internalType": "uint256",
          "name": "withdrawAmount_",
          "type": "uint256"
        }
      ],
      "name": "withdraw",
      "outputs": [],
      "stateMutability": "nonpayable",
      "type": "function"
    },
    {
      "inputs": [
        {
          "internalType": "address",
          "name": "user",
          "type": "address"
        },
        {
          "internalType": "uint256",
          "name": "jsonAmount",
          "type": "uint256"
        }
      ],
      "name": "withdrawableAmount",
      "outputs": [
        {
          "internalType": "uint256",
          "name": "",
          "type": "uint256"
        }
      ],
      "stateMutability": "view",
      "type": "function"
    }
  ],
  "bytecode": "0x60806040526103e8600155614e206002556001600f60006101000a81548160ff0219169083151502179055503480156200003857600080fd5b50604051620056a5380380620056a583398181016040528101906200005e919062000463565b6200007e62000072620002f260201b60201c565b620002fa60201b60201c565b83600860006101000a81548173ffffffffffffffffffffffffffffffffffffffff021916908373ffffffffffffffffffffffffffffffffffffffff16021790555082600560006101000a81548173ffffffffffffffffffffffffffffffffffffffff021916908373ffffffffffffffffffffffffffffffffffffffff160217905550816009819055508273ffffffffffffffffffffffffffffffffffffffff1663313ce5676040518163ffffffff1660e01b8152600401602060405180830381865afa15801562000153573d6000803e3d6000fd5b505050506040513d601f19601f8201168201806040525081019062000179919062000513565b600560146101000a81548160ff021916908360ff160217905550600860009054906101000a900473ffffffffffffffffffffffffffffffffffffffff1673ffffffffffffffffffffffffffffffffffffffff1663313ce5676040518163ffffffff1660e01b8152600401602060405180830381865afa15801562000201573d6000803e3d6000fd5b505050506040513d601f19601f8201168201806040525081019062000227919062000513565b600560156101000a81548160ff021916908360ff160217905550600560159054906101000a900460ff16600a6200025f9190620006c8565b6001546200026e919062000719565b600381905550600560159054906101000a900460ff16600a620002929190620006c8565b600254620002a1919062000719565b60048190555080600760006101000a81548173ffffffffffffffffffffffffffffffffffffffff021916908373ffffffffffffffffffffffffffffffffffffffff1602179055505050505062000764565b600033905090565b60008060009054906101000a900473ffffffffffffffffffffffffffffffffffffffff169050816000806101000a81548173ffffffffffffffffffffffffffffffffffffffff021916908373ffffffffffffffffffffffffffffffffffffffff1602179055508173ffffffffffffffffffffffffffffffffffffffff168173ffffffffffffffffffffffffffffffffffffffff167f8be0079c531659141344cd1fd0a4f28419497f9722a3daafe3b4186f6b6457e060405160405180910390a35050565b600080fd5b600073ffffffffffffffffffffffffffffffffffffffff82169050919050565b6000620003f082620003c3565b9050919050565b6200040281620003e3565b81146200040e57600080fd5b50565b6000815190506200042281620003f7565b92915050565b6000819050919050565b6200043d8162000428565b81146200044957600080fd5b50565b6000815190506200045d8162000432565b92915050565b6000806000806080858703121562000480576200047f620003be565b5b6000620004908782880162000411565b9450506020620004a38782880162000411565b9350506040620004b6878288016200044c565b9250506060620004c98782880162000411565b91505092959194509250565b600060ff82169050919050565b620004ed81620004d5565b8114620004f957600080fd5b50565b6000815190506200050d81620004e2565b92915050565b6000602082840312156200052c576200052b620003be565b5b60006200053c84828501620004fc565b91505092915050565b7f4e487b7100000000000000000000000000000000000000000000000000000000600052601160045260246000fd5b60008160011c9050919050565b6000808291508390505b6001851115620005d357808604811115620005ab57620005aa62000545565b5b6001851615620005bb5780820291505b8081029050620005cb8562000574565b94506200058b565b94509492505050565b600082620005ee5760019050620006c1565b81620005fe5760009050620006c1565b8160018114620006175760028114620006225762000658565b6001915050620006c1565b60ff84111562000637576200063662000545565b5b8360020a91508482111562000651576200065062000545565b5b50620006c1565b5060208310610133831016604e8410600b8410161715620006925782820a9050838111156200068c576200068b62000545565b5b620006c1565b620006a1848484600162000581565b92509050818404811115620006bb57620006ba62000545565b5b81810290505b9392505050565b6000620006d58262000428565b9150620006e283620004d5565b9250620007117fffffffffffffffffffffffffffffffffffffffffffffffffffffffffffffffff8484620005dc565b905092915050565b6000620007268262000428565b9150620007338362000428565b9250828202620007438162000428565b915082820484148315176200075d576200075c62000545565b5b5092915050565b614f3180620007746000396000f3fe608060405234801561001057600080fd5b50600436106102275760003560e01c8063715018a611610130578063c2735fb9116100b8578063ebf0c7171161007c578063ebf0c717146106c9578063f2fde38b146106e7578063f4e7a57a14610703578063f88979451461071f578063fc4c61111461073d57610227565b8063c2735fb914610625578063cf1962a214610643578063d0ebdbe714610673578063d3a063031461068f578063e95b1ef2146106ab57610227565b80637dc0d1d0116100ff5780637dc0d1d01461057e5780638da5cb5b1461059c5780638e15f473146105ba578063b6b55f25146105d9578063c0f3c1fd146105f557610227565b8063715018a6146104f8578063721e47d4146105025780637669a2a8146105325780637adbf9731461056257610227565b8063365b98b2116101b357806360e07f241161018257806360e07f24146104405780636604fd251461047057806366a4b6c01461048c578063688647cc146104aa5780636ac5db19146104da57610227565b8063365b98b21461038e5780633d86570c146103be578063481c6a75146103f25780634dc12d7f1461041057610227565b806316c19739116101fa57806316c19739146102c457806321ff9970146102f457806322297eea1461031057806322d31977146103405780632981cb291461035e57610227565b8063015f1abe1461022c57806306a27a38146102485780630b5296ef1461027857806311a3731e14610294575b600080fd5b6102466004803603810190610241919061348f565b610759565b005b610262600480360381019061025d919061351a565b61076b565b60405161026f919061357c565b60405180910390f35b610292600480360381019061028d9190613597565b6107c6565b005b6102ae60048036038101906102a991906135ea565b610db8565b6040516102bb9190613626565b60405180910390f35b6102de60048036038101906102d991906135ea565b610e1d565b6040516102eb9190613981565b60405180910390f35b61030e600480360381019061030991906139d9565b610ffa565b005b61032a600480360381019061032591906135ea565b611094565b6040516103379190613a21565b60405180910390f35b6103486110e5565b6040516103559190613a9b565b60405180910390f35b610378600480360381019061037391906135ea565b61110b565b6040516103859190613be5565b60405180910390f35b6103a860048036038101906103a3919061348f565b61158d565b6040516103b5919061357c565b60405180910390f35b6103d860048036038101906103d391906135ea565b6115cc565b6040516103e9959493929190613c16565b60405180910390f35b6103fa61160f565b604051610407919061357c565b60405180910390f35b61042a60048036038101906104259190613c69565b611635565b6040516104379190613626565b60405180910390f35b61045a600480360381019061045591906135ea565b6118d8565b6040516104679190613626565b60405180910390f35b61048a60048036038101906104859190613e02565b611a21565b005b610494611ddd565b6040516104a19190613e80565b60405180910390f35b6104c460048036038101906104bf919061348f565b611df0565b6040516104d19190613626565b60405180910390f35b6104e2611e3e565b6040516104ef9190613626565b60405180910390f35b610500611e44565b005b61051c600480360381019061051791906135ea565b611e58565b6040516105299190613e80565b60405180910390f35b61054c60048036038101906105479190613e9b565b611e78565b6040516105599190613a21565b60405180910390f35b61057c600480360381019061057791906135ea565b611ee3565b005b610586611f2f565b604051610593919061357c565b60405180910390f35b6105a4611f55565b6040516105b1919061357c565b60405180910390f35b6105c2611f7e565b6040516105d0929190613f23565b60405180910390f35b6105f360048036038101906105ee919061348f565b61210d565b005b61060f600480360381019061060a919061348f565b61238c565b60405161061c9190613626565b60405180910390f35b61062d6123da565b60405161063a9190613626565b60405180910390f35b61065d600480360381019061065891906135ea565b6123e0565b60405161066a919061357c565b60405180910390f35b61068d600480360381019061068891906135ea565b612413565b005b6106a960048036038101906106a49190613f4c565b61245f565b005b6106b3612479565b6040516106c09190613e80565b60405180910390f35b6106d161248c565b6040516106de9190613f9b565b60405180910390f35b61070160048036038101906106fc91906135ea565b612492565b005b61071d60048036038101906107189190613e02565b612515565b005b610727612730565b6040516107349190613626565b60405180910390f35b610757600480360381019061075291906135ea565b612736565b005b61076161280b565b8060098190555050565b600a602052826000526040600020602052816000526040600020818154811061079357600080fd5b90600052602060002001600092509250509054906101000a900473ffffffffffffffffffffffffffffffffffffffff1681565b600860009054906101000a900473ffffffffffffffffffffffffffffffffffffffff1673ffffffffffffffffffffffffffffffffffffffff1663313ce5676040518163ffffffff1660e01b8152600401602060405180830381865afa158015610833573d6000803e3d6000fd5b505050506040513d601f19601f820116820180604052508101906108579190613fe2565b600560156101000a81548160ff021916908360ff160217905550600560159054906101000a900460ff16600a61088d9190614171565b60015461089a91906141bc565b600381905550600560159054906101000a900460ff16600a6108bc9190614171565b6002546108c991906141bc565b60048190555060035483101580156108e357506004548311155b610922576040517f08c379a00000000000000000000000000000000000000000000000000000000081526004016109199061425b565b60405180910390fd5b61092b33611094565b1561096b576040517f08c379a0000000000000000000000000000000000000000000000000000000008152600401610962906142c7565b60405180910390fd5b600e339080600181540180825580915050600190039060005260206000200160009091909190916101000a81548173ffffffffffffffffffffffffffffffffffffffff021916908373ffffffffffffffffffffffffffffffffffffffff160217905550600f60009054906101000a900460ff1615610a82576000600f60006101000a81548160ff0219169083151502179055506000600c60003373ffffffffffffffffffffffffffffffffffffffff1673ffffffffffffffffffffffffffffffffffffffff16815260200190815260200160002060006101000a81548173ffffffffffffffffffffffffffffffffffffffff021916908373ffffffffffffffffffffffffffffffffffffffff160217905550610b49565b610a8b81611094565b610aca576040517f08c379a0000000000000000000000000000000000000000000000000000000008152600401610ac190614333565b60405180910390fd5b80600c60003373ffffffffffffffffffffffffffffffffffffffff1673ffffffffffffffffffffffffffffffffffffffff16815260200190815260200160002060006101000a81548173ffffffffffffffffffffffffffffffffffffffff021916908373ffffffffffffffffffffffffffffffffffffffff1602179055505b610b533382612889565b6000610b5e84611df0565b9050610baf333083600560009054906101000a900473ffffffffffffffffffffffffffffffffffffffff1673ffffffffffffffffffffffffffffffffffffffff16612ac5909392919063ffffffff16565b6000604051806060016040528060006003811115610bd057610bcf613650565b5b81526020018681526020014281525090506000600d60003373ffffffffffffffffffffffffffffffffffffffff1673ffffffffffffffffffffffffffffffffffffffff1681526020019081526020016000209050858160000181905550846001811115610c4057610c3f613650565b5b8160040160006101000a81548160ff02191690836001811115610c6657610c65613650565b5b02179055508060050182908060018154018082558091505060019003906000526020600020906003020160009091909190915060008201518160000160006101000a81548160ff02191690836003811115610cc457610cc3613650565b5b021790555060208201518160010155604082015181600201555050600180811115610cf257610cf1613650565b5b856001811115610d0557610d04613650565b5b6001811115610d1757610d16613650565b5b03610d7557806006016040518060400160405280888152602001428152509080600181540180825580915050600190039060005260206000209060020201600090919091909150600082015181600001556020820151816001015550505b7f738622bfcfa5d3b13584339ab7fce8934c751760f1f6c628c6cbe6af1a523629868686604051610da893929190614353565b60405180910390a1505050505050565b60006002600b60008473ffffffffffffffffffffffffffffffffffffffff1673ffffffffffffffffffffffffffffffffffffffff16815260200190815260200160002060009054906101000a900460ff16610e1391906143b9565b60ff169050919050565b610e2561336c565b600d60008373ffffffffffffffffffffffffffffffffffffffff1673ffffffffffffffffffffffffffffffffffffffff1681526020019081526020016000206040518060e0016040529081600082015481526020016001820154815260200160028201548152602001600382015481526020016004820160009054906101000a900460ff166001811115610ebc57610ebb613650565b5b6001811115610ece57610ecd613650565b5b815260200160058201805480602002602001604051908101604052809291908181526020016000905b82821015610f7857838290600052602060002090600302016040518060600160405290816000820160009054906101000a900460ff166003811115610f3f57610f3e613650565b5b6003811115610f5157610f50613650565b5b81526020016001820154815260200160028201548152505081526020019060010190610ef7565b50505050815260200160068201805480602002602001604051908101604052809291908181526020016000905b82821015610feb57838290600052602060002090600202016040518060400160405290816000820154815260200160018201548152505081526020019060010190610fa5565b50505050815250509050919050565b600760009054906101000a900473ffffffffffffffffffffffffffffffffffffffff1673ffffffffffffffffffffffffffffffffffffffff163373ffffffffffffffffffffffffffffffffffffffff161461108a576040517f08c379a000000000000000000000000000000000000000000000000000000000815260040161108190614436565b60405180910390fd5b8060068190555050565b600080600d60008473ffffffffffffffffffffffffffffffffffffffff1673ffffffffffffffffffffffffffffffffffffffff16815260200190815260200160002060050180549050119050919050565b600560009054906101000a900473ffffffffffffffffffffffffffffffffffffffff1681565b6060600080600a60008573ffffffffffffffffffffffffffffffffffffffff1673ffffffffffffffffffffffffffffffffffffffff168152602001908152602001600020905060005b60058160ff16101561119f5760008260008360ff16815260200190815260200160002080549050905080846111899190614456565b93505080806111979061448a565b915050611154565b5060008267ffffffffffffffff8111156111bc576111bb613cbf565b5b6040519080825280602002602001820160405280156111f557816020015b6111e26133bb565b8152602001906001900390816111da5790505b5090506000805b60058160ff1610156115805760008460008360ff16815260200190815260200160002080549050905060005b8181101561156b5760008660008560ff1681526020019081526020016000208281548110611259576112586144b3565b5b9060005260206000200160009054906101000a900473ffffffffffffffffffffffffffffffffffffffff1690506000600d60008373ffffffffffffffffffffffffffffffffffffffff1673ffffffffffffffffffffffffffffffffffffffff1681526020019081526020016000206040518060e0016040529081600082015481526020016001820154815260200160028201548152602001600382015481526020016004820160009054906101000a900460ff16600181111561131f5761131e613650565b5b600181111561133157611330613650565b5b815260200160058201805480602002602001604051908101604052809291908181526020016000905b828210156113db57838290600052602060002090600302016040518060600160405290816000820160009054906101000a900460ff1660038111156113a2576113a1613650565b5b60038111156113b4576113b3613650565b5b8152602001600182015481526020016002820154815250508152602001906001019061135a565b50505050815260200160068201805480602002602001604051908101604052809291908181526020016000905b8282101561144e57838290600052602060002090600202016040518060400160405290816000820154815260200160018201548152505081526020019060010190611408565b5050505081525050905060405180608001604052808373ffffffffffffffffffffffffffffffffffffffff1681526020018660ff168152602001600c60008573ffffffffffffffffffffffffffffffffffffffff1673ffffffffffffffffffffffffffffffffffffffff16815260200190815260200160002060009054906101000a900473ffffffffffffffffffffffffffffffffffffffff1673ffffffffffffffffffffffffffffffffffffffff1681526020018260a0015160008151811061151b5761151a6144b3565b5b60200260200101516040015181525087878151811061153d5761153c6144b3565b5b60200260200101819052508580611553906144e2565b96505050508080611563906144e2565b915050611228565b505080806115789061448a565b9150506111fc565b5081945050505050919050565b600e818154811061159d57600080fd5b906000526020600020016000915054906101000a900473ffffffffffffffffffffffffffffffffffffffff1681565b600d6020528060005260406000206000915090508060000154908060010154908060020154908060030154908060040160009054906101000a900460ff16905085565b600760009054906101000a900473ffffffffffffffffffffffffffffffffffffffff1681565b600061164083611094565b61164d57600090506118d2565b6000600d60008573ffffffffffffffffffffffffffffffffffffffff1673ffffffffffffffffffffffffffffffffffffffff1681526020019081526020016000206040518060e0016040529081600082015481526020016001820154815260200160028201548152602001600382015481526020016004820160009054906101000a900460ff1660018111156116e6576116e5613650565b5b60018111156116f8576116f7613650565b5b815260200160058201805480602002602001604051908101604052809291908181526020016000905b828210156117a257838290600052602060002090600302016040518060600160405290816000820160009054906101000a900460ff16600381111561176957611768613650565b5b600381111561177b5761177a613650565b5b81526020016001820154815260200160028201548152505081526020019060010190611721565b50505050815260200160068201805480602002602001604051908101604052809291908181526020016000905b82821015611815578382906000526020600020906002020160405180604001604052908160008201548152602001600182015481525050815260200190600101906117cf565b505050508152505090506000600181111561183357611832613650565b5b8160800151600181111561184a57611849613650565b5b036118765780602001518160000151846118649190614456565b61186e919061452a565b9150506118d2565b60018081111561188957611888613650565b5b816080015160018111156118a05761189f613650565b5b036118cc5780606001518160200151846118ba919061452a565b6118c4919061452a565b9150506118d2565b60009150505b92915050565b6000600d60008373ffffffffffffffffffffffffffffffffffffffff1673ffffffffffffffffffffffffffffffffffffffff16815260200190815260200160002060020154600d60008473ffffffffffffffffffffffffffffffffffffffff1673ffffffffffffffffffffffffffffffffffffffff1681526020019081526020016000206000015461196a919061452a565b6004541115611a1757600d60008373ffffffffffffffffffffffffffffffffffffffff1673ffffffffffffffffffffffffffffffffffffffff16815260200190815260200160002060020154600d60008473ffffffffffffffffffffffffffffffffffffffff1673ffffffffffffffffffffffffffffffffffffffff16815260200190815260200160002060000154611a03919061452a565b600454611a10919061452a565b9050611a1c565b600090505b919050565b611a2a33611094565b611a69576040517f08c379a0000000000000000000000000000000000000000000000000000000008152600401611a60906145aa565b60405180910390fd5b611a74833384611e78565b611ab3576040517f08c379a0000000000000000000000000000000000000000000000000000000008152600401611aaa90614616565b60405180910390fd5b80611abe3384611635565b1015611aff576040517f08c379a0000000000000000000000000000000000000000000000000000000008152600401611af690614682565b60405180910390fd5b600180811115611b1257611b11613650565b5b600d60003373ffffffffffffffffffffffffffffffffffffffff1673ffffffffffffffffffffffffffffffffffffffff16815260200190815260200160002060040160009054906101000a900460ff166001811115611b7457611b73613650565b5b03611c1d576000600a82611b8891906146a2565b90508082611b96919061452a565b9150611be4600d60003373ffffffffffffffffffffffffffffffffffffffff1673ffffffffffffffffffffffffffffffffffffffff1681526020019081526020016000206003836000612b4e565b7fc13e24d2b0a3bacd5d1a7c514125a1e27323abf7c86f6d36597f8752bbd7eed781604051611c139190613626565b60405180910390a1505b611c68600d60003373ffffffffffffffffffffffffffffffffffffffff1673ffffffffffffffffffffffffffffffffffffffff16815260200190815260200160002060028385612b4e565b6000611c7382611df0565b905080600560009054906101000a900473ffffffffffffffffffffffffffffffffffffffff1673ffffffffffffffffffffffffffffffffffffffff166370a08231306040518263ffffffff1660e01b8152600401611cd1919061357c565b602060405180830381865afa158015611cee573d6000803e3d6000fd5b505050506040513d601f19601f82011682018060405250810190611d1291906146e8565b1015611d53576040517f08c379a0000000000000000000000000000000000000000000000000000000008152600401611d4a90614761565b60405180910390fd5b611da03382600560009054906101000a900473ffffffffffffffffffffffffffffffffffffffff1673ffffffffffffffffffffffffffffffffffffffff16612ed79092919063ffffffff16565b7f5b6b431d4476a211bb7d41c20d1aab9ae2321deee0d20be3d9fc9b1093fa6e3d82604051611dcf9190613626565b60405180910390a150505050565b600560159054906101000a900460ff1681565b600080611dfb611f7e565b509050600081600560149054906101000a900460ff16600a611e1d9190614171565b85611e289190614781565b611e3291906147f9565b90508092505050919050565b60045481565b611e4c61280b565b611e566000612f5d565b565b600b6020528060005260406000206000915054906101000a900460ff1681565b6000808383604051602001611e8e929190614863565b60405160208183030381529060405280519060200120604051602001611eb491906148ad565b604051602081830303815290604052805190602001209050611ed98560065483613021565b9150509392505050565b611eeb61280b565b80600860006101000a81548173ffffffffffffffffffffffffffffffffffffffff021916908373ffffffffffffffffffffffffffffffffffffffff16021790555050565b600860009054906101000a900473ffffffffffffffffffffffffffffffffffffffff1681565b60008060009054906101000a900473ffffffffffffffffffffffffffffffffffffffff16905090565b600080600080600860009054906101000a900473ffffffffffffffffffffffffffffffffffffffff1673ffffffffffffffffffffffffffffffffffffffff1663feaf968c6040518163ffffffff1660e01b815260040160a060405180830381865afa158015611ff1573d6000803e3d6000fd5b505050506040513d601f19601f820116820180604052508101906120159190614936565b50509250925050600954814261202b919061452a565b1061206b576040517f08c379a0000000000000000000000000000000000000000000000000000000008152600401612062906149fd565b60405180910390fd5b6000600860009054906101000a900473ffffffffffffffffffffffffffffffffffffffff1673ffffffffffffffffffffffffffffffffffffffff1663313ce5676040518163ffffffff1660e01b8152600401602060405180830381865afa1580156120da573d6000803e3d6000fd5b505050506040513d601f19601f820116820180604052508101906120fe9190613fe2565b90508281945094505050509091565b600860009054906101000a900473ffffffffffffffffffffffffffffffffffffffff1673ffffffffffffffffffffffffffffffffffffffff1663313ce5676040518163ffffffff1660e01b8152600401602060405180830381865afa15801561217a573d6000803e3d6000fd5b505050506040513d601f19601f8201168201806040525081019061219e9190613fe2565b600560156101000a81548160ff021916908360ff160217905550600560159054906101000a900460ff16600a6121d49190614171565b6001546121e191906141bc565b600381905550600560159054906101000a900460ff16600a6122039190614171565b60025461221091906141bc565b60048190555061221f33611094565b61225e576040517f08c379a0000000000000000000000000000000000000000000000000000000008152600401612255906145aa565b60405180910390fd5b80612268336118d8565b10156122a9576040517f08c379a00000000000000000000000000000000000000000000000000000000081526004016122a09061425b565b60405180910390fd5b60006122b482611df0565b9050612305333083600560009054906101000a900473ffffffffffffffffffffffffffffffffffffffff1673ffffffffffffffffffffffffffffffffffffffff16612ac5909392919063ffffffff16565b612351600d60003373ffffffffffffffffffffffffffffffffffffffff1673ffffffffffffffffffffffffffffffffffffffff1681526020019081526020016000206001846000612b4e565b7f4d6ce1e535dbade1c23defba91e23b8f791ce5edc0cc320257a2b364e4e38426826040516123809190613626565b60405180910390a15050565b600080612397611f7e565b5090506000600560149054906101000a900460ff16600a6123b89190614171565b82856123c49190614781565b6123ce91906147f9565b90508092505050919050565b60095481565b600c6020528060005260406000206000915054906101000a900473ffffffffffffffffffffffffffffffffffffffff1681565b61241b61280b565b80600760006101000a81548173ffffffffffffffffffffffffffffffffffffffff021916908373ffffffffffffffffffffffffffffffffffffffff16021790555050565b61246761280b565b81600181905550806002819055505050565b600560149054906101000a900460ff1681565b60065481565b61249a61280b565b600073ffffffffffffffffffffffffffffffffffffffff168173ffffffffffffffffffffffffffffffffffffffff1603612509576040517f08c379a000000000000000000000000000000000000000000000000000000000815260040161250090614a8f565b60405180910390fd5b61251281612f5d565b50565b61251e33611094565b61255d576040517f08c379a0000000000000000000000000000000000000000000000000000000008152600401612554906145aa565b60405180910390fd5b6001808111156125705761256f613650565b5b600d60003373ffffffffffffffffffffffffffffffffffffffff1673ffffffffffffffffffffffffffffffffffffffff16815260200190815260200160002060040160009054906101000a900460ff1660018111156125d2576125d1613650565b5b14612612576040517f08c379a000000000000000000000000000000000000000000000000000000000815260040161260990614afb565b60405180910390fd5b61261d833384611e78565b61265c576040517f08c379a000000000000000000000000000000000000000000000000000000000815260040161265390614616565b60405180910390fd5b806126673384611635565b10156126a8576040517f08c379a000000000000000000000000000000000000000000000000000000000815260040161269f90614682565b60405180910390fd5b6126f4600d60003373ffffffffffffffffffffffffffffffffffffffff1673ffffffffffffffffffffffffffffffffffffffff1681526020019081526020016000206003836000612b4e565b7fc13e24d2b0a3bacd5d1a7c514125a1e27323abf7c86f6d36597f8752bbd7eed7816040516127239190613626565b60405180910390a1505050565b60035481565b61273e61280b565b80600560006101000a81548173ffffffffffffffffffffffffffffffffffffffff021916908373ffffffffffffffffffffffffffffffffffffffff1602179055508073ffffffffffffffffffffffffffffffffffffffff1663313ce5676040518163ffffffff1660e01b8152600401602060405180830381865afa1580156127ca573d6000803e3d6000fd5b505050506040513d601f19601f820116820180604052508101906127ee9190613fe2565b600560146101000a81548160ff021916908360ff16021790555050565b612813613038565b73ffffffffffffffffffffffffffffffffffffffff16612831611f55565b73ffffffffffffffffffffffffffffffffffffffff1614612887576040517f08c379a000000000000000000000000000000000000000000000000000000000815260040161287e90614b67565b60405180910390fd5b565b600081905060006001905060005b60058160ff161015612abe57600a60008473ffffffffffffffffffffffffffffffffffffffff1673ffffffffffffffffffffffffffffffffffffffff16815260200190815260200160002060008260ff168152602001908152602001600020859080600181540180825580915050600190039060005260206000200160009091909190916101000a81548173ffffffffffffffffffffffffffffffffffffffff021916908373ffffffffffffffffffffffffffffffffffffffff16021790555081801561296e57508060ff1661296c84610db8565b145b15612a49576001600b60008573ffffffffffffffffffffffffffffffffffffffff1673ffffffffffffffffffffffffffffffffffffffff16815260200190815260200160002060008282829054906101000a900460ff166129cf9190614b87565b92506101000a81548160ff021916908360ff16021790555060006002600b60008673ffffffffffffffffffffffffffffffffffffffff1673ffffffffffffffffffffffffffffffffffffffff16815260200190815260200160002060009054906101000a900460ff16612a429190614bbc565b60ff161491505b600c60008473ffffffffffffffffffffffffffffffffffffffff1673ffffffffffffffffffffffffffffffffffffffff16815260200190815260200160002060009054906101000a900473ffffffffffffffffffffffffffffffffffffffff1692508080612ab69061448a565b915050612897565b5050505050565b612b48846323b872dd60e01b858585604051602401612ae693929190614bed565b604051602081830303815290604052907bffffffffffffffffffffffffffffffffffffffffffffffffffffffff19166020820180517bffffffffffffffffffffffffffffffffffffffffffffffffffffffff8381831617835250505050613040565b50505050565b612b56613412565b60016003811115612b6a57612b69613650565b5b846003811115612b7d57612b7c613650565b5b03612c675782856000016000828254612b969190614456565b92505081905550600180811115612bb057612baf613650565b5b8560040160009054906101000a900460ff166001811115612bd457612bd3613650565b5b03612c3257846006016040518060400160405280858152602001428152509080600181540180825580915050600190039060005260206000209060020201600090919091909150600082015181600001556020820151816001015550505b604051806060016040528060016003811115612c5157612c50613650565b5b8152602001848152602001428152509050612e5c565b60026003811115612c7b57612c7a613650565b5b846003811115612c8e57612c8d613650565b5b03612d8c5760006001811115612ca757612ca6613650565b5b8560040160009054906101000a900460ff166001811115612ccb57612cca613650565b5b03612d3c5784600201548210612d3b57600085600201548660010154612cf1919061452a565b905060008184612d01919061452a565b9050600081861115612d1c578186612d19919061452a565b90505b80886002016000828254612d309190614456565b925050819055505050505b5b82856001016000828254612d509190614456565b92505081905550604051806060016040528060026003811115612d7657612d75613650565b5b8152602001848152602001428152509050612e5b565b600380811115612d9f57612d9e613650565b5b846003811115612db257612db1613650565b5b03612e5a5782856003016000828254612dcb9190614456565b92505081905550846006016040518060400160405280858152602001428152509080600181540180825580915050600190039060005260206000209060020201600090919091909150600082015181600001556020820151816001015550506040518060600160405280600380811115612e4857612e47613650565b5b81526020018481526020014281525090505b5b5b8460050181908060018154018082558091505060019003906000526020600020906003020160009091909190915060008201518160000160006101000a81548160ff02191690836003811115612eb557612eb4613650565b5b0217905550602082015181600101556040820151816002015550505050505050565b612f588363a9059cbb60e01b8484604051602401612ef6929190614863565b604051602081830303815290604052907bffffffffffffffffffffffffffffffffffffffffffffffffffffffff19166020820180517bffffffffffffffffffffffffffffffffffffffffffffffffffffffff8381831617835250505050613040565b505050565b60008060009054906101000a900473ffffffffffffffffffffffffffffffffffffffff169050816000806101000a81548173ffffffffffffffffffffffffffffffffffffffff021916908373ffffffffffffffffffffffffffffffffffffffff1602179055508173ffffffffffffffffffffffffffffffffffffffff168173ffffffffffffffffffffffffffffffffffffffff167f8be0079c531659141344cd1fd0a4f28419497f9722a3daafe3b4186f6b6457e060405160405180910390a35050565b60008261302e8584613107565b1490509392505050565b600033905090565b60006130a2826040518060400160405280602081526020017f5361666545524332303a206c6f772d6c6576656c2063616c6c206661696c65648152508573ffffffffffffffffffffffffffffffffffffffff1661315d9092919063ffffffff16565b905060008151111561310257808060200190518101906130c29190614c50565b613101576040517f08c379a00000000000000000000000000000000000000000000000000000000081526004016130f890614cef565b60405180910390fd5b5b505050565b60008082905060005b84518110156131525761313d828683815181106131305761312f6144b3565b5b6020026020010151613175565b9150808061314a906144e2565b915050613110565b508091505092915050565b606061316c84846000856131a0565b90509392505050565b600081831061318d57613188828461326d565b613198565b613197838361326d565b5b905092915050565b6060824710156131e5576040517f08c379a00000000000000000000000000000000000000000000000000000000081526004016131dc90614d81565b60405180910390fd5b6000808673ffffffffffffffffffffffffffffffffffffffff16858760405161320e9190614e12565b60006040518083038185875af1925050503d806000811461324b576040519150601f19603f3d011682016040523d82523d6000602084013e613250565b606091505b509150915061326187838387613284565b92505050949350505050565b600082600052816020526040600020905092915050565b606083156132e65760008351036132de5761329e856132f9565b6132dd576040517f08c379a00000000000000000000000000000000000000000000000000000000081526004016132d490614e75565b60405180910390fd5b5b8290506132f1565b6132f0838361331c565b5b949350505050565b6000808273ffffffffffffffffffffffffffffffffffffffff163b119050919050565b60008251111561332f5781518083602001fd5b806040517f08c379a00000000000000000000000000000000000000000000000000000000081526004016133639190614ed9565b60405180910390fd5b6040518060e0016040528060008152602001600081526020016000815260200160008152602001600060018111156133a7576133a6613650565b5b815260200160608152602001606081525090565b6040518060800160405280600073ffffffffffffffffffffffffffffffffffffffff168152602001600060ff168152602001600073ffffffffffffffffffffffffffffffffffffffff168152602001600081525090565b60405180606001604052806000600381111561343157613430613650565b5b815260200160008152602001600081525090565b6000604051905090565b600080fd5b600080fd5b6000819050919050565b61346c81613459565b811461347757600080fd5b50565b60008135905061348981613463565b92915050565b6000602082840312156134a5576134a461344f565b5b60006134b38482850161347a565b91505092915050565b600073ffffffffffffffffffffffffffffffffffffffff82169050919050565b60006134e7826134bc565b9050919050565b6134f7816134dc565b811461350257600080fd5b50565b600081359050613514816134ee565b92915050565b6000806000606084860312156135335761353261344f565b5b600061354186828701613505565b93505060206135528682870161347a565b92505060406135638682870161347a565b9150509250925092565b613576816134dc565b82525050565b6000602082019050613591600083018461356d565b92915050565b6000806000606084860312156135b0576135af61344f565b5b60006135be8682870161347a565b93505060206135cf8682870161347a565b92505060406135e086828701613505565b9150509250925092565b600060208284031215613600576135ff61344f565b5b600061360e84828501613505565b91505092915050565b61362081613459565b82525050565b600060208201905061363b6000830184613617565b92915050565b61364a81613459565b82525050565b7f4e487b7100000000000000000000000000000000000000000000000000000000600052602160045260246000fd5b600281106136905761368f613650565b5b50565b60008190506136a18261367f565b919050565b60006136b182613693565b9050919050565b6136c1816136a6565b82525050565b600081519050919050565b600082825260208201905092915050565b6000819050602082019050919050565b6004811061370457613703613650565b5b50565b6000819050613715826136f3565b919050565b600061372582613707565b9050919050565b6137358161371a565b82525050565b606082016000820151613751600085018261372c565b5060208201516137646020850182613641565b5060408201516137776040850182613641565b50505050565b6000613789838361373b565b60608301905092915050565b6000602082019050919050565b60006137ad826136c7565b6137b781856136d2565b93506137c2836136e3565b8060005b838110156137f35781516137da888261377d565b97506137e583613795565b9250506001810190506137c6565b5085935050505092915050565b600081519050919050565b600082825260208201905092915050565b6000819050602082019050919050565b6040820160008201516138426000850182613641565b5060208201516138556020850182613641565b50505050565b6000613867838361382c565b60408301905092915050565b6000602082019050919050565b600061388b82613800565b613895818561380b565b93506138a08361381c565b8060005b838110156138d15781516138b8888261385b565b97506138c383613873565b9250506001810190506138a4565b5085935050505092915050565b600060e0830160008301516138f66000860182613641565b5060208301516139096020860182613641565b50604083015161391c6040860182613641565b50606083015161392f6060860182613641565b50608083015161394260808601826136b8565b5060a083015184820360a086015261395a82826137a2565b91505060c083015184820360c08601526139748282613880565b9150508091505092915050565b6000602082019050818103600083015261399b81846138de565b905092915050565b6000819050919050565b6139b6816139a3565b81146139c157600080fd5b50565b6000813590506139d3816139ad565b92915050565b6000602082840312156139ef576139ee61344f565b5b60006139fd848285016139c4565b91505092915050565b60008115159050919050565b613a1b81613a06565b82525050565b6000602082019050613a366000830184613a12565b92915050565b6000819050919050565b6000613a61613a5c613a57846134bc565b613a3c565b6134bc565b9050919050565b6000613a7382613a46565b9050919050565b6000613a8582613a68565b9050919050565b613a9581613a7a565b82525050565b6000602082019050613ab06000830184613a8c565b92915050565b600081519050919050565b600082825260208201905092915050565b6000819050602082019050919050565b613aeb816134dc565b82525050565b600060ff82169050919050565b613b0781613af1565b82525050565b608082016000820151613b236000850182613ae2565b506020820151613b366020850182613afe565b506040820151613b496040850182613ae2565b506060820151613b5c6060850182613641565b50505050565b6000613b6e8383613b0d565b60808301905092915050565b6000602082019050919050565b6000613b9282613ab6565b613b9c8185613ac1565b9350613ba783613ad2565b8060005b83811015613bd8578151613bbf8882613b62565b9750613bca83613b7a565b925050600181019050613bab565b5085935050505092915050565b60006020820190508181036000830152613bff8184613b87565b905092915050565b613c10816136a6565b82525050565b600060a082019050613c2b6000830188613617565b613c386020830187613617565b613c456040830186613617565b613c526060830185613617565b613c5f6080830184613c07565b9695505050505050565b60008060408385031215613c8057613c7f61344f565b5b6000613c8e85828601613505565b9250506020613c9f8582860161347a565b9150509250929050565b600080fd5b6000601f19601f8301169050919050565b7f4e487b7100000000000000000000000000000000000000000000000000000000600052604160045260246000fd5b613cf782613cae565b810181811067ffffffffffffffff82111715613d1657613d15613cbf565b5b80604052505050565b6000613d29613445565b9050613d358282613cee565b919050565b600067ffffffffffffffff821115613d5557613d54613cbf565b5b602082029050602081019050919050565b600080fd5b6000613d7e613d7984613d3a565b613d1f565b90508083825260208201905060208402830185811115613da157613da0613d66565b5b835b81811015613dca5780613db688826139c4565b845260208401935050602081019050613da3565b5050509392505050565b600082601f830112613de957613de8613ca9565b5b8135613df9848260208601613d6b565b91505092915050565b600080600060608486031215613e1b57613e1a61344f565b5b600084013567ffffffffffffffff811115613e3957613e38613454565b5b613e4586828701613dd4565b9350506020613e568682870161347a565b9250506040613e678682870161347a565b9150509250925092565b613e7a81613af1565b82525050565b6000602082019050613e956000830184613e71565b92915050565b600080600060608486031215613eb457613eb361344f565b5b600084013567ffffffffffffffff811115613ed257613ed1613454565b5b613ede86828701613dd4565b9350506020613eef86828701613505565b9250506040613f008682870161347a565b9150509250925092565b6000819050919050565b613f1d81613f0a565b82525050565b6000604082019050613f386000830185613f14565b613f456020830184613e71565b9392505050565b60008060408385031215613f6357613f6261344f565b5b6000613f718582860161347a565b9250506020613f828582860161347a565b9150509250929050565b613f95816139a3565b82525050565b6000602082019050613fb06000830184613f8c565b92915050565b613fbf81613af1565b8114613fca57600080fd5b50565b600081519050613fdc81613fb6565b92915050565b600060208284031215613ff857613ff761344f565b5b600061400684828501613fcd565b91505092915050565b7f4e487b7100000000000000000000000000000000000000000000000000000000600052601160045260246000fd5b60008160011c9050919050565b6000808291508390505b6001851115614095578086048111156140715761407061400f565b5b60018516156140805780820291505b808102905061408e8561403e565b9450614055565b94509492505050565b6000826140ae576001905061416a565b816140bc576000905061416a565b81600181146140d257600281146140dc5761410b565b600191505061416a565b60ff8411156140ee576140ed61400f565b5b8360020a9150848211156141055761410461400f565b5b5061416a565b5060208310610133831016604e8410600b84101617156141405782820a90508381111561413b5761413a61400f565b5b61416a565b61414d848484600161404b565b925090508184048111156141645761416361400f565b5b81810290505b9392505050565b600061417c82613459565b915061418783613af1565b92506141b47fffffffffffffffffffffffffffffffffffffffffffffffffffffffffffffffff848461409e565b905092915050565b60006141c782613459565b91506141d283613459565b92508282026141e081613459565b915082820484148315176141f7576141f661400f565b5b5092915050565b600082825260208201905092915050565b7f696e76616c69642075736420616d6f756e740000000000000000000000000000600082015250565b60006142456012836141fe565b91506142508261420f565b602082019050919050565b6000602082019050818103600083015261427481614238565b9050919050565b7f416c7265616479206861766520706f736974696f6e0000000000000000000000600082015250565b60006142b16015836141fe565b91506142bc8261427b565b602082019050919050565b600060208201905081810360008301526142e0816142a4565b9050919050565b7f496e766974657220686173206e6f20706f736974696f6e000000000000000000600082015250565b600061431d6017836141fe565b9150614328826142e7565b602082019050919050565b6000602082019050818103600083015261434c81614310565b9050919050565b60006060820190506143686000830186613617565b6143756020830185613617565b614382604083018461356d565b949350505050565b7f4e487b7100000000000000000000000000000000000000000000000000000000600052601260045260246000fd5b60006143c482613af1565b91506143cf83613af1565b9250826143df576143de61438a565b5b828204905092915050565b7f6f6e6c79206d616e616765722063616e2075706461746520726f6f7400000000600082015250565b6000614420601c836141fe565b915061442b826143ea565b602082019050919050565b6000602082019050818103600083015261444f81614413565b9050919050565b600061446182613459565b915061446c83613459565b92508282019050808211156144845761448361400f565b5b92915050565b600061449582613af1565b915060ff82036144a8576144a761400f565b5b600182019050919050565b7f4e487b7100000000000000000000000000000000000000000000000000000000600052603260045260246000fd5b60006144ed82613459565b91507fffffffffffffffffffffffffffffffffffffffffffffffffffffffffffffffff820361451f5761451e61400f565b5b600182019050919050565b600061453582613459565b915061454083613459565b92508282039050818111156145585761455761400f565b5b92915050565b7f68617665206e6f20706f736974696f6e00000000000000000000000000000000600082015250565b60006145946010836141fe565b915061459f8261455e565b602082019050919050565b600060208201905081810360008301526145c381614587565b9050919050565b7f696e76616c69642070726f6f6600000000000000000000000000000000000000600082015250565b6000614600600d836141fe565b915061460b826145ca565b602082019050919050565b6000602082019050818103600083015261462f816145f3565b9050919050565b7f696e73756666696369656e7420776974686472617761626c6500000000000000600082015250565b600061466c6019836141fe565b915061467782614636565b602082019050919050565b6000602082019050818103600083015261469b8161465f565b9050919050565b60006146ad82613459565b91506146b883613459565b9250826146c8576146c761438a565b5b828204905092915050565b6000815190506146e281613463565b92915050565b6000602082840312156146fe576146fd61344f565b5b600061470c848285016146d3565b91505092915050565b7f696e73756666696369656e742062616c616e6365000000000000000000000000600082015250565b600061474b6014836141fe565b915061475682614715565b602082019050919050565b6000602082019050818103600083015261477a8161473e565b9050919050565b600061478c82613f0a565b915061479783613f0a565b92508282026147a581613f0a565b91507f800000000000000000000000000000000000000000000000000000000000000084146000841216156147dd576147dc61400f565b5b82820584148315176147f2576147f161400f565b5b5092915050565b600061480482613f0a565b915061480f83613f0a565b92508261481f5761481e61438a565b5b600160000383147f8000000000000000000000000000000000000000000000000000000000000000831416156148585761485761400f565b5b828205905092915050565b6000604082019050614878600083018561356d565b6148856020830184613617565b9392505050565b6000819050919050565b6148a76148a2826139a3565b61488c565b82525050565b60006148b98284614896565b60208201915081905092915050565b600069ffffffffffffffffffff82169050919050565b6148e7816148c8565b81146148f257600080fd5b50565b600081519050614904816148de565b92915050565b61491381613f0a565b811461491e57600080fd5b50565b6000815190506149308161490a565b92915050565b600080600080600060a086880312156149525761495161344f565b5b6000614960888289016148f5565b955050602061497188828901614921565b9450506040614982888289016146d3565b9350506060614993888289016146d3565b92505060806149a4888289016148f5565b9150509295509295909350565b7f507269636520657870697265642e000000000000000000000000000000000000600082015250565b60006149e7600e836141fe565b91506149f2826149b1565b602082019050919050565b60006020820190508181036000830152614a16816149da565b9050919050565b7f4f776e61626c653a206e6577206f776e657220697320746865207a65726f206160008201527f6464726573730000000000000000000000000000000000000000000000000000602082015250565b6000614a796026836141fe565b9150614a8482614a1d565b604082019050919050565b60006020820190508181036000830152614aa881614a6c565b9050919050565b7f6d75737420626520706572696f64333635000000000000000000000000000000600082015250565b6000614ae56011836141fe565b9150614af082614aaf565b602082019050919050565b60006020820190508181036000830152614b1481614ad8565b9050919050565b7f4f776e61626c653a2063616c6c6572206973206e6f7420746865206f776e6572600082015250565b6000614b516020836141fe565b9150614b5c82614b1b565b602082019050919050565b60006020820190508181036000830152614b8081614b44565b9050919050565b6000614b9282613af1565b9150614b9d83613af1565b9250828201905060ff811115614bb657614bb561400f565b5b92915050565b6000614bc782613af1565b9150614bd283613af1565b925082614be257614be161438a565b5b828206905092915050565b6000606082019050614c02600083018661356d565b614c0f602083018561356d565b614c1c6040830184613617565b949350505050565b614c2d81613a06565b8114614c3857600080fd5b50565b600081519050614c4a81614c24565b92915050565b600060208284031215614c6657614c6561344f565b5b6000614c7484828501614c3b565b91505092915050565b7f5361666545524332303a204552433230206f7065726174696f6e20646964206e60008201527f6f74207375636365656400000000000000000000000000000000000000000000602082015250565b6000614cd9602a836141fe565b9150614ce482614c7d565b604082019050919050565b60006020820190508181036000830152614d0881614ccc565b9050919050565b7f416464726573733a20696e73756666696369656e742062616c616e636520666f60008201527f722063616c6c0000000000000000000000000000000000000000000000000000602082015250565b6000614d6b6026836141fe565b9150614d7682614d0f565b604082019050919050565b60006020820190508181036000830152614d9a81614d5e565b9050919050565b600081519050919050565b600081905092915050565b60005b83811015614dd5578082015181840152602081019050614dba565b60008484015250505050565b6000614dec82614da1565b614df68185614dac565b9350614e06818560208601614db7565b80840191505092915050565b6000614e1e8284614de1565b915081905092915050565b7f416464726573733a2063616c6c20746f206e6f6e2d636f6e7472616374000000600082015250565b6000614e5f601d836141fe565b9150614e6a82614e29565b602082019050919050565b60006020820190508181036000830152614e8e81614e52565b9050919050565b600081519050919050565b6000614eab82614e95565b614eb581856141fe565b9350614ec5818560208601614db7565b614ece81613cae565b840191505092915050565b60006020820190508181036000830152614ef38184614ea0565b90509291505056fea2646970667358221220865194d141e4630080cf1da5ac6a13b19b249974051b0d74a133130d0154c27664736f6c63430008110033",
  "linkReferences": {},
  "deployedLinkReferences": {}
}