{
  "_format": "hh-sol-artifact-1",
  "contractName": "MultiMerkleStash",
  "sourceName": "contracts/MultiMerkleStash.sol",
  "abi": [
    {
      "anonymous": false,
      "inputs": [
        {
          "indexed": true,
          "internalType": "address",
          "name": "token",
          "type": "address"
        },
        {
          "indexed": false,
          "internalType": "uint256",
          "name": "index",
          "type": "uint256"
        },
        {
          "indexed": false,
          "internalType": "uint256",
          "name": "amount",
          "type": "uint256"
        },
        {
          "indexed": true,
          "internalType": "address",
          "name": "account",
          "type": "address"
        },
        {
          "indexed": true,
          "internalType": "uint256",
          "name": "update",
          "type": "uint256"
        }
      ],
      "name": "Claimed",
      "type": "event"
    },
    {
      "anonymous": false,
      "inputs": [
        {
          "indexed": true,
          "internalType": "address",
          "name": "token",
          "type": "address"
        },
        {
          "indexed": true,
          "internalType": "bytes32",
          "name": "merkleRoot",
          "type": "bytes32"
        },
        {
          "indexed": true,
          "internalType": "uint256",
          "name": "update",
          "type": "uint256"
        }
      ],
      "name": "MerkleRootUpdated",
      "type": "event"
    },
    {
      "anonymous": false,
      "inputs": [
        {
          "indexed": true,
          "internalType": "address",
          "name": "previousOwner",
          "type": "address"
        },
        {
          "indexed": true,
          "internalType": "address",
          "name": "newOwner",
          "type": "address"
        }
      ],
      "name": "OwnershipTransferred",
      "type": "event"
    },
    {
      "inputs": [
        {
          "internalType": "address",
          "name": "token",
          "type": "address"
        },
        {
          "internalType": "uint256",
          "name": "index",
          "type": "uint256"
        },
        {
          "internalType": "address",
          "name": "account",
          "type": "address"
        },
        {
          "internalType": "uint256",
          "name": "amount",
          "type": "uint256"
        },
        {
          "internalType": "bytes32[]",
          "name": "merkleProof",
          "type": "bytes32[]"
        }
      ],
      "name": "claim",
      "outputs": [],
      "stateMutability": "nonpayable",
      "type": "function"
    },
    {
      "inputs": [
        {
          "internalType": "address",
          "name": "account",
          "type": "address"
        },
        {
          "components": [
            {
              "internalType": "address",
              "name": "token",
              "type": "address"
            },
            {
              "internalType": "uint256",
              "name": "index",
              "type": "uint256"
            },
            {
              "internalType": "uint256",
              "name": "amount",
              "type": "uint256"
            },
            {
              "internalType": "bytes32[]",
              "name": "merkleProof",
              "type": "bytes32[]"
            }
          ],
          "internalType": "struct MultiMerkleStash.claimParam[]",
          "name": "claims",
          "type": "tuple[]"
        }
      ],
      "name": "claimMulti",
      "outputs": [],
      "stateMutability": "nonpayable",
      "type": "function"
    },
    {
      "inputs": [
        {
          "internalType": "address",
          "name": "",
          "type": "address"
        },
        {
          "internalType": "uint256",
          "name": "",
          "type": "uint256"
        },
        {
          "internalType": "address",
          "name": "",
          "type": "address"
        }
      ],
      "name": "claimedMap",
      "outputs": [
        {
          "internalType": "bool",
          "name": "",
          "type": "bool"
        }
      ],
      "stateMutability": "view",
      "type": "function"
    },
    {
      "inputs": [
        {
          "internalType": "address",
          "name": "token",
          "type": "address"
        },
        {
          "internalType": "uint256",
          "name": "index",
          "type": "uint256"
        },
        {
          "internalType": "address",
          "name": "user",
          "type": "address"
        }
      ],
      "name": "isClaimed",
      "outputs": [
        {
          "internalType": "bool",
          "name": "",
          "type": "bool"
        }
      ],
      "stateMutability": "view",
      "type": "function"
    },
    {
      "inputs": [
        {
          "internalType": "address",
          "name": "",
          "type": "address"
        }
      ],
      "name": "merkleRoot",
      "outputs": [
        {
          "internalType": "bytes32",
          "name": "",
          "type": "bytes32"
        }
      ],
      "stateMutability": "view",
      "type": "function"
    },
    {
      "inputs": [],
      "name": "owner",
      "outputs": [
        {
          "internalType": "address",
          "name": "",
          "type": "address"
        }
      ],
      "stateMutability": "view",
      "type": "function"
    },
    {
      "inputs": [],
      "name": "renounceOwnership",
      "outputs": [],
      "stateMutability": "nonpayable",
      "type": "function"
    },
    {
      "inputs": [
        {
          "internalType": "address",
          "name": "newOwner",
          "type": "address"
        }
      ],
      "name": "transferOwnership",
      "outputs": [],
      "stateMutability": "nonpayable",
      "type": "function"
    },
    {
      "inputs": [
        {
          "internalType": "address",
          "name": "",
          "type": "address"
        }
      ],
      "name": "update",
      "outputs": [
        {
          "internalType": "uint256",
          "name": "",
          "type": "uint256"
        }
      ],
      "stateMutability": "view",
      "type": "function"
    },
    {
      "inputs": [
        {
          "internalType": "address",
          "name": "token",
          "type": "address"
        },
        {
          "internalType": "bytes32",
          "name": "_merkleRoot",
          "type": "bytes32"
        }
      ],
      "name": "updateMerkleRoot",
      "outputs": [],
      "stateMutability": "nonpayable",
      "type": "function"
    }
  ],
  "bytecode": "0x608060405234801561001057600080fd5b5061002d61002261003260201b60201c565b61003a60201b60201c565b6100fe565b600033905090565b60008060009054906101000a900473ffffffffffffffffffffffffffffffffffffffff169050816000806101000a81548173ffffffffffffffffffffffffffffffffffffffff021916908373ffffffffffffffffffffffffffffffffffffffff1602179055508173ffffffffffffffffffffffffffffffffffffffff168173ffffffffffffffffffffffffffffffffffffffff167f8be0079c531659141344cd1fd0a4f28419497f9722a3daafe3b4186f6b6457e060405160405180910390a35050565b611a1c8061010d6000396000f3fe608060405234801561001057600080fd5b506004361061009e5760003560e01c8063ab97885711610066578063ab97885714610133578063e211158614610163578063e786818e14610193578063eee5d0de146101af578063f2fde38b146101df5761009e565b806312d18ed6146100a35780631c1b8772146100bf57806320ce64de146100ef578063715018a61461010b5780638da5cb5b14610115575b600080fd5b6100bd60048036038101906100b89190610f78565b6101fb565b005b6100d960048036038101906100d49190611012565b6104cf565b6040516100e6919061104e565b60405180910390f35b610109600480360381019061010491906110bf565b6104e7565b005b6101136105d2565b005b61011d6105e6565b60405161012a919061112e565b60405180910390f35b61014d60048036038101906101489190611149565b61060f565b60405161015a91906111b7565b60405180910390f35b61017d60048036038101906101789190611012565b6106b5565b60405161018a91906111eb565b60405180910390f35b6101ad60048036038101906101a89190611232565b6106cd565b005b6101c960048036038101906101c49190611149565b6107f8565b6040516101d691906111b7565b60405180910390f35b6101f960048036038101906101f49190611012565b610834565b005b6000801b600160008873ffffffffffffffffffffffffffffffffffffffff1673ffffffffffffffffffffffffffffffffffffffff168152602001908152602001600020540361027f576040517f08c379a0000000000000000000000000000000000000000000000000000000008152600401610276906112cf565b60405180910390fd5b61028a86868661060f565b156102ca576040517f08c379a00000000000000000000000000000000000000000000000000000000081526004016102c19061133b565b60405180910390fd5b60008585856040516020016102e19392919061135b565b6040516020818303038152906040528051906020012060405160200161030791906113b3565b6040516020818303038152906040528051906020012090506103aa838380806020026020016040519081016040528093929190818152602001838360200280828437600081840152601f19601f82011690508083019250505050505050600160008a73ffffffffffffffffffffffffffffffffffffffff1673ffffffffffffffffffffffffffffffffffffffff16815260200190815260200160002054836108b7565b6103e9576040517f08c379a00000000000000000000000000000000000000000000000000000000081526004016103e09061141a565b60405180910390fd5b6103f48787876108ce565b61041f85858973ffffffffffffffffffffffffffffffffffffffff166109799092919063ffffffff16565b600260008873ffffffffffffffffffffffffffffffffffffffff1673ffffffffffffffffffffffffffffffffffffffff168152602001908152602001600020548573ffffffffffffffffffffffffffffffffffffffff168873ffffffffffffffffffffffffffffffffffffffff167f4766921f5c59646d22d7d266a29164c8e9623684d8dfdbd931731dfdca02523889886040516104be92919061143a565b60405180910390a450505050505050565b60026020528060005260406000206000915090505481565b60005b828290508110156105cc576105bb83838381811061050b5761050a611463565b5b905060200281019061051d91906114a1565b600001602081019061052f9190611012565b84848481811061054257610541611463565b5b905060200281019061055491906114a1565b602001358686868681811061056c5761056b611463565b5b905060200281019061057e91906114a1565b6040013587878781811061059557610594611463565b5b90506020028101906105a791906114a1565b80606001906105b691906114c9565b6101fb565b806105c59061155b565b90506104ea565b50505050565b6105da6109ff565b6105e46000610a7d565b565b60008060009054906101000a900473ffffffffffffffffffffffffffffffffffffffff16905090565b6000600360008573ffffffffffffffffffffffffffffffffffffffff1673ffffffffffffffffffffffffffffffffffffffff168152602001908152602001600020600084815260200190815260200160002060008373ffffffffffffffffffffffffffffffffffffffff1673ffffffffffffffffffffffffffffffffffffffff16815260200190815260200160002060009054906101000a900460ff1690509392505050565b60016020528060005260406000206000915090505481565b6106d56109ff565b6001600260008473ffffffffffffffffffffffffffffffffffffffff1673ffffffffffffffffffffffffffffffffffffffff168152602001908152602001600020600082825461072591906115a3565b9250508190555080600160008473ffffffffffffffffffffffffffffffffffffffff1673ffffffffffffffffffffffffffffffffffffffff16815260200190815260200160002081905550600260008373ffffffffffffffffffffffffffffffffffffffff1673ffffffffffffffffffffffffffffffffffffffff16815260200190815260200160002054818373ffffffffffffffffffffffffffffffffffffffff167fbdc375de8a677af383c6ee6f8b2027dbd231c3c47453ce81d1ce8f1bcdb722dc60405160405180910390a45050565b6003602052826000526040600020602052816000526040600020602052806000526040600020600092509250509054906101000a900460ff1681565b61083c6109ff565b600073ffffffffffffffffffffffffffffffffffffffff168173ffffffffffffffffffffffffffffffffffffffff16036108ab576040517f08c379a00000000000000000000000000000000000000000000000000000000081526004016108a290611649565b60405180910390fd5b6108b481610a7d565b50565b6000826108c48584610b41565b1490509392505050565b6001600360008573ffffffffffffffffffffffffffffffffffffffff1673ffffffffffffffffffffffffffffffffffffffff168152602001908152602001600020600084815260200190815260200160002060008373ffffffffffffffffffffffffffffffffffffffff1673ffffffffffffffffffffffffffffffffffffffff16815260200190815260200160002060006101000a81548160ff021916908315150217905550505050565b6109fa8363a9059cbb60e01b8484604051602401610998929190611669565b604051602081830303815290604052907bffffffffffffffffffffffffffffffffffffffffffffffffffffffff19166020820180517bffffffffffffffffffffffffffffffffffffffffffffffffffffffff8381831617835250505050610b97565b505050565b610a07610c5e565b73ffffffffffffffffffffffffffffffffffffffff16610a256105e6565b73ffffffffffffffffffffffffffffffffffffffff1614610a7b576040517f08c379a0000000000000000000000000000000000000000000000000000000008152600401610a72906116de565b60405180910390fd5b565b60008060009054906101000a900473ffffffffffffffffffffffffffffffffffffffff169050816000806101000a81548173ffffffffffffffffffffffffffffffffffffffff021916908373ffffffffffffffffffffffffffffffffffffffff1602179055508173ffffffffffffffffffffffffffffffffffffffff168173ffffffffffffffffffffffffffffffffffffffff167f8be0079c531659141344cd1fd0a4f28419497f9722a3daafe3b4186f6b6457e060405160405180910390a35050565b60008082905060005b8451811015610b8c57610b7782868381518110610b6a57610b69611463565b5b6020026020010151610c66565b91508080610b849061155b565b915050610b4a565b508091505092915050565b6000610bf9826040518060400160405280602081526020017f5361666545524332303a206c6f772d6c6576656c2063616c6c206661696c65648152508573ffffffffffffffffffffffffffffffffffffffff16610c919092919063ffffffff16565b9050600081511115610c595780806020019051810190610c19919061172a565b610c58576040517f08c379a0000000000000000000000000000000000000000000000000000000008152600401610c4f906117c9565b60405180910390fd5b5b505050565b600033905090565b6000818310610c7e57610c798284610ca9565b610c89565b610c888383610ca9565b5b905092915050565b6060610ca08484600085610cc0565b90509392505050565b600082600052816020526040600020905092915050565b606082471015610d05576040517f08c379a0000000000000000000000000000000000000000000000000000000008152600401610cfc9061185b565b60405180910390fd5b6000808673ffffffffffffffffffffffffffffffffffffffff168587604051610d2e91906118ec565b60006040518083038185875af1925050503d8060008114610d6b576040519150601f19603f3d011682016040523d82523d6000602084013e610d70565b606091505b5091509150610d8187838387610d8d565b92505050949350505050565b60608315610def576000835103610de757610da785610e02565b610de6576040517f08c379a0000000000000000000000000000000000000000000000000000000008152600401610ddd9061194f565b60405180910390fd5b5b829050610dfa565b610df98383610e25565b5b949350505050565b6000808273ffffffffffffffffffffffffffffffffffffffff163b119050919050565b600082511115610e385781518083602001fd5b806040517f08c379a0000000000000000000000000000000000000000000000000000000008152600401610e6c91906119c4565b60405180910390fd5b600080fd5b600080fd5b600073ffffffffffffffffffffffffffffffffffffffff82169050919050565b6000610eaa82610e7f565b9050919050565b610eba81610e9f565b8114610ec557600080fd5b50565b600081359050610ed781610eb1565b92915050565b6000819050919050565b610ef081610edd565b8114610efb57600080fd5b50565b600081359050610f0d81610ee7565b92915050565b600080fd5b600080fd5b600080fd5b60008083601f840112610f3857610f37610f13565b5b8235905067ffffffffffffffff811115610f5557610f54610f18565b5b602083019150836020820283011115610f7157610f70610f1d565b5b9250929050565b60008060008060008060a08789031215610f9557610f94610e75565b5b6000610fa389828a01610ec8565b9650506020610fb489828a01610efe565b9550506040610fc589828a01610ec8565b9450506060610fd689828a01610efe565b935050608087013567ffffffffffffffff811115610ff757610ff6610e7a565b5b61100389828a01610f22565b92509250509295509295509295565b60006020828403121561102857611027610e75565b5b600061103684828501610ec8565b91505092915050565b61104881610edd565b82525050565b6000602082019050611063600083018461103f565b92915050565b60008083601f84011261107f5761107e610f13565b5b8235905067ffffffffffffffff81111561109c5761109b610f18565b5b6020830191508360208202830111156110b8576110b7610f1d565b5b9250929050565b6000806000604084860312156110d8576110d7610e75565b5b60006110e686828701610ec8565b935050602084013567ffffffffffffffff81111561110757611106610e7a565b5b61111386828701611069565b92509250509250925092565b61112881610e9f565b82525050565b6000602082019050611143600083018461111f565b92915050565b60008060006060848603121561116257611161610e75565b5b600061117086828701610ec8565b935050602061118186828701610efe565b925050604061119286828701610ec8565b9150509250925092565b60008115159050919050565b6111b18161119c565b82525050565b60006020820190506111cc60008301846111a8565b92915050565b6000819050919050565b6111e5816111d2565b82525050565b600060208201905061120060008301846111dc565b92915050565b61120f816111d2565b811461121a57600080fd5b50565b60008135905061122c81611206565b92915050565b6000806040838503121561124957611248610e75565b5b600061125785828601610ec8565b92505060206112688582860161121d565b9150509250929050565b600082825260208201905092915050565b7f66726f7a656e0000000000000000000000000000000000000000000000000000600082015250565b60006112b9600683611272565b91506112c482611283565b602082019050919050565b600060208201905081810360008301526112e8816112ac565b9050919050565b7f44726f7020616c726561647920636c61696d65642e0000000000000000000000600082015250565b6000611325601583611272565b9150611330826112ef565b602082019050919050565b6000602082019050818103600083015261135481611318565b9050919050565b6000606082019050611370600083018661103f565b61137d602083018561111f565b61138a604083018461103f565b949350505050565b6000819050919050565b6113ad6113a8826111d2565b611392565b82525050565b60006113bf828461139c565b60208201915081905092915050565b7f496e76616c69642070726f6f662e000000000000000000000000000000000000600082015250565b6000611404600e83611272565b915061140f826113ce565b602082019050919050565b60006020820190508181036000830152611433816113f7565b9050919050565b600060408201905061144f600083018561103f565b61145c602083018461103f565b9392505050565b7f4e487b7100000000000000000000000000000000000000000000000000000000600052603260045260246000fd5b600080fd5b600080fd5b600080fd5b6000823560016080038336030381126114bd576114bc611492565b5b80830191505092915050565b600080833560016020038436030381126114e6576114e5611492565b5b80840192508235915067ffffffffffffffff82111561150857611507611497565b5b6020830192506020820236038313156115245761152361149c565b5b509250929050565b7f4e487b7100000000000000000000000000000000000000000000000000000000600052601160045260246000fd5b600061156682610edd565b91507fffffffffffffffffffffffffffffffffffffffffffffffffffffffffffffffff82036115985761159761152c565b5b600182019050919050565b60006115ae82610edd565b91506115b983610edd565b92508282019050808211156115d1576115d061152c565b5b92915050565b7f4f776e61626c653a206e6577206f776e657220697320746865207a65726f206160008201527f6464726573730000000000000000000000000000000000000000000000000000602082015250565b6000611633602683611272565b915061163e826115d7565b604082019050919050565b6000602082019050818103600083015261166281611626565b9050919050565b600060408201905061167e600083018561111f565b61168b602083018461103f565b9392505050565b7f4f776e61626c653a2063616c6c6572206973206e6f7420746865206f776e6572600082015250565b60006116c8602083611272565b91506116d382611692565b602082019050919050565b600060208201905081810360008301526116f7816116bb565b9050919050565b6117078161119c565b811461171257600080fd5b50565b600081519050611724816116fe565b92915050565b6000602082840312156117405761173f610e75565b5b600061174e84828501611715565b91505092915050565b7f5361666545524332303a204552433230206f7065726174696f6e20646964206e60008201527f6f74207375636365656400000000000000000000000000000000000000000000602082015250565b60006117b3602a83611272565b91506117be82611757565b604082019050919050565b600060208201905081810360008301526117e2816117a6565b9050919050565b7f416464726573733a20696e73756666696369656e742062616c616e636520666f60008201527f722063616c6c0000000000000000000000000000000000000000000000000000602082015250565b6000611845602683611272565b9150611850826117e9565b604082019050919050565b6000602082019050818103600083015261187481611838565b9050919050565b600081519050919050565b600081905092915050565b60005b838110156118af578082015181840152602081019050611894565b60008484015250505050565b60006118c68261187b565b6118d08185611886565b93506118e0818560208601611891565b80840191505092915050565b60006118f882846118bb565b915081905092915050565b7f416464726573733a2063616c6c20746f206e6f6e2d636f6e7472616374000000600082015250565b6000611939601d83611272565b915061194482611903565b602082019050919050565b600060208201905081810360008301526119688161192c565b9050919050565b600081519050919050565b6000601f19601f8301169050919050565b60006119968261196f565b6119a08185611272565b93506119b0818560208601611891565b6119b98161197a565b840191505092915050565b600060208201905081810360008301526119de818461198b565b90509291505056fea26469706673582212209116bd25c29fc8301436a71e51010164211dcb19514baf3c71e397be8ed3061764736f6c63430008110033",
  "linkReferences": {},
  "deployedLinkReferences": {}
}