{
  "_format": "hh-sol-artifact-1",
  "contractName": "MultiMerkleStash",
  "sourceName": "contracts/MultiMerkleStash.sol",
  "abi": [
    {
      "anonymous": false,
      "inputs": [
        {
          "indexed": true,
          "internalType": "address",
          "name": "token",
          "type": "address"
        },
        {
          "indexed": false,
          "internalType": "uint256",
          "name": "index",
          "type": "uint256"
        },
        {
          "indexed": false,
          "internalType": "uint256",
          "name": "amount",
          "type": "uint256"
        },
        {
          "indexed": true,
          "internalType": "address",
          "name": "account",
          "type": "address"
        },
        {
          "indexed": true,
          "internalType": "uint256",
          "name": "update",
          "type": "uint256"
        }
      ],
      "name": "Claimed",
      "type": "event"
    },
    {
      "anonymous": false,
      "inputs": [
        {
          "indexed": true,
          "internalType": "address",
          "name": "token",
          "type": "address"
        },
        {
          "indexed": true,
          "internalType": "bytes32",
          "name": "merkleRoot",
          "type": "bytes32"
        },
        {
          "indexed": true,
          "internalType": "uint256",
          "name": "update",
          "type": "uint256"
        }
      ],
      "name": "MerkleRootUpdated",
      "type": "event"
    },
    {
      "anonymous": false,
      "inputs": [
        {
          "indexed": true,
          "internalType": "address",
          "name": "previousOwner",
          "type": "address"
        },
        {
          "indexed": true,
          "internalType": "address",
          "name": "newOwner",
          "type": "address"
        }
      ],
      "name": "OwnershipTransferred",
      "type": "event"
    },
    {
      "inputs": [
        {
          "internalType": "address",
          "name": "token",
          "type": "address"
        },
        {
          "internalType": "uint256",
          "name": "index",
          "type": "uint256"
        },
        {
          "internalType": "address",
          "name": "account",
          "type": "address"
        },
        {
          "internalType": "uint256",
          "name": "amount",
          "type": "uint256"
        },
        {
          "internalType": "bytes32[]",
          "name": "merkleProof",
          "type": "bytes32[]"
        }
      ],
      "name": "claim",
      "outputs": [],
      "stateMutability": "nonpayable",
      "type": "function"
    },
    {
      "inputs": [
        {
          "internalType": "address",
          "name": "account",
          "type": "address"
        },
        {
          "components": [
            {
              "internalType": "address",
              "name": "token",
              "type": "address"
            },
            {
              "internalType": "uint256",
              "name": "index",
              "type": "uint256"
            },
            {
              "internalType": "uint256",
              "name": "amount",
              "type": "uint256"
            },
            {
              "internalType": "bytes32[]",
              "name": "merkleProof",
              "type": "bytes32[]"
            }
          ],
          "internalType": "struct MultiMerkleStash.claimParam[]",
          "name": "claims",
          "type": "tuple[]"
        }
      ],
      "name": "claimMulti",
      "outputs": [],
      "stateMutability": "nonpayable",
      "type": "function"
    },
    {
      "inputs": [
        {
          "internalType": "address",
          "name": "token",
          "type": "address"
        },
        {
          "internalType": "uint256",
          "name": "index",
          "type": "uint256"
        }
      ],
      "name": "isClaimed",
      "outputs": [
        {
          "internalType": "bool",
          "name": "",
          "type": "bool"
        }
      ],
      "stateMutability": "view",
      "type": "function"
    },
    {
      "inputs": [
        {
          "internalType": "address",
          "name": "",
          "type": "address"
        }
      ],
      "name": "merkleRoot",
      "outputs": [
        {
          "internalType": "bytes32",
          "name": "",
          "type": "bytes32"
        }
      ],
      "stateMutability": "view",
      "type": "function"
    },
    {
      "inputs": [],
      "name": "owner",
      "outputs": [
        {
          "internalType": "address",
          "name": "",
          "type": "address"
        }
      ],
      "stateMutability": "view",
      "type": "function"
    },
    {
      "inputs": [],
      "name": "renounceOwnership",
      "outputs": [],
      "stateMutability": "nonpayable",
      "type": "function"
    },
    {
      "inputs": [
        {
          "internalType": "address",
          "name": "newOwner",
          "type": "address"
        }
      ],
      "name": "transferOwnership",
      "outputs": [],
      "stateMutability": "nonpayable",
      "type": "function"
    },
    {
      "inputs": [
        {
          "internalType": "address",
          "name": "",
          "type": "address"
        }
      ],
      "name": "update",
      "outputs": [
        {
          "internalType": "uint256",
          "name": "",
          "type": "uint256"
        }
      ],
      "stateMutability": "view",
      "type": "function"
    },
    {
      "inputs": [
        {
          "internalType": "address",
          "name": "token",
          "type": "address"
        },
        {
          "internalType": "bytes32",
          "name": "_merkleRoot",
          "type": "bytes32"
        }
      ],
      "name": "updateMerkleRoot",
      "outputs": [],
      "stateMutability": "nonpayable",
      "type": "function"
    }
  ],
  "bytecode": "0x608060405234801561001057600080fd5b5061002d61002261003260201b60201c565b61003a60201b60201c565b6100fe565b600033905090565b60008060009054906101000a900473ffffffffffffffffffffffffffffffffffffffff169050816000806101000a81548173ffffffffffffffffffffffffffffffffffffffff021916908373ffffffffffffffffffffffffffffffffffffffff1602179055508173ffffffffffffffffffffffffffffffffffffffff168173ffffffffffffffffffffffffffffffffffffffff167f8be0079c531659141344cd1fd0a4f28419497f9722a3daafe3b4186f6b6457e060405160405180910390a35050565b611b298061010d6000396000f3fe608060405234801561001057600080fd5b50600436106100935760003560e01c8063715018a611610066578063715018a6146101305780638da5cb5b1461013a578063e211158614610158578063e786818e14610188578063f2fde38b146101a457610093565b806312d18ed6146100985780631c1b8772146100b457806320ce64de146100e4578063562beba814610100575b600080fd5b6100b260048036038101906100ad9190611007565b6101c0565b005b6100ce60048036038101906100c991906110a1565b610492565b6040516100db91906110dd565b60405180910390f35b6100fe60048036038101906100f9919061114e565b6104aa565b005b61011a600480360381019061011591906111ae565b610595565b6040516101279190611209565b60405180910390f35b610138610679565b005b61014261068d565b60405161014f9190611233565b60405180910390f35b610172600480360381019061016d91906110a1565b6106b6565b60405161017f9190611267565b60405180910390f35b6101a2600480360381019061019d91906112ae565b6106ce565b005b6101be60048036038101906101b991906110a1565b6107f9565b005b6000801b600160008873ffffffffffffffffffffffffffffffffffffffff1673ffffffffffffffffffffffffffffffffffffffff1681526020019081526020016000205403610244576040517f08c379a000000000000000000000000000000000000000000000000000000000815260040161023b9061134b565b60405180910390fd5b61024e8686610595565b1561028e576040517f08c379a0000000000000000000000000000000000000000000000000000000008152600401610285906113b7565b60405180910390fd5b60008585856040516020016102a5939291906113d7565b604051602081830303815290604052805190602001206040516020016102cb919061142f565b60405160208183030381529060405280519060200120905061036e838380806020026020016040519081016040528093929190818152602001838360200280828437600081840152601f19601f82011690508083019250505050505050600160008a73ffffffffffffffffffffffffffffffffffffffff1673ffffffffffffffffffffffffffffffffffffffff168152602001908152602001600020548361087c565b6103ad576040517f08c379a00000000000000000000000000000000000000000000000000000000081526004016103a490611496565b60405180910390fd5b6103b78787610893565b6103e285858973ffffffffffffffffffffffffffffffffffffffff16610a089092919063ffffffff16565b600260008873ffffffffffffffffffffffffffffffffffffffff1673ffffffffffffffffffffffffffffffffffffffff168152602001908152602001600020548573ffffffffffffffffffffffffffffffffffffffff168873ffffffffffffffffffffffffffffffffffffffff167f4766921f5c59646d22d7d266a29164c8e9623684d8dfdbd931731dfdca02523889886040516104819291906114b6565b60405180910390a450505050505050565b60026020528060005260406000206000915090505481565b60005b8282905081101561058f5761057e8383838181106104ce576104cd6114df565b5b90506020028101906104e0919061151d565b60000160208101906104f291906110a1565b848484818110610505576105046114df565b5b9050602002810190610517919061151d565b602001358686868681811061052f5761052e6114df565b5b9050602002810190610541919061151d565b60400135878787818110610558576105576114df565b5b905060200281019061056a919061151d565b80606001906105799190611545565b6101c0565b80610588906115d7565b90506104ad565b50505050565b600080610100836105a6919061164e565b90506000610100846105b8919061167f565b90506000600360008773ffffffffffffffffffffffffffffffffffffffff1673ffffffffffffffffffffffffffffffffffffffff1681526020019081526020016000206000600260008973ffffffffffffffffffffffffffffffffffffffff1673ffffffffffffffffffffffffffffffffffffffff16815260200190815260200160002054815260200190815260200160002060008481526020019081526020016000205490506000826001901b9050808183161494505050505092915050565b610681610a8e565b61068b6000610b0c565b565b60008060009054906101000a900473ffffffffffffffffffffffffffffffffffffffff16905090565b60016020528060005260406000206000915090505481565b6106d6610a8e565b6001600260008473ffffffffffffffffffffffffffffffffffffffff1673ffffffffffffffffffffffffffffffffffffffff168152602001908152602001600020600082825461072691906116b0565b9250508190555080600160008473ffffffffffffffffffffffffffffffffffffffff1673ffffffffffffffffffffffffffffffffffffffff16815260200190815260200160002081905550600260008373ffffffffffffffffffffffffffffffffffffffff1673ffffffffffffffffffffffffffffffffffffffff16815260200190815260200160002054818373ffffffffffffffffffffffffffffffffffffffff167fbdc375de8a677af383c6ee6f8b2027dbd231c3c47453ce81d1ce8f1bcdb722dc60405160405180910390a45050565b610801610a8e565b600073ffffffffffffffffffffffffffffffffffffffff168173ffffffffffffffffffffffffffffffffffffffff1603610870576040517f08c379a000000000000000000000000000000000000000000000000000000000815260040161086790611756565b60405180910390fd5b61087981610b0c565b50565b6000826108898584610bd0565b1490509392505050565b6000610100826108a3919061164e565b90506000610100836108b5919061167f565b9050806001901b600360008673ffffffffffffffffffffffffffffffffffffffff1673ffffffffffffffffffffffffffffffffffffffff1681526020019081526020016000206000600260008873ffffffffffffffffffffffffffffffffffffffff1673ffffffffffffffffffffffffffffffffffffffff16815260200190815260200160002054815260200190815260200160002060008481526020019081526020016000205417600360008673ffffffffffffffffffffffffffffffffffffffff1673ffffffffffffffffffffffffffffffffffffffff1681526020019081526020016000206000600260008873ffffffffffffffffffffffffffffffffffffffff1673ffffffffffffffffffffffffffffffffffffffff16815260200190815260200160002054815260200190815260200160002060008481526020019081526020016000208190555050505050565b610a898363a9059cbb60e01b8484604051602401610a27929190611776565b604051602081830303815290604052907bffffffffffffffffffffffffffffffffffffffffffffffffffffffff19166020820180517bffffffffffffffffffffffffffffffffffffffffffffffffffffffff8381831617835250505050610c26565b505050565b610a96610ced565b73ffffffffffffffffffffffffffffffffffffffff16610ab461068d565b73ffffffffffffffffffffffffffffffffffffffff1614610b0a576040517f08c379a0000000000000000000000000000000000000000000000000000000008152600401610b01906117eb565b60405180910390fd5b565b60008060009054906101000a900473ffffffffffffffffffffffffffffffffffffffff169050816000806101000a81548173ffffffffffffffffffffffffffffffffffffffff021916908373ffffffffffffffffffffffffffffffffffffffff1602179055508173ffffffffffffffffffffffffffffffffffffffff168173ffffffffffffffffffffffffffffffffffffffff167f8be0079c531659141344cd1fd0a4f28419497f9722a3daafe3b4186f6b6457e060405160405180910390a35050565b60008082905060005b8451811015610c1b57610c0682868381518110610bf957610bf86114df565b5b6020026020010151610cf5565b91508080610c13906115d7565b915050610bd9565b508091505092915050565b6000610c88826040518060400160405280602081526020017f5361666545524332303a206c6f772d6c6576656c2063616c6c206661696c65648152508573ffffffffffffffffffffffffffffffffffffffff16610d209092919063ffffffff16565b9050600081511115610ce85780806020019051810190610ca89190611837565b610ce7576040517f08c379a0000000000000000000000000000000000000000000000000000000008152600401610cde906118d6565b60405180910390fd5b5b505050565b600033905090565b6000818310610d0d57610d088284610d38565b610d18565b610d178383610d38565b5b905092915050565b6060610d2f8484600085610d4f565b90509392505050565b600082600052816020526040600020905092915050565b606082471015610d94576040517f08c379a0000000000000000000000000000000000000000000000000000000008152600401610d8b90611968565b60405180910390fd5b6000808673ffffffffffffffffffffffffffffffffffffffff168587604051610dbd91906119f9565b60006040518083038185875af1925050503d8060008114610dfa576040519150601f19603f3d011682016040523d82523d6000602084013e610dff565b606091505b5091509150610e1087838387610e1c565b92505050949350505050565b60608315610e7e576000835103610e7657610e3685610e91565b610e75576040517f08c379a0000000000000000000000000000000000000000000000000000000008152600401610e6c90611a5c565b60405180910390fd5b5b829050610e89565b610e888383610eb4565b5b949350505050565b6000808273ffffffffffffffffffffffffffffffffffffffff163b119050919050565b600082511115610ec75781518083602001fd5b806040517f08c379a0000000000000000000000000000000000000000000000000000000008152600401610efb9190611ad1565b60405180910390fd5b600080fd5b600080fd5b600073ffffffffffffffffffffffffffffffffffffffff82169050919050565b6000610f3982610f0e565b9050919050565b610f4981610f2e565b8114610f5457600080fd5b50565b600081359050610f6681610f40565b92915050565b6000819050919050565b610f7f81610f6c565b8114610f8a57600080fd5b50565b600081359050610f9c81610f76565b92915050565b600080fd5b600080fd5b600080fd5b60008083601f840112610fc757610fc6610fa2565b5b8235905067ffffffffffffffff811115610fe457610fe3610fa7565b5b60208301915083602082028301111561100057610fff610fac565b5b9250929050565b60008060008060008060a0878903121561102457611023610f04565b5b600061103289828a01610f57565b965050602061104389828a01610f8d565b955050604061105489828a01610f57565b945050606061106589828a01610f8d565b935050608087013567ffffffffffffffff81111561108657611085610f09565b5b61109289828a01610fb1565b92509250509295509295509295565b6000602082840312156110b7576110b6610f04565b5b60006110c584828501610f57565b91505092915050565b6110d781610f6c565b82525050565b60006020820190506110f260008301846110ce565b92915050565b60008083601f84011261110e5761110d610fa2565b5b8235905067ffffffffffffffff81111561112b5761112a610fa7565b5b60208301915083602082028301111561114757611146610fac565b5b9250929050565b60008060006040848603121561116757611166610f04565b5b600061117586828701610f57565b935050602084013567ffffffffffffffff81111561119657611195610f09565b5b6111a2868287016110f8565b92509250509250925092565b600080604083850312156111c5576111c4610f04565b5b60006111d385828601610f57565b92505060206111e485828601610f8d565b9150509250929050565b60008115159050919050565b611203816111ee565b82525050565b600060208201905061121e60008301846111fa565b92915050565b61122d81610f2e565b82525050565b60006020820190506112486000830184611224565b92915050565b6000819050919050565b6112618161124e565b82525050565b600060208201905061127c6000830184611258565b92915050565b61128b8161124e565b811461129657600080fd5b50565b6000813590506112a881611282565b92915050565b600080604083850312156112c5576112c4610f04565b5b60006112d385828601610f57565b92505060206112e485828601611299565b9150509250929050565b600082825260208201905092915050565b7f66726f7a656e0000000000000000000000000000000000000000000000000000600082015250565b60006113356006836112ee565b9150611340826112ff565b602082019050919050565b6000602082019050818103600083015261136481611328565b9050919050565b7f44726f7020616c726561647920636c61696d65642e0000000000000000000000600082015250565b60006113a16015836112ee565b91506113ac8261136b565b602082019050919050565b600060208201905081810360008301526113d081611394565b9050919050565b60006060820190506113ec60008301866110ce565b6113f96020830185611224565b61140660408301846110ce565b949350505050565b6000819050919050565b6114296114248261124e565b61140e565b82525050565b600061143b8284611418565b60208201915081905092915050565b7f496e76616c69642070726f6f662e000000000000000000000000000000000000600082015250565b6000611480600e836112ee565b915061148b8261144a565b602082019050919050565b600060208201905081810360008301526114af81611473565b9050919050565b60006040820190506114cb60008301856110ce565b6114d860208301846110ce565b9392505050565b7f4e487b7100000000000000000000000000000000000000000000000000000000600052603260045260246000fd5b600080fd5b600080fd5b600080fd5b6000823560016080038336030381126115395761153861150e565b5b80830191505092915050565b600080833560016020038436030381126115625761156161150e565b5b80840192508235915067ffffffffffffffff82111561158457611583611513565b5b6020830192506020820236038313156115a05761159f611518565b5b509250929050565b7f4e487b7100000000000000000000000000000000000000000000000000000000600052601160045260246000fd5b60006115e282610f6c565b91507fffffffffffffffffffffffffffffffffffffffffffffffffffffffffffffffff8203611614576116136115a8565b5b600182019050919050565b7f4e487b7100000000000000000000000000000000000000000000000000000000600052601260045260246000fd5b600061165982610f6c565b915061166483610f6c565b9250826116745761167361161f565b5b828204905092915050565b600061168a82610f6c565b915061169583610f6c565b9250826116a5576116a461161f565b5b828206905092915050565b60006116bb82610f6c565b91506116c683610f6c565b92508282019050808211156116de576116dd6115a8565b5b92915050565b7f4f776e61626c653a206e6577206f776e657220697320746865207a65726f206160008201527f6464726573730000000000000000000000000000000000000000000000000000602082015250565b60006117406026836112ee565b915061174b826116e4565b604082019050919050565b6000602082019050818103600083015261176f81611733565b9050919050565b600060408201905061178b6000830185611224565b61179860208301846110ce565b9392505050565b7f4f776e61626c653a2063616c6c6572206973206e6f7420746865206f776e6572600082015250565b60006117d56020836112ee565b91506117e08261179f565b602082019050919050565b60006020820190508181036000830152611804816117c8565b9050919050565b611814816111ee565b811461181f57600080fd5b50565b6000815190506118318161180b565b92915050565b60006020828403121561184d5761184c610f04565b5b600061185b84828501611822565b91505092915050565b7f5361666545524332303a204552433230206f7065726174696f6e20646964206e60008201527f6f74207375636365656400000000000000000000000000000000000000000000602082015250565b60006118c0602a836112ee565b91506118cb82611864565b604082019050919050565b600060208201905081810360008301526118ef816118b3565b9050919050565b7f416464726573733a20696e73756666696369656e742062616c616e636520666f60008201527f722063616c6c0000000000000000000000000000000000000000000000000000602082015250565b60006119526026836112ee565b915061195d826118f6565b604082019050919050565b6000602082019050818103600083015261198181611945565b9050919050565b600081519050919050565b600081905092915050565b60005b838110156119bc5780820151818401526020810190506119a1565b60008484015250505050565b60006119d382611988565b6119dd8185611993565b93506119ed81856020860161199e565b80840191505092915050565b6000611a0582846119c8565b915081905092915050565b7f416464726573733a2063616c6c20746f206e6f6e2d636f6e7472616374000000600082015250565b6000611a46601d836112ee565b9150611a5182611a10565b602082019050919050565b60006020820190508181036000830152611a7581611a39565b9050919050565b600081519050919050565b6000601f19601f8301169050919050565b6000611aa382611a7c565b611aad81856112ee565b9350611abd81856020860161199e565b611ac681611a87565b840191505092915050565b60006020820190508181036000830152611aeb8184611a98565b90509291505056fea2646970667358221220c73f66456ccefd10a26a1f102172a72c20c11439ab65dca8d1bd68dda476f4b964736f6c63430008110033",
  "linkReferences": {},
  "deployedLinkReferences": {}
}