{
  "_format": "hh-sol-artifact-1",
  "contractName": "VotiumBribe",
  "sourceName": "contracts/VotiumBribe.sol",
  "abi": [
    {
      "inputs": [
        {
          "internalType": "address",
          "name": "feeAddress_",
          "type": "address"
        },
        {
          "internalType": "address",
          "name": "teamMember",
          "type": "address"
        },
        {
          "internalType": "uint256",
          "name": "platformFee_",
          "type": "uint256"
        }
      ],
      "stateMutability": "nonpayable",
      "type": "constructor"
    },
    {
      "anonymous": false,
      "inputs": [
        {
          "indexed": false,
          "internalType": "address",
          "name": "_token",
          "type": "address"
        },
        {
          "indexed": false,
          "internalType": "uint256",
          "name": "_amount",
          "type": "uint256"
        },
        {
          "indexed": true,
          "internalType": "bytes32",
          "name": "_proposal",
          "type": "bytes32"
        },
        {
          "indexed": false,
          "internalType": "uint256",
          "name": "_choiceIndex",
          "type": "uint256"
        }
      ],
      "name": "Bribed",
      "type": "event"
    },
    {
      "anonymous": false,
      "inputs": [
        {
          "indexed": false,
          "internalType": "bytes32",
          "name": "_proposal",
          "type": "bytes32"
        }
      ],
      "name": "Initiated",
      "type": "event"
    },
    {
      "anonymous": false,
      "inputs": [
        {
          "indexed": false,
          "internalType": "address",
          "name": "_member",
          "type": "address"
        },
        {
          "indexed": false,
          "internalType": "bool",
          "name": "_approval",
          "type": "bool"
        }
      ],
      "name": "ModifiedTeam",
      "type": "event"
    },
    {
      "anonymous": false,
      "inputs": [
        {
          "indexed": true,
          "internalType": "address",
          "name": "previousOwner",
          "type": "address"
        },
        {
          "indexed": true,
          "internalType": "address",
          "name": "newOwner",
          "type": "address"
        }
      ],
      "name": "OwnershipTransferred",
      "type": "event"
    },
    {
      "anonymous": false,
      "inputs": [
        {
          "indexed": true,
          "internalType": "address",
          "name": "_token",
          "type": "address"
        },
        {
          "indexed": false,
          "internalType": "address",
          "name": "_distributor",
          "type": "address"
        }
      ],
      "name": "UpdatedDistributor",
      "type": "event"
    },
    {
      "anonymous": false,
      "inputs": [
        {
          "indexed": false,
          "internalType": "uint256",
          "name": "_feeAmount",
          "type": "uint256"
        }
      ],
      "name": "UpdatedFee",
      "type": "event"
    },
    {
      "anonymous": false,
      "inputs": [
        {
          "indexed": false,
          "internalType": "bool",
          "name": "_requireWhitelist",
          "type": "bool"
        }
      ],
      "name": "WhitelistRequirement",
      "type": "event"
    },
    {
      "anonymous": false,
      "inputs": [
        {
          "indexed": false,
          "internalType": "address",
          "name": "_token",
          "type": "address"
        }
      ],
      "name": "Whitelisted",
      "type": "event"
    },
    {
      "inputs": [],
      "name": "DENOMINATOR",
      "outputs": [
        {
          "internalType": "uint256",
          "name": "",
          "type": "uint256"
        }
      ],
      "stateMutability": "view",
      "type": "function"
    },
    {
      "inputs": [
        {
          "internalType": "bytes32",
          "name": "_hash",
          "type": "bytes32"
        }
      ],
      "name": "approveDelegationVote",
      "outputs": [],
      "stateMutability": "nonpayable",
      "type": "function"
    },
    {
      "inputs": [
        {
          "internalType": "address",
          "name": "",
          "type": "address"
        }
      ],
      "name": "approvedTeam",
      "outputs": [
        {
          "internalType": "bool",
          "name": "",
          "type": "bool"
        }
      ],
      "stateMutability": "view",
      "type": "function"
    },
    {
      "inputs": [
        {
          "internalType": "address",
          "name": "",
          "type": "address"
        },
        {
          "internalType": "uint256",
          "name": "",
          "type": "uint256"
        }
      ],
      "name": "bribeInfoMap",
      "outputs": [
        {
          "internalType": "address",
          "name": "token",
          "type": "address"
        },
        {
          "internalType": "uint256",
          "name": "amount",
          "type": "uint256"
        },
        {
          "internalType": "bytes32",
          "name": "proposal",
          "type": "bytes32"
        },
        {
          "internalType": "uint256",
          "name": "choiceIndex",
          "type": "uint256"
        },
        {
          "internalType": "uint256",
          "name": "time",
          "type": "uint256"
        }
      ],
      "stateMutability": "view",
      "type": "function"
    },
    {
      "inputs": [
        {
          "internalType": "bytes32",
          "name": "",
          "type": "bytes32"
        }
      ],
      "name": "delegationHash",
      "outputs": [
        {
          "internalType": "bool",
          "name": "",
          "type": "bool"
        }
      ],
      "stateMutability": "view",
      "type": "function"
    },
    {
      "inputs": [
        {
          "internalType": "address",
          "name": "_token",
          "type": "address"
        },
        {
          "internalType": "uint256",
          "name": "_amount",
          "type": "uint256"
        },
        {
          "internalType": "bytes32",
          "name": "_proposal",
          "type": "bytes32"
        },
        {
          "internalType": "uint256",
          "name": "_choiceIndex",
          "type": "uint256"
        }
      ],
      "name": "depositBribe",
      "outputs": [],
      "stateMutability": "nonpayable",
      "type": "function"
    },
    {
      "inputs": [],
      "name": "feeAddress",
      "outputs": [
        {
          "internalType": "address",
          "name": "",
          "type": "address"
        }
      ],
      "stateMutability": "view",
      "type": "function"
    },
    {
      "inputs": [
        {
          "internalType": "address",
          "name": "user",
          "type": "address"
        }
      ],
      "name": "getBribeInfo",
      "outputs": [
        {
          "components": [
            {
              "internalType": "address",
              "name": "token",
              "type": "address"
            },
            {
              "internalType": "uint256",
              "name": "amount",
              "type": "uint256"
            },
            {
              "internalType": "bytes32",
              "name": "proposal",
              "type": "bytes32"
            },
            {
              "internalType": "uint256",
              "name": "choiceIndex",
              "type": "uint256"
            },
            {
              "internalType": "uint256",
              "name": "time",
              "type": "uint256"
            }
          ],
          "internalType": "struct VotiumBribe.BribeInfo[]",
          "name": "",
          "type": "tuple[]"
        }
      ],
      "stateMutability": "view",
      "type": "function"
    },
    {
      "inputs": [
        {
          "internalType": "bytes32",
          "name": "_proposal",
          "type": "bytes32"
        },
        {
          "internalType": "uint256",
          "name": "_deadline",
          "type": "uint256"
        },
        {
          "internalType": "uint256",
          "name": "_maxIndex",
          "type": "uint256"
        }
      ],
      "name": "initiateProposal",
      "outputs": [],
      "stateMutability": "nonpayable",
      "type": "function"
    },
    {
      "inputs": [
        {
          "internalType": "bytes32",
          "name": "_hash",
          "type": "bytes32"
        },
        {
          "internalType": "bytes",
          "name": "_signature",
          "type": "bytes"
        }
      ],
      "name": "isWinningSignature",
      "outputs": [
        {
          "internalType": "bool",
          "name": "",
          "type": "bool"
        }
      ],
      "stateMutability": "view",
      "type": "function"
    },
    {
      "inputs": [
        {
          "internalType": "address",
          "name": "_member",
          "type": "address"
        },
        {
          "internalType": "bool",
          "name": "_approval",
          "type": "bool"
        }
      ],
      "name": "modifyTeam",
      "outputs": [],
      "stateMutability": "nonpayable",
      "type": "function"
    },
    {
      "inputs": [],
      "name": "owner",
      "outputs": [
        {
          "internalType": "address",
          "name": "",
          "type": "address"
        }
      ],
      "stateMutability": "view",
      "type": "function"
    },
    {
      "inputs": [],
      "name": "platformFee",
      "outputs": [
        {
          "internalType": "uint256",
          "name": "",
          "type": "uint256"
        }
      ],
      "stateMutability": "view",
      "type": "function"
    },
    {
      "inputs": [
        {
          "internalType": "bytes32",
          "name": "",
          "type": "bytes32"
        }
      ],
      "name": "proposalInfo",
      "outputs": [
        {
          "internalType": "uint256",
          "name": "deadline",
          "type": "uint256"
        },
        {
          "internalType": "uint256",
          "name": "maxIndex",
          "type": "uint256"
        }
      ],
      "stateMutability": "view",
      "type": "function"
    },
    {
      "inputs": [],
      "name": "renounceOwnership",
      "outputs": [],
      "stateMutability": "nonpayable",
      "type": "function"
    },
    {
      "inputs": [],
      "name": "requireWhitelist",
      "outputs": [
        {
          "internalType": "bool",
          "name": "",
          "type": "bool"
        }
      ],
      "stateMutability": "view",
      "type": "function"
    },
    {
      "inputs": [
        {
          "internalType": "bool",
          "name": "_requireWhitelist",
          "type": "bool"
        }
      ],
      "name": "setWhitelistRequired",
      "outputs": [],
      "stateMutability": "nonpayable",
      "type": "function"
    },
    {
      "inputs": [
        {
          "internalType": "address",
          "name": "",
          "type": "address"
        }
      ],
      "name": "tokenInfo",
      "outputs": [
        {
          "internalType": "bool",
          "name": "whitelist",
          "type": "bool"
        },
        {
          "internalType": "address",
          "name": "distributor",
          "type": "address"
        }
      ],
      "stateMutability": "view",
      "type": "function"
    },
    {
      "inputs": [
        {
          "internalType": "address",
          "name": "newOwner",
          "type": "address"
        }
      ],
      "name": "transferOwnership",
      "outputs": [],
      "stateMutability": "nonpayable",
      "type": "function"
    },
    {
      "inputs": [
        {
          "internalType": "address",
          "name": "_token",
          "type": "address"
        }
      ],
      "name": "transferToDistributor",
      "outputs": [],
      "stateMutability": "nonpayable",
      "type": "function"
    },
    {
      "inputs": [
        {
          "internalType": "address",
          "name": "_token",
          "type": "address"
        },
        {
          "internalType": "address",
          "name": "_distributor",
          "type": "address"
        }
      ],
      "name": "updateDistributor",
      "outputs": [],
      "stateMutability": "nonpayable",
      "type": "function"
    },
    {
      "inputs": [
        {
          "internalType": "address",
          "name": "_feeAddress",
          "type": "address"
        }
      ],
      "name": "updateFeeAddress",
      "outputs": [],
      "stateMutability": "nonpayable",
      "type": "function"
    },
    {
      "inputs": [
        {
          "internalType": "uint256",
          "name": "_feeAmount",
          "type": "uint256"
        }
      ],
      "name": "updateFeeAmount",
      "outputs": [],
      "stateMutability": "nonpayable",
      "type": "function"
    },
    {
      "inputs": [
        {
          "internalType": "address",
          "name": "_token",
          "type": "address"
        }
      ],
      "name": "whitelistToken",
      "outputs": [],
      "stateMutability": "nonpayable",
      "type": "function"
    },
    {
      "inputs": [
        {
          "internalType": "address[]",
          "name": "_tokens",
          "type": "address[]"
        }
      ],
      "name": "whitelistTokens",
      "outputs": [],
      "stateMutability": "nonpayable",
      "type": "function"
    }
  ],
  "bytecode": "0x608060405273e39b8617d571cee5e75e1ec6b2bb40ddc8cf6fa3600660006101000a81548173ffffffffffffffffffffffffffffffffffffffff021916908373ffffffffffffffffffffffffffffffffffffffff1602179055506101906007556000600860006101000a81548160ff0219169083151502179055503480156200008757600080fd5b50604051620032e6380380620032e68339818101604052810190620000ad919062000393565b620000cd620000c16200022260201b60201c565b6200022a60201b60201c565b82600660006101000a81548173ffffffffffffffffffffffffffffffffffffffff021916908373ffffffffffffffffffffffffffffffffffffffff1602179055506001600560003373ffffffffffffffffffffffffffffffffffffffff1673ffffffffffffffffffffffffffffffffffffffff16815260200190815260200160002060006101000a81548160ff0219169083151502179055506001600560008473ffffffffffffffffffffffffffffffffffffffff1673ffffffffffffffffffffffffffffffffffffffff16815260200190815260200160002060006101000a81548160ff021916908315150217905550600081118015620001d0575061271081105b62000212576040517f08c379a0000000000000000000000000000000000000000000000000000000008152600401620002099062000450565b60405180910390fd5b8060078190555050505062000472565b600033905090565b60008060009054906101000a900473ffffffffffffffffffffffffffffffffffffffff169050816000806101000a81548173ffffffffffffffffffffffffffffffffffffffff021916908373ffffffffffffffffffffffffffffffffffffffff1602179055508173ffffffffffffffffffffffffffffffffffffffff168173ffffffffffffffffffffffffffffffffffffffff167f8be0079c531659141344cd1fd0a4f28419497f9722a3daafe3b4186f6b6457e060405160405180910390a35050565b600080fd5b600073ffffffffffffffffffffffffffffffffffffffff82169050919050565b60006200032082620002f3565b9050919050565b620003328162000313565b81146200033e57600080fd5b50565b600081519050620003528162000327565b92915050565b6000819050919050565b6200036d8162000358565b81146200037957600080fd5b50565b6000815190506200038d8162000362565b92915050565b600080600060608486031215620003af57620003ae620002ee565b5b6000620003bf8682870162000341565b9350506020620003d28682870162000341565b9250506040620003e5868287016200037c565b9150509250925092565b600082825260208201905092915050565b7f696e76616c696420706c6174666f726d20666565000000000000000000000000600082015250565b600062000438601483620003ef565b9150620004458262000400565b602082019050919050565b600060208201905081810360008301526200046b8162000429565b9050919050565b612e6480620004826000396000f3fe608060405234801561001057600080fd5b50600436106101735760003560e01c80638f3b80b2116100de578063b4c3ed9411610097578063f2fde38b11610071578063f2fde38b14610425578063f5dab71114610441578063f7b5d4a014610472578063f90388f41461048e57610173565b8063b4c3ed94146103d1578063b5c12f4d146103ed578063bbcaac381461040957610173565b80638f3b80b214610313578063918f86741461034357806392800f8614610361578063986ec1351461037d5780639ea55bb014610399578063ac0679a6146103b557610173565b806353da67f61161013057806353da67f6146102505780635d3a8999146102815780636247f6f2146102b1578063715018a6146102cd578063856734c4146102d75780638da5cb5b146102f557610173565b806314ee0a5e146101785780631fac1379146101a857806326232a2e146101c45780633c399297146101e257806341275358146102165780634cb1e9e314610234575b600080fd5b610192600480360381019061018d9190611c21565b6104be565b60405161019f9190611c69565b60405180910390f35b6101c260048036038101906101bd9190611ce2565b6104de565b005b6101cc6105b9565b6040516101d99190611d3b565b60405180910390f35b6101fc60048036038101906101f79190611d82565b6105bf565b60405161020d959493929190611de0565b60405180910390f35b61021e610632565b60405161022b9190611e33565b60405180910390f35b61024e60048036038101906102499190611fa7565b610658565b005b61026a60048036038101906102659190611c21565b6107d4565b604051610278929190611ff0565b60405180910390f35b61029b600480360381019061029691906120ce565b6107f8565b6040516102a89190611c69565b60405180910390f35b6102cb60048036038101906102c6919061212a565b610823565b005b6102d561094b565b005b6102df61095f565b6040516102ec9190611c69565b60405180910390f35b6102fd610972565b60405161030a9190611e33565b60405180910390f35b61032d6004803603810190610328919061212a565b61099b565b60405161033a9190611c69565b60405180910390f35b61034b6109bb565b6040516103589190611d3b565b60405180910390f35b61037b60048036038101906103769190611c21565b6109c1565b005b61039760048036038101906103929190612157565b610a83565b005b6103b360048036038101906103ae91906121aa565b610c23565b005b6103cf60048036038101906103ca9190612203565b610cb0565b005b6103eb60048036038101906103e6919061212a565b610d4c565b005b61040760048036038101906104029190612243565b610fbf565b005b610423600480360381019061041e919061212a565b61101b565b005b61043f600480360381019061043a919061212a565b611067565b005b61045b6004803603810190610456919061212a565b6110ea565b604051610469929190612270565b60405180910390f35b61048c60048036038101906104879190612299565b61113b565b005b6104a860048036038101906104a3919061212a565b6115ce565b6040516104b59190612444565b60405180910390f35b60046020528060005260406000206000915054906101000a900460ff1681565b6104e66116ea565b80600360008473ffffffffffffffffffffffffffffffffffffffff1673ffffffffffffffffffffffffffffffffffffffff16815260200190815260200160002060000160016101000a81548173ffffffffffffffffffffffffffffffffffffffff021916908373ffffffffffffffffffffffffffffffffffffffff1602179055508173ffffffffffffffffffffffffffffffffffffffff167ffbeb7d6e3dcb0b2bee779c64bea292263c335a0ad3f39c459aec2a70b0745653826040516105ad9190611e33565b60405180910390a25050565b60075481565b600160205281600052604060002081815481106105db57600080fd5b9060005260206000209060050201600091509150508060000160009054906101000a900473ffffffffffffffffffffffffffffffffffffffff16908060010154908060020154908060030154908060040154905085565b600660009054906101000a900473ffffffffffffffffffffffffffffffffffffffff1681565b60011515600560003373ffffffffffffffffffffffffffffffffffffffff1673ffffffffffffffffffffffffffffffffffffffff16815260200190815260200160002060009054906101000a900460ff161515146106eb576040517f08c379a00000000000000000000000000000000000000000000000000000000081526004016106e2906124c3565b60405180910390fd5b60005b81518110156107d0576001600360008484815181106107105761070f6124e3565b5b602002602001015173ffffffffffffffffffffffffffffffffffffffff1673ffffffffffffffffffffffffffffffffffffffff16815260200190815260200160002060000160006101000a81548160ff0219169083151502179055507faab7954e9d246b167ef88aeddad35209ca2489d95a8aeb59e288d9b19fae5a548282815181106107a05761079f6124e3565b5b60200260200101516040516107b59190611e33565b60405180910390a180806107c890612541565b9150506106ee565b5050565b60026020528060005260406000206000915090508060000154908060010154905082565b60006004600084815260200190815260200160002060009054906101000a900460ff16905092915050565b60011515600560003373ffffffffffffffffffffffffffffffffffffffff1673ffffffffffffffffffffffffffffffffffffffff16815260200190815260200160002060009054906101000a900460ff161515146108b6576040517f08c379a00000000000000000000000000000000000000000000000000000000081526004016108ad906124c3565b60405180910390fd5b6001600360008373ffffffffffffffffffffffffffffffffffffffff1673ffffffffffffffffffffffffffffffffffffffff16815260200190815260200160002060000160006101000a81548160ff0219169083151502179055507faab7954e9d246b167ef88aeddad35209ca2489d95a8aeb59e288d9b19fae5a54816040516109409190611e33565b60405180910390a150565b6109536116ea565b61095d6000611768565b565b600860009054906101000a900460ff1681565b60008060009054906101000a900473ffffffffffffffffffffffffffffffffffffffff16905090565b60056020528060005260406000206000915054906101000a900460ff1681565b61271081565b60011515600560003373ffffffffffffffffffffffffffffffffffffffff1673ffffffffffffffffffffffffffffffffffffffff16815260200190815260200160002060009054906101000a900460ff16151514610a54576040517f08c379a0000000000000000000000000000000000000000000000000000000008152600401610a4b906124c3565b60405180910390fd5b60016004600083815260200190815260200160002060006101000a81548160ff02191690831515021790555050565b60011515600560003373ffffffffffffffffffffffffffffffffffffffff1673ffffffffffffffffffffffffffffffffffffffff16815260200190815260200160002060009054906101000a900460ff16151514610b16576040517f08c379a0000000000000000000000000000000000000000000000000000000008152600401610b0d906124c3565b60405180910390fd5b6000600260008581526020019081526020016000206000015414610b6f576040517f08c379a0000000000000000000000000000000000000000000000000000000008152600401610b66906125d5565b60405180910390fd5b428211610bb1576040517f08c379a0000000000000000000000000000000000000000000000000000000008152600401610ba890612641565b60405180910390fd5b8160026000858152602001908152602001600020600001819055508060026000858152602001908152602001600020600101819055507f08007a3b331cd9bd3d1d3667a3724ba04d1b2799b75845215f1944debbdf844f83604051610c169190612661565b60405180910390a1505050565b610c2b6116ea565b6101908110610c6f576040517f08c379a0000000000000000000000000000000000000000000000000000000008152600401610c66906126c8565b60405180910390fd5b806007819055507f545f541f608330014315921189568bf5b2266925f757d74e5ad89ae1d2d6438c81604051610ca59190611d3b565b60405180910390a150565b610cb86116ea565b80600560008473ffffffffffffffffffffffffffffffffffffffff1673ffffffffffffffffffffffffffffffffffffffff16815260200190815260200160002060006101000a81548160ff0219169083151502179055507fae0b47afe292832708082f706affd0f37c4a556bd6dbeafe9b6a8562251c5a408282604051610d409291906126e8565b60405180910390a15050565b60011515600560003373ffffffffffffffffffffffffffffffffffffffff1673ffffffffffffffffffffffffffffffffffffffff16815260200190815260200160002060009054906101000a900460ff16151514610ddf576040517f08c379a0000000000000000000000000000000000000000000000000000000008152600401610dd6906124c3565b60405180910390fd5b600073ffffffffffffffffffffffffffffffffffffffff16600360008373ffffffffffffffffffffffffffffffffffffffff1673ffffffffffffffffffffffffffffffffffffffff16815260200190815260200160002060000160019054906101000a900473ffffffffffffffffffffffffffffffffffffffff1673ffffffffffffffffffffffffffffffffffffffff1603610eb0576040517f08c379a0000000000000000000000000000000000000000000000000000000008152600401610ea79061275d565b60405180910390fd5b60008173ffffffffffffffffffffffffffffffffffffffff166370a08231306040518263ffffffff1660e01b8152600401610eeb9190611e33565b602060405180830381865afa158015610f08573d6000803e3d6000fd5b505050506040513d601f19601f82011682018060405250810190610f2c9190612792565b9050610fbb600360008473ffffffffffffffffffffffffffffffffffffffff1673ffffffffffffffffffffffffffffffffffffffff16815260200190815260200160002060000160019054906101000a900473ffffffffffffffffffffffffffffffffffffffff16828473ffffffffffffffffffffffffffffffffffffffff1661182c9092919063ffffffff16565b5050565b610fc76116ea565b80600860006101000a81548160ff0219169083151502179055507f1fc0ad5b128ce828ca9ef82c0a5b404f173ff52a5e9a3607c182f38a6bbdb1b7816040516110109190611c69565b60405180910390a150565b6110236116ea565b80600660006101000a81548173ffffffffffffffffffffffffffffffffffffffff021916908373ffffffffffffffffffffffffffffffffffffffff16021790555050565b61106f6116ea565b600073ffffffffffffffffffffffffffffffffffffffff168173ffffffffffffffffffffffffffffffffffffffff16036110de576040517f08c379a00000000000000000000000000000000000000000000000000000000081526004016110d590612831565b60405180910390fd5b6110e781611768565b50565b60036020528060005260406000206000915090508060000160009054906101000a900460ff16908060000160019054906101000a900473ffffffffffffffffffffffffffffffffffffffff16905082565b60011515600860009054906101000a900460ff161515036111ed5760011515600360008673ffffffffffffffffffffffffffffffffffffffff1673ffffffffffffffffffffffffffffffffffffffff16815260200190815260200160002060000160009054906101000a900460ff161515146111ec576040517f08c379a00000000000000000000000000000000000000000000000000000000081526004016111e39061289d565b60405180910390fd5b5b42600260008481526020019081526020016000206000015411611245576040517f08c379a000000000000000000000000000000000000000000000000000000000815260040161123c90612909565b60405180910390fd5b806002600084815260200190815260200160002060010154101561129e576040517f08c379a000000000000000000000000000000000000000000000000000000000815260040161129590612975565b60405180910390fd5b6000612710600754856112b19190612995565b6112bb9190612a06565b9050600081856112cb9190612a37565b905061131c33600660009054906101000a900473ffffffffffffffffffffffffffffffffffffffff16848973ffffffffffffffffffffffffffffffffffffffff166118b2909392919063ffffffff16565b600073ffffffffffffffffffffffffffffffffffffffff16600360008873ffffffffffffffffffffffffffffffffffffffff1673ffffffffffffffffffffffffffffffffffffffff16815260200190815260200160002060000160019054906101000a900473ffffffffffffffffffffffffffffffffffffffff1673ffffffffffffffffffffffffffffffffffffffff16036113e4576113df3330838973ffffffffffffffffffffffffffffffffffffffff166118b2909392919063ffffffff16565b611474565b61147333600360008973ffffffffffffffffffffffffffffffffffffffff1673ffffffffffffffffffffffffffffffffffffffff16815260200190815260200160002060000160019054906101000a900473ffffffffffffffffffffffffffffffffffffffff16838973ffffffffffffffffffffffffffffffffffffffff166118b2909392919063ffffffff16565b5b837f74bd0b58587a15767427910140bcf99db1ef7f905cb0a2983a72cd20339542278783866040516114a893929190612a6b565b60405180910390a2600160003373ffffffffffffffffffffffffffffffffffffffff1673ffffffffffffffffffffffffffffffffffffffff1681526020019081526020016000206040518060a001604052808873ffffffffffffffffffffffffffffffffffffffff16815260200187815260200186815260200185815260200142815250908060018154018082558091505060019003906000526020600020906005020160009091909190915060008201518160000160006101000a81548173ffffffffffffffffffffffffffffffffffffffff021916908373ffffffffffffffffffffffffffffffffffffffff160217905550602082015181600101556040820151816002015560608201518160030155608082015181600401555050505050505050565b6060600160008373ffffffffffffffffffffffffffffffffffffffff1673ffffffffffffffffffffffffffffffffffffffff168152602001908152602001600020805480602002602001604051908101604052809291908181526020016000905b828210156116df57838290600052602060002090600502016040518060a00160405290816000820160009054906101000a900473ffffffffffffffffffffffffffffffffffffffff1673ffffffffffffffffffffffffffffffffffffffff1673ffffffffffffffffffffffffffffffffffffffff1681526020016001820154815260200160028201548152602001600382015481526020016004820154815250508152602001906001019061162f565b505050509050919050565b6116f261193b565b73ffffffffffffffffffffffffffffffffffffffff16611710610972565b73ffffffffffffffffffffffffffffffffffffffff1614611766576040517f08c379a000000000000000000000000000000000000000000000000000000000815260040161175d90612aee565b60405180910390fd5b565b60008060009054906101000a900473ffffffffffffffffffffffffffffffffffffffff169050816000806101000a81548173ffffffffffffffffffffffffffffffffffffffff021916908373ffffffffffffffffffffffffffffffffffffffff1602179055508173ffffffffffffffffffffffffffffffffffffffff168173ffffffffffffffffffffffffffffffffffffffff167f8be0079c531659141344cd1fd0a4f28419497f9722a3daafe3b4186f6b6457e060405160405180910390a35050565b6118ad8363a9059cbb60e01b848460405160240161184b929190612b0e565b604051602081830303815290604052907bffffffffffffffffffffffffffffffffffffffffffffffffffffffff19166020820180517bffffffffffffffffffffffffffffffffffffffffffffffffffffffff8381831617835250505050611943565b505050565b611935846323b872dd60e01b8585856040516024016118d393929190612b37565b604051602081830303815290604052907bffffffffffffffffffffffffffffffffffffffffffffffffffffffff19166020820180517bffffffffffffffffffffffffffffffffffffffffffffffffffffffff8381831617835250505050611943565b50505050565b600033905090565b60006119a5826040518060400160405280602081526020017f5361666545524332303a206c6f772d6c6576656c2063616c6c206661696c65648152508573ffffffffffffffffffffffffffffffffffffffff16611a0a9092919063ffffffff16565b9050600081511115611a0557808060200190518101906119c59190612b83565b611a04576040517f08c379a00000000000000000000000000000000000000000000000000000000081526004016119fb90612c22565b60405180910390fd5b5b505050565b6060611a198484600085611a22565b90509392505050565b606082471015611a67576040517f08c379a0000000000000000000000000000000000000000000000000000000008152600401611a5e90612cb4565b60405180910390fd5b6000808673ffffffffffffffffffffffffffffffffffffffff168587604051611a909190612d45565b60006040518083038185875af1925050503d8060008114611acd576040519150601f19603f3d011682016040523d82523d6000602084013e611ad2565b606091505b5091509150611ae387838387611aef565b92505050949350505050565b60608315611b51576000835103611b4957611b0985611b64565b611b48576040517f08c379a0000000000000000000000000000000000000000000000000000000008152600401611b3f90612da8565b60405180910390fd5b5b829050611b5c565b611b5b8383611b87565b5b949350505050565b6000808273ffffffffffffffffffffffffffffffffffffffff163b119050919050565b600082511115611b9a5781518083602001fd5b806040517f08c379a0000000000000000000000000000000000000000000000000000000008152600401611bce9190612e0c565b60405180910390fd5b6000604051905090565b600080fd5b600080fd5b6000819050919050565b611bfe81611beb565b8114611c0957600080fd5b50565b600081359050611c1b81611bf5565b92915050565b600060208284031215611c3757611c36611be1565b5b6000611c4584828501611c0c565b91505092915050565b60008115159050919050565b611c6381611c4e565b82525050565b6000602082019050611c7e6000830184611c5a565b92915050565b600073ffffffffffffffffffffffffffffffffffffffff82169050919050565b6000611caf82611c84565b9050919050565b611cbf81611ca4565b8114611cca57600080fd5b50565b600081359050611cdc81611cb6565b92915050565b60008060408385031215611cf957611cf8611be1565b5b6000611d0785828601611ccd565b9250506020611d1885828601611ccd565b9150509250929050565b6000819050919050565b611d3581611d22565b82525050565b6000602082019050611d506000830184611d2c565b92915050565b611d5f81611d22565b8114611d6a57600080fd5b50565b600081359050611d7c81611d56565b92915050565b60008060408385031215611d9957611d98611be1565b5b6000611da785828601611ccd565b9250506020611db885828601611d6d565b9150509250929050565b611dcb81611ca4565b82525050565b611dda81611beb565b82525050565b600060a082019050611df56000830188611dc2565b611e026020830187611d2c565b611e0f6040830186611dd1565b611e1c6060830185611d2c565b611e296080830184611d2c565b9695505050505050565b6000602082019050611e486000830184611dc2565b92915050565b600080fd5b6000601f19601f8301169050919050565b7f4e487b7100000000000000000000000000000000000000000000000000000000600052604160045260246000fd5b611e9c82611e53565b810181811067ffffffffffffffff82111715611ebb57611eba611e64565b5b80604052505050565b6000611ece611bd7565b9050611eda8282611e93565b919050565b600067ffffffffffffffff821115611efa57611ef9611e64565b5b602082029050602081019050919050565b600080fd5b6000611f23611f1e84611edf565b611ec4565b90508083825260208201905060208402830185811115611f4657611f45611f0b565b5b835b81811015611f6f5780611f5b8882611ccd565b845260208401935050602081019050611f48565b5050509392505050565b600082601f830112611f8e57611f8d611e4e565b5b8135611f9e848260208601611f10565b91505092915050565b600060208284031215611fbd57611fbc611be1565b5b600082013567ffffffffffffffff811115611fdb57611fda611be6565b5b611fe784828501611f79565b91505092915050565b60006040820190506120056000830185611d2c565b6120126020830184611d2c565b9392505050565b600080fd5b600067ffffffffffffffff82111561203957612038611e64565b5b61204282611e53565b9050602081019050919050565b82818337600083830152505050565b600061207161206c8461201e565b611ec4565b90508281526020810184848401111561208d5761208c612019565b5b61209884828561204f565b509392505050565b600082601f8301126120b5576120b4611e4e565b5b81356120c584826020860161205e565b91505092915050565b600080604083850312156120e5576120e4611be1565b5b60006120f385828601611c0c565b925050602083013567ffffffffffffffff81111561211457612113611be6565b5b612120858286016120a0565b9150509250929050565b6000602082840312156121405761213f611be1565b5b600061214e84828501611ccd565b91505092915050565b6000806000606084860312156121705761216f611be1565b5b600061217e86828701611c0c565b935050602061218f86828701611d6d565b92505060406121a086828701611d6d565b9150509250925092565b6000602082840312156121c0576121bf611be1565b5b60006121ce84828501611d6d565b91505092915050565b6121e081611c4e565b81146121eb57600080fd5b50565b6000813590506121fd816121d7565b92915050565b6000806040838503121561221a57612219611be1565b5b600061222885828601611ccd565b9250506020612239858286016121ee565b9150509250929050565b60006020828403121561225957612258611be1565b5b6000612267848285016121ee565b91505092915050565b60006040820190506122856000830185611c5a565b6122926020830184611dc2565b9392505050565b600080600080608085870312156122b3576122b2611be1565b5b60006122c187828801611ccd565b94505060206122d287828801611d6d565b93505060406122e387828801611c0c565b92505060606122f487828801611d6d565b91505092959194509250565b600081519050919050565b600082825260208201905092915050565b6000819050602082019050919050565b61233581611ca4565b82525050565b61234481611d22565b82525050565b61235381611beb565b82525050565b60a08201600082015161236f600085018261232c565b506020820151612382602085018261233b565b506040820151612395604085018261234a565b5060608201516123a8606085018261233b565b5060808201516123bb608085018261233b565b50505050565b60006123cd8383612359565b60a08301905092915050565b6000602082019050919050565b60006123f182612300565b6123fb818561230b565b93506124068361231c565b8060005b8381101561243757815161241e88826123c1565b9750612429836123d9565b92505060018101905061240a565b5085935050505092915050565b6000602082019050818103600083015261245e81846123e6565b905092915050565b600082825260208201905092915050565b7f5465616d206f6e6c790000000000000000000000000000000000000000000000600082015250565b60006124ad600983612466565b91506124b882612477565b602082019050919050565b600060208201905081810360008301526124dc816124a0565b9050919050565b7f4e487b7100000000000000000000000000000000000000000000000000000000600052603260045260246000fd5b7f4e487b7100000000000000000000000000000000000000000000000000000000600052601160045260246000fd5b600061254c82611d22565b91507fffffffffffffffffffffffffffffffffffffffffffffffffffffffffffffffff820361257e5761257d612512565b5b600182019050919050565b7f6578697374730000000000000000000000000000000000000000000000000000600082015250565b60006125bf600683612466565b91506125ca82612589565b602082019050919050565b600060208201905081810360008301526125ee816125b2565b9050919050565b7f696e76616c696420646561646c696e6500000000000000000000000000000000600082015250565b600061262b601083612466565b9150612636826125f5565b602082019050919050565b6000602082019050818103600083015261265a8161261e565b9050919050565b60006020820190506126766000830184611dd1565b92915050565b7f6d61782066656500000000000000000000000000000000000000000000000000600082015250565b60006126b2600783612466565b91506126bd8261267c565b602082019050919050565b600060208201905081810360008301526126e1816126a5565b9050919050565b60006040820190506126fd6000830185611dc2565b61270a6020830184611c5a565b9392505050565b7f6e6f206469737472696275746f72000000000000000000000000000000000000600082015250565b6000612747600e83612466565b915061275282612711565b602082019050919050565b600060208201905081810360008301526127768161273a565b9050919050565b60008151905061278c81611d56565b92915050565b6000602082840312156127a8576127a7611be1565b5b60006127b68482850161277d565b91505092915050565b7f4f776e61626c653a206e6577206f776e657220697320746865207a65726f206160008201527f6464726573730000000000000000000000000000000000000000000000000000602082015250565b600061281b602683612466565b9150612826826127bf565b604082019050919050565b6000602082019050818103600083015261284a8161280e565b9050919050565b7f2177686974656c69737400000000000000000000000000000000000000000000600082015250565b6000612887600a83612466565b915061289282612851565b602082019050919050565b600060208201905081810360008301526128b68161287a565b9050919050565b7f696e76616c69642070726f706f73616c00000000000000000000000000000000600082015250565b60006128f3601083612466565b91506128fe826128bd565b602082019050919050565b60006020820190508181036000830152612922816128e6565b9050919050565b7f696e76616c69642063686f696365000000000000000000000000000000000000600082015250565b600061295f600e83612466565b915061296a82612929565b602082019050919050565b6000602082019050818103600083015261298e81612952565b9050919050565b60006129a082611d22565b91506129ab83611d22565b92508282026129b981611d22565b915082820484148315176129d0576129cf612512565b5b5092915050565b7f4e487b7100000000000000000000000000000000000000000000000000000000600052601260045260246000fd5b6000612a1182611d22565b9150612a1c83611d22565b925082612a2c57612a2b6129d7565b5b828204905092915050565b6000612a4282611d22565b9150612a4d83611d22565b9250828203905081811115612a6557612a64612512565b5b92915050565b6000606082019050612a806000830186611dc2565b612a8d6020830185611d2c565b612a9a6040830184611d2c565b949350505050565b7f4f776e61626c653a2063616c6c6572206973206e6f7420746865206f776e6572600082015250565b6000612ad8602083612466565b9150612ae382612aa2565b602082019050919050565b60006020820190508181036000830152612b0781612acb565b9050919050565b6000604082019050612b236000830185611dc2565b612b306020830184611d2c565b9392505050565b6000606082019050612b4c6000830186611dc2565b612b596020830185611dc2565b612b666040830184611d2c565b949350505050565b600081519050612b7d816121d7565b92915050565b600060208284031215612b9957612b98611be1565b5b6000612ba784828501612b6e565b91505092915050565b7f5361666545524332303a204552433230206f7065726174696f6e20646964206e60008201527f6f74207375636365656400000000000000000000000000000000000000000000602082015250565b6000612c0c602a83612466565b9150612c1782612bb0565b604082019050919050565b60006020820190508181036000830152612c3b81612bff565b9050919050565b7f416464726573733a20696e73756666696369656e742062616c616e636520666f60008201527f722063616c6c0000000000000000000000000000000000000000000000000000602082015250565b6000612c9e602683612466565b9150612ca982612c42565b604082019050919050565b60006020820190508181036000830152612ccd81612c91565b9050919050565b600081519050919050565b600081905092915050565b60005b83811015612d08578082015181840152602081019050612ced565b60008484015250505050565b6000612d1f82612cd4565b612d298185612cdf565b9350612d39818560208601612cea565b80840191505092915050565b6000612d518284612d14565b915081905092915050565b7f416464726573733a2063616c6c20746f206e6f6e2d636f6e7472616374000000600082015250565b6000612d92601d83612466565b9150612d9d82612d5c565b602082019050919050565b60006020820190508181036000830152612dc181612d85565b9050919050565b600081519050919050565b6000612dde82612dc8565b612de88185612466565b9350612df8818560208601612cea565b612e0181611e53565b840191505092915050565b60006020820190508181036000830152612e268184612dd3565b90509291505056fea26469706673582212201b9e51c234df9a36c9df2684dcdc6fc1f03901a6a98dc2d208c1905c019a57b064736f6c63430008110033",
  "linkReferences": {},
  "deployedLinkReferences": {}
}