{
  "_format": "hh-sol-artifact-1",
  "contractName": "VotiumBribe",
  "sourceName": "contracts/VotiumBribe.sol",
  "abi": [
    {
      "inputs": [
        {
          "internalType": "address",
          "name": "feeAddress_",
          "type": "address"
        },
        {
          "internalType": "address",
          "name": "teamMember",
          "type": "address"
        },
        {
          "internalType": "uint256",
          "name": "platformFee_",
          "type": "uint256"
        }
      ],
      "stateMutability": "nonpayable",
      "type": "constructor"
    },
    {
      "anonymous": false,
      "inputs": [
        {
          "indexed": false,
          "internalType": "address",
          "name": "_token",
          "type": "address"
        },
        {
          "indexed": false,
          "internalType": "uint256",
          "name": "_amount",
          "type": "uint256"
        },
        {
          "indexed": true,
          "internalType": "bytes32",
          "name": "_proposal",
          "type": "bytes32"
        },
        {
          "indexed": false,
          "internalType": "uint256",
          "name": "_choiceIndex",
          "type": "uint256"
        }
      ],
      "name": "Bribed",
      "type": "event"
    },
    {
      "anonymous": false,
      "inputs": [
        {
          "indexed": false,
          "internalType": "bytes32",
          "name": "_proposal",
          "type": "bytes32"
        }
      ],
      "name": "Initiated",
      "type": "event"
    },
    {
      "anonymous": false,
      "inputs": [
        {
          "indexed": false,
          "internalType": "address",
          "name": "_member",
          "type": "address"
        },
        {
          "indexed": false,
          "internalType": "bool",
          "name": "_approval",
          "type": "bool"
        }
      ],
      "name": "ModifiedTeam",
      "type": "event"
    },
    {
      "anonymous": false,
      "inputs": [
        {
          "indexed": true,
          "internalType": "address",
          "name": "previousOwner",
          "type": "address"
        },
        {
          "indexed": true,
          "internalType": "address",
          "name": "newOwner",
          "type": "address"
        }
      ],
      "name": "OwnershipTransferred",
      "type": "event"
    },
    {
      "anonymous": false,
      "inputs": [
        {
          "indexed": true,
          "internalType": "address",
          "name": "_token",
          "type": "address"
        },
        {
          "indexed": false,
          "internalType": "address",
          "name": "_distributor",
          "type": "address"
        }
      ],
      "name": "UpdatedDistributor",
      "type": "event"
    },
    {
      "anonymous": false,
      "inputs": [
        {
          "indexed": false,
          "internalType": "uint256",
          "name": "_feeAmount",
          "type": "uint256"
        }
      ],
      "name": "UpdatedFee",
      "type": "event"
    },
    {
      "anonymous": false,
      "inputs": [
        {
          "indexed": false,
          "internalType": "bool",
          "name": "_requireWhitelist",
          "type": "bool"
        }
      ],
      "name": "WhitelistRequirement",
      "type": "event"
    },
    {
      "anonymous": false,
      "inputs": [
        {
          "indexed": false,
          "internalType": "address",
          "name": "_token",
          "type": "address"
        }
      ],
      "name": "Whitelisted",
      "type": "event"
    },
    {
      "inputs": [],
      "name": "DENOMINATOR",
      "outputs": [
        {
          "internalType": "uint256",
          "name": "",
          "type": "uint256"
        }
      ],
      "stateMutability": "view",
      "type": "function"
    },
    {
      "inputs": [
        {
          "internalType": "bytes32",
          "name": "_hash",
          "type": "bytes32"
        }
      ],
      "name": "approveDelegationVote",
      "outputs": [],
      "stateMutability": "nonpayable",
      "type": "function"
    },
    {
      "inputs": [
        {
          "internalType": "address",
          "name": "",
          "type": "address"
        }
      ],
      "name": "approvedTeam",
      "outputs": [
        {
          "internalType": "bool",
          "name": "",
          "type": "bool"
        }
      ],
      "stateMutability": "view",
      "type": "function"
    },
    {
      "inputs": [
        {
          "internalType": "bytes32",
          "name": "",
          "type": "bytes32"
        }
      ],
      "name": "delegationHash",
      "outputs": [
        {
          "internalType": "bool",
          "name": "",
          "type": "bool"
        }
      ],
      "stateMutability": "view",
      "type": "function"
    },
    {
      "inputs": [
        {
          "internalType": "address",
          "name": "_token",
          "type": "address"
        },
        {
          "internalType": "uint256",
          "name": "_amount",
          "type": "uint256"
        },
        {
          "internalType": "bytes32",
          "name": "_proposal",
          "type": "bytes32"
        },
        {
          "internalType": "uint256",
          "name": "_choiceIndex",
          "type": "uint256"
        }
      ],
      "name": "depositBribe",
      "outputs": [],
      "stateMutability": "nonpayable",
      "type": "function"
    },
    {
      "inputs": [],
      "name": "feeAddress",
      "outputs": [
        {
          "internalType": "address",
          "name": "",
          "type": "address"
        }
      ],
      "stateMutability": "view",
      "type": "function"
    },
    {
      "inputs": [
        {
          "internalType": "bytes32",
          "name": "_proposal",
          "type": "bytes32"
        },
        {
          "internalType": "uint256",
          "name": "_deadline",
          "type": "uint256"
        },
        {
          "internalType": "uint256",
          "name": "_maxIndex",
          "type": "uint256"
        }
      ],
      "name": "initiateProposal",
      "outputs": [],
      "stateMutability": "nonpayable",
      "type": "function"
    },
    {
      "inputs": [
        {
          "internalType": "bytes32",
          "name": "_hash",
          "type": "bytes32"
        },
        {
          "internalType": "bytes",
          "name": "_signature",
          "type": "bytes"
        }
      ],
      "name": "isWinningSignature",
      "outputs": [
        {
          "internalType": "bool",
          "name": "",
          "type": "bool"
        }
      ],
      "stateMutability": "view",
      "type": "function"
    },
    {
      "inputs": [
        {
          "internalType": "address",
          "name": "_member",
          "type": "address"
        },
        {
          "internalType": "bool",
          "name": "_approval",
          "type": "bool"
        }
      ],
      "name": "modifyTeam",
      "outputs": [],
      "stateMutability": "nonpayable",
      "type": "function"
    },
    {
      "inputs": [],
      "name": "owner",
      "outputs": [
        {
          "internalType": "address",
          "name": "",
          "type": "address"
        }
      ],
      "stateMutability": "view",
      "type": "function"
    },
    {
      "inputs": [],
      "name": "platformFee",
      "outputs": [
        {
          "internalType": "uint256",
          "name": "",
          "type": "uint256"
        }
      ],
      "stateMutability": "view",
      "type": "function"
    },
    {
      "inputs": [
        {
          "internalType": "bytes32",
          "name": "",
          "type": "bytes32"
        }
      ],
      "name": "proposalInfo",
      "outputs": [
        {
          "internalType": "uint256",
          "name": "deadline",
          "type": "uint256"
        },
        {
          "internalType": "uint256",
          "name": "maxIndex",
          "type": "uint256"
        }
      ],
      "stateMutability": "view",
      "type": "function"
    },
    {
      "inputs": [],
      "name": "renounceOwnership",
      "outputs": [],
      "stateMutability": "nonpayable",
      "type": "function"
    },
    {
      "inputs": [],
      "name": "requireWhitelist",
      "outputs": [
        {
          "internalType": "bool",
          "name": "",
          "type": "bool"
        }
      ],
      "stateMutability": "view",
      "type": "function"
    },
    {
      "inputs": [
        {
          "internalType": "bool",
          "name": "_requireWhitelist",
          "type": "bool"
        }
      ],
      "name": "setWhitelistRequired",
      "outputs": [],
      "stateMutability": "nonpayable",
      "type": "function"
    },
    {
      "inputs": [
        {
          "internalType": "address",
          "name": "",
          "type": "address"
        }
      ],
      "name": "tokenInfo",
      "outputs": [
        {
          "internalType": "bool",
          "name": "whitelist",
          "type": "bool"
        },
        {
          "internalType": "address",
          "name": "distributor",
          "type": "address"
        }
      ],
      "stateMutability": "view",
      "type": "function"
    },
    {
      "inputs": [
        {
          "internalType": "address",
          "name": "newOwner",
          "type": "address"
        }
      ],
      "name": "transferOwnership",
      "outputs": [],
      "stateMutability": "nonpayable",
      "type": "function"
    },
    {
      "inputs": [
        {
          "internalType": "address",
          "name": "_token",
          "type": "address"
        }
      ],
      "name": "transferToDistributor",
      "outputs": [],
      "stateMutability": "nonpayable",
      "type": "function"
    },
    {
      "inputs": [
        {
          "internalType": "address",
          "name": "_token",
          "type": "address"
        },
        {
          "internalType": "address",
          "name": "_distributor",
          "type": "address"
        }
      ],
      "name": "updateDistributor",
      "outputs": [],
      "stateMutability": "nonpayable",
      "type": "function"
    },
    {
      "inputs": [
        {
          "internalType": "address",
          "name": "_feeAddress",
          "type": "address"
        }
      ],
      "name": "updateFeeAddress",
      "outputs": [],
      "stateMutability": "nonpayable",
      "type": "function"
    },
    {
      "inputs": [
        {
          "internalType": "uint256",
          "name": "_feeAmount",
          "type": "uint256"
        }
      ],
      "name": "updateFeeAmount",
      "outputs": [],
      "stateMutability": "nonpayable",
      "type": "function"
    },
    {
      "inputs": [
        {
          "internalType": "address",
          "name": "_token",
          "type": "address"
        }
      ],
      "name": "whitelistToken",
      "outputs": [],
      "stateMutability": "nonpayable",
      "type": "function"
    },
    {
      "inputs": [
        {
          "internalType": "address[]",
          "name": "_tokens",
          "type": "address[]"
        }
      ],
      "name": "whitelistTokens",
      "outputs": [],
      "stateMutability": "nonpayable",
      "type": "function"
    }
  ],
  "bytecode": "0x608060405273e39b8617d571cee5e75e1ec6b2bb40ddc8cf6fa3600560006101000a81548173ffffffffffffffffffffffffffffffffffffffff021916908373ffffffffffffffffffffffffffffffffffffffff1602179055506101906006556000600760006101000a81548160ff0219169083151502179055503480156200008757600080fd5b5060405162002dbe38038062002dbe8339818101604052810190620000ad919062000393565b620000cd620000c16200022260201b60201c565b6200022a60201b60201c565b82600560006101000a81548173ffffffffffffffffffffffffffffffffffffffff021916908373ffffffffffffffffffffffffffffffffffffffff1602179055506001600460003373ffffffffffffffffffffffffffffffffffffffff1673ffffffffffffffffffffffffffffffffffffffff16815260200190815260200160002060006101000a81548160ff0219169083151502179055506001600460008473ffffffffffffffffffffffffffffffffffffffff1673ffffffffffffffffffffffffffffffffffffffff16815260200190815260200160002060006101000a81548160ff021916908315150217905550600081118015620001d0575061271081105b62000212576040517f08c379a0000000000000000000000000000000000000000000000000000000008152600401620002099062000450565b60405180910390fd5b8060068190555050505062000472565b600033905090565b60008060009054906101000a900473ffffffffffffffffffffffffffffffffffffffff169050816000806101000a81548173ffffffffffffffffffffffffffffffffffffffff021916908373ffffffffffffffffffffffffffffffffffffffff1602179055508173ffffffffffffffffffffffffffffffffffffffff168173ffffffffffffffffffffffffffffffffffffffff167f8be0079c531659141344cd1fd0a4f28419497f9722a3daafe3b4186f6b6457e060405160405180910390a35050565b600080fd5b600073ffffffffffffffffffffffffffffffffffffffff82169050919050565b60006200032082620002f3565b9050919050565b620003328162000313565b81146200033e57600080fd5b50565b600081519050620003528162000327565b92915050565b6000819050919050565b6200036d8162000358565b81146200037957600080fd5b50565b6000815190506200038d8162000362565b92915050565b600080600060608486031215620003af57620003ae620002ee565b5b6000620003bf8682870162000341565b9350506020620003d28682870162000341565b9250506040620003e5868287016200037c565b9150509250925092565b600082825260208201905092915050565b7f696e76616c696420706c6174666f726d20666565000000000000000000000000600082015250565b600062000438601483620003ef565b9150620004458262000400565b602082019050919050565b600060208201905081810360008301526200046b8162000429565b9050919050565b61293c80620004826000396000f3fe608060405234801561001057600080fd5b506004361061014d5760003560e01c80638f3b80b2116100c3578063b4c3ed941161007c578063b4c3ed9414610377578063b5c12f4d14610393578063bbcaac38146103af578063f2fde38b146103cb578063f5dab711146103e7578063f7b5d4a0146104185761014d565b80638f3b80b2146102b9578063918f8674146102e957806392800f8614610307578063986ec135146103235780639ea55bb01461033f578063ac0679a61461035b5761014d565b806353da67f61161011557806353da67f6146101f65780635d3a8999146102275780636247f6f214610257578063715018a614610273578063856734c41461027d5780638da5cb5b1461029b5761014d565b806314ee0a5e146101525780631fac13791461018257806326232a2e1461019e57806341275358146101bc5780634cb1e9e3146101da575b600080fd5b61016c600480360381019061016791906118f2565b610434565b604051610179919061193a565b60405180910390f35b61019c600480360381019061019791906119b3565b610454565b005b6101a661052f565b6040516101b39190611a0c565b60405180910390f35b6101c4610535565b6040516101d19190611a36565b60405180910390f35b6101f460048036038101906101ef9190611baa565b61055b565b005b610210600480360381019061020b91906118f2565b6106d7565b60405161021e929190611bf3565b60405180910390f35b610241600480360381019061023c9190611cd1565b6106fb565b60405161024e919061193a565b60405180910390f35b610271600480360381019061026c9190611d2d565b610726565b005b61027b61084e565b005b610285610862565b604051610292919061193a565b60405180910390f35b6102a3610875565b6040516102b09190611a36565b60405180910390f35b6102d360048036038101906102ce9190611d2d565b61089e565b6040516102e0919061193a565b60405180910390f35b6102f16108be565b6040516102fe9190611a0c565b60405180910390f35b610321600480360381019061031c91906118f2565b6108c4565b005b61033d60048036038101906103389190611d86565b610986565b005b61035960048036038101906103549190611dd9565b610b26565b005b61037560048036038101906103709190611e32565b610bb3565b005b610391600480360381019061038c9190611d2d565b610c4f565b005b6103ad60048036038101906103a89190611e72565b610ec2565b005b6103c960048036038101906103c49190611d2d565b610f1e565b005b6103e560048036038101906103e09190611d2d565b610f6a565b005b61040160048036038101906103fc9190611d2d565b610fed565b60405161040f929190611e9f565b60405180910390f35b610432600480360381019061042d9190611ec8565b61103e565b005b60036020528060005260406000206000915054906101000a900460ff1681565b61045c6113bb565b80600260008473ffffffffffffffffffffffffffffffffffffffff1673ffffffffffffffffffffffffffffffffffffffff16815260200190815260200160002060000160016101000a81548173ffffffffffffffffffffffffffffffffffffffff021916908373ffffffffffffffffffffffffffffffffffffffff1602179055508173ffffffffffffffffffffffffffffffffffffffff167ffbeb7d6e3dcb0b2bee779c64bea292263c335a0ad3f39c459aec2a70b0745653826040516105239190611a36565b60405180910390a25050565b60065481565b600560009054906101000a900473ffffffffffffffffffffffffffffffffffffffff1681565b60011515600460003373ffffffffffffffffffffffffffffffffffffffff1673ffffffffffffffffffffffffffffffffffffffff16815260200190815260200160002060009054906101000a900460ff161515146105ee576040517f08c379a00000000000000000000000000000000000000000000000000000000081526004016105e590611f8c565b60405180910390fd5b60005b81518110156106d35760016002600084848151811061061357610612611fac565b5b602002602001015173ffffffffffffffffffffffffffffffffffffffff1673ffffffffffffffffffffffffffffffffffffffff16815260200190815260200160002060000160006101000a81548160ff0219169083151502179055507faab7954e9d246b167ef88aeddad35209ca2489d95a8aeb59e288d9b19fae5a548282815181106106a3576106a2611fac565b5b60200260200101516040516106b89190611a36565b60405180910390a180806106cb9061200a565b9150506105f1565b5050565b60016020528060005260406000206000915090508060000154908060010154905082565b60006003600084815260200190815260200160002060009054906101000a900460ff16905092915050565b60011515600460003373ffffffffffffffffffffffffffffffffffffffff1673ffffffffffffffffffffffffffffffffffffffff16815260200190815260200160002060009054906101000a900460ff161515146107b9576040517f08c379a00000000000000000000000000000000000000000000000000000000081526004016107b090611f8c565b60405180910390fd5b6001600260008373ffffffffffffffffffffffffffffffffffffffff1673ffffffffffffffffffffffffffffffffffffffff16815260200190815260200160002060000160006101000a81548160ff0219169083151502179055507faab7954e9d246b167ef88aeddad35209ca2489d95a8aeb59e288d9b19fae5a54816040516108439190611a36565b60405180910390a150565b6108566113bb565b6108606000611439565b565b600760009054906101000a900460ff1681565b60008060009054906101000a900473ffffffffffffffffffffffffffffffffffffffff16905090565b60046020528060005260406000206000915054906101000a900460ff1681565b61271081565b60011515600460003373ffffffffffffffffffffffffffffffffffffffff1673ffffffffffffffffffffffffffffffffffffffff16815260200190815260200160002060009054906101000a900460ff16151514610957576040517f08c379a000000000000000000000000000000000000000000000000000000000815260040161094e90611f8c565b60405180910390fd5b60016003600083815260200190815260200160002060006101000a81548160ff02191690831515021790555050565b60011515600460003373ffffffffffffffffffffffffffffffffffffffff1673ffffffffffffffffffffffffffffffffffffffff16815260200190815260200160002060009054906101000a900460ff16151514610a19576040517f08c379a0000000000000000000000000000000000000000000000000000000008152600401610a1090611f8c565b60405180910390fd5b6000600160008581526020019081526020016000206000015414610a72576040517f08c379a0000000000000000000000000000000000000000000000000000000008152600401610a699061209e565b60405180910390fd5b428211610ab4576040517f08c379a0000000000000000000000000000000000000000000000000000000008152600401610aab9061210a565b60405180910390fd5b8160016000858152602001908152602001600020600001819055508060016000858152602001908152602001600020600101819055507f08007a3b331cd9bd3d1d3667a3724ba04d1b2799b75845215f1944debbdf844f83604051610b199190612139565b60405180910390a1505050565b610b2e6113bb565b6101908110610b72576040517f08c379a0000000000000000000000000000000000000000000000000000000008152600401610b69906121a0565b60405180910390fd5b806006819055507f545f541f608330014315921189568bf5b2266925f757d74e5ad89ae1d2d6438c81604051610ba89190611a0c565b60405180910390a150565b610bbb6113bb565b80600460008473ffffffffffffffffffffffffffffffffffffffff1673ffffffffffffffffffffffffffffffffffffffff16815260200190815260200160002060006101000a81548160ff0219169083151502179055507fae0b47afe292832708082f706affd0f37c4a556bd6dbeafe9b6a8562251c5a408282604051610c439291906121c0565b60405180910390a15050565b60011515600460003373ffffffffffffffffffffffffffffffffffffffff1673ffffffffffffffffffffffffffffffffffffffff16815260200190815260200160002060009054906101000a900460ff16151514610ce2576040517f08c379a0000000000000000000000000000000000000000000000000000000008152600401610cd990611f8c565b60405180910390fd5b600073ffffffffffffffffffffffffffffffffffffffff16600260008373ffffffffffffffffffffffffffffffffffffffff1673ffffffffffffffffffffffffffffffffffffffff16815260200190815260200160002060000160019054906101000a900473ffffffffffffffffffffffffffffffffffffffff1673ffffffffffffffffffffffffffffffffffffffff1603610db3576040517f08c379a0000000000000000000000000000000000000000000000000000000008152600401610daa90612235565b60405180910390fd5b60008173ffffffffffffffffffffffffffffffffffffffff166370a08231306040518263ffffffff1660e01b8152600401610dee9190611a36565b602060405180830381865afa158015610e0b573d6000803e3d6000fd5b505050506040513d601f19601f82011682018060405250810190610e2f919061226a565b9050610ebe600260008473ffffffffffffffffffffffffffffffffffffffff1673ffffffffffffffffffffffffffffffffffffffff16815260200190815260200160002060000160019054906101000a900473ffffffffffffffffffffffffffffffffffffffff16828473ffffffffffffffffffffffffffffffffffffffff166114fd9092919063ffffffff16565b5050565b610eca6113bb565b80600760006101000a81548160ff0219169083151502179055507f1fc0ad5b128ce828ca9ef82c0a5b404f173ff52a5e9a3607c182f38a6bbdb1b781604051610f13919061193a565b60405180910390a150565b610f266113bb565b80600560006101000a81548173ffffffffffffffffffffffffffffffffffffffff021916908373ffffffffffffffffffffffffffffffffffffffff16021790555050565b610f726113bb565b600073ffffffffffffffffffffffffffffffffffffffff168173ffffffffffffffffffffffffffffffffffffffff1603610fe1576040517f08c379a0000000000000000000000000000000000000000000000000000000008152600401610fd890612309565b60405180910390fd5b610fea81611439565b50565b60026020528060005260406000206000915090508060000160009054906101000a900460ff16908060000160019054906101000a900473ffffffffffffffffffffffffffffffffffffffff16905082565b60011515600760009054906101000a900460ff161515036110f05760011515600260008673ffffffffffffffffffffffffffffffffffffffff1673ffffffffffffffffffffffffffffffffffffffff16815260200190815260200160002060000160009054906101000a900460ff161515146110ef576040517f08c379a00000000000000000000000000000000000000000000000000000000081526004016110e690612375565b60405180910390fd5b5b42600160008481526020019081526020016000206000015411611148576040517f08c379a000000000000000000000000000000000000000000000000000000000815260040161113f906123e1565b60405180910390fd5b80600160008481526020019081526020016000206001015410156111a1576040517f08c379a00000000000000000000000000000000000000000000000000000000081526004016111989061244d565b60405180910390fd5b6000612710600654856111b4919061246d565b6111be91906124de565b9050600081856111ce919061250f565b905061121f33600560009054906101000a900473ffffffffffffffffffffffffffffffffffffffff16848973ffffffffffffffffffffffffffffffffffffffff16611583909392919063ffffffff16565b600073ffffffffffffffffffffffffffffffffffffffff16600260008873ffffffffffffffffffffffffffffffffffffffff1673ffffffffffffffffffffffffffffffffffffffff16815260200190815260200160002060000160019054906101000a900473ffffffffffffffffffffffffffffffffffffffff1673ffffffffffffffffffffffffffffffffffffffff16036112e7576112e23330838973ffffffffffffffffffffffffffffffffffffffff16611583909392919063ffffffff16565b611377565b61137633600260008973ffffffffffffffffffffffffffffffffffffffff1673ffffffffffffffffffffffffffffffffffffffff16815260200190815260200160002060000160019054906101000a900473ffffffffffffffffffffffffffffffffffffffff16838973ffffffffffffffffffffffffffffffffffffffff16611583909392919063ffffffff16565b5b837f74bd0b58587a15767427910140bcf99db1ef7f905cb0a2983a72cd20339542278783866040516113ab93929190612543565b60405180910390a2505050505050565b6113c361160c565b73ffffffffffffffffffffffffffffffffffffffff166113e1610875565b73ffffffffffffffffffffffffffffffffffffffff1614611437576040517f08c379a000000000000000000000000000000000000000000000000000000000815260040161142e906125c6565b60405180910390fd5b565b60008060009054906101000a900473ffffffffffffffffffffffffffffffffffffffff169050816000806101000a81548173ffffffffffffffffffffffffffffffffffffffff021916908373ffffffffffffffffffffffffffffffffffffffff1602179055508173ffffffffffffffffffffffffffffffffffffffff168173ffffffffffffffffffffffffffffffffffffffff167f8be0079c531659141344cd1fd0a4f28419497f9722a3daafe3b4186f6b6457e060405160405180910390a35050565b61157e8363a9059cbb60e01b848460405160240161151c9291906125e6565b604051602081830303815290604052907bffffffffffffffffffffffffffffffffffffffffffffffffffffffff19166020820180517bffffffffffffffffffffffffffffffffffffffffffffffffffffffff8381831617835250505050611614565b505050565b611606846323b872dd60e01b8585856040516024016115a49392919061260f565b604051602081830303815290604052907bffffffffffffffffffffffffffffffffffffffffffffffffffffffff19166020820180517bffffffffffffffffffffffffffffffffffffffffffffffffffffffff8381831617835250505050611614565b50505050565b600033905090565b6000611676826040518060400160405280602081526020017f5361666545524332303a206c6f772d6c6576656c2063616c6c206661696c65648152508573ffffffffffffffffffffffffffffffffffffffff166116db9092919063ffffffff16565b90506000815111156116d65780806020019051810190611696919061265b565b6116d5576040517f08c379a00000000000000000000000000000000000000000000000000000000081526004016116cc906126fa565b60405180910390fd5b5b505050565b60606116ea84846000856116f3565b90509392505050565b606082471015611738576040517f08c379a000000000000000000000000000000000000000000000000000000000815260040161172f9061278c565b60405180910390fd5b6000808673ffffffffffffffffffffffffffffffffffffffff168587604051611761919061281d565b60006040518083038185875af1925050503d806000811461179e576040519150601f19603f3d011682016040523d82523d6000602084013e6117a3565b606091505b50915091506117b4878383876117c0565b92505050949350505050565b6060831561182257600083510361181a576117da85611835565b611819576040517f08c379a000000000000000000000000000000000000000000000000000000000815260040161181090612880565b60405180910390fd5b5b82905061182d565b61182c8383611858565b5b949350505050565b6000808273ffffffffffffffffffffffffffffffffffffffff163b119050919050565b60008251111561186b5781518083602001fd5b806040517f08c379a000000000000000000000000000000000000000000000000000000000815260040161189f91906128e4565b60405180910390fd5b6000604051905090565b600080fd5b600080fd5b6000819050919050565b6118cf816118bc565b81146118da57600080fd5b50565b6000813590506118ec816118c6565b92915050565b600060208284031215611908576119076118b2565b5b6000611916848285016118dd565b91505092915050565b60008115159050919050565b6119348161191f565b82525050565b600060208201905061194f600083018461192b565b92915050565b600073ffffffffffffffffffffffffffffffffffffffff82169050919050565b600061198082611955565b9050919050565b61199081611975565b811461199b57600080fd5b50565b6000813590506119ad81611987565b92915050565b600080604083850312156119ca576119c96118b2565b5b60006119d88582860161199e565b92505060206119e98582860161199e565b9150509250929050565b6000819050919050565b611a06816119f3565b82525050565b6000602082019050611a2160008301846119fd565b92915050565b611a3081611975565b82525050565b6000602082019050611a4b6000830184611a27565b92915050565b600080fd5b6000601f19601f8301169050919050565b7f4e487b7100000000000000000000000000000000000000000000000000000000600052604160045260246000fd5b611a9f82611a56565b810181811067ffffffffffffffff82111715611abe57611abd611a67565b5b80604052505050565b6000611ad16118a8565b9050611add8282611a96565b919050565b600067ffffffffffffffff821115611afd57611afc611a67565b5b602082029050602081019050919050565b600080fd5b6000611b26611b2184611ae2565b611ac7565b90508083825260208201905060208402830185811115611b4957611b48611b0e565b5b835b81811015611b725780611b5e888261199e565b845260208401935050602081019050611b4b565b5050509392505050565b600082601f830112611b9157611b90611a51565b5b8135611ba1848260208601611b13565b91505092915050565b600060208284031215611bc057611bbf6118b2565b5b600082013567ffffffffffffffff811115611bde57611bdd6118b7565b5b611bea84828501611b7c565b91505092915050565b6000604082019050611c0860008301856119fd565b611c1560208301846119fd565b9392505050565b600080fd5b600067ffffffffffffffff821115611c3c57611c3b611a67565b5b611c4582611a56565b9050602081019050919050565b82818337600083830152505050565b6000611c74611c6f84611c21565b611ac7565b905082815260208101848484011115611c9057611c8f611c1c565b5b611c9b848285611c52565b509392505050565b600082601f830112611cb857611cb7611a51565b5b8135611cc8848260208601611c61565b91505092915050565b60008060408385031215611ce857611ce76118b2565b5b6000611cf6858286016118dd565b925050602083013567ffffffffffffffff811115611d1757611d166118b7565b5b611d2385828601611ca3565b9150509250929050565b600060208284031215611d4357611d426118b2565b5b6000611d518482850161199e565b91505092915050565b611d63816119f3565b8114611d6e57600080fd5b50565b600081359050611d8081611d5a565b92915050565b600080600060608486031215611d9f57611d9e6118b2565b5b6000611dad868287016118dd565b9350506020611dbe86828701611d71565b9250506040611dcf86828701611d71565b9150509250925092565b600060208284031215611def57611dee6118b2565b5b6000611dfd84828501611d71565b91505092915050565b611e0f8161191f565b8114611e1a57600080fd5b50565b600081359050611e2c81611e06565b92915050565b60008060408385031215611e4957611e486118b2565b5b6000611e578582860161199e565b9250506020611e6885828601611e1d565b9150509250929050565b600060208284031215611e8857611e876118b2565b5b6000611e9684828501611e1d565b91505092915050565b6000604082019050611eb4600083018561192b565b611ec16020830184611a27565b9392505050565b60008060008060808587031215611ee257611ee16118b2565b5b6000611ef08782880161199e565b9450506020611f0187828801611d71565b9350506040611f12878288016118dd565b9250506060611f2387828801611d71565b91505092959194509250565b600082825260208201905092915050565b7f5465616d206f6e6c790000000000000000000000000000000000000000000000600082015250565b6000611f76600983611f2f565b9150611f8182611f40565b602082019050919050565b60006020820190508181036000830152611fa581611f69565b9050919050565b7f4e487b7100000000000000000000000000000000000000000000000000000000600052603260045260246000fd5b7f4e487b7100000000000000000000000000000000000000000000000000000000600052601160045260246000fd5b6000612015826119f3565b91507fffffffffffffffffffffffffffffffffffffffffffffffffffffffffffffffff820361204757612046611fdb565b5b600182019050919050565b7f6578697374730000000000000000000000000000000000000000000000000000600082015250565b6000612088600683611f2f565b915061209382612052565b602082019050919050565b600060208201905081810360008301526120b78161207b565b9050919050565b7f696e76616c696420646561646c696e6500000000000000000000000000000000600082015250565b60006120f4601083611f2f565b91506120ff826120be565b602082019050919050565b60006020820190508181036000830152612123816120e7565b9050919050565b612133816118bc565b82525050565b600060208201905061214e600083018461212a565b92915050565b7f6d61782066656500000000000000000000000000000000000000000000000000600082015250565b600061218a600783611f2f565b915061219582612154565b602082019050919050565b600060208201905081810360008301526121b98161217d565b9050919050565b60006040820190506121d56000830185611a27565b6121e2602083018461192b565b9392505050565b7f6e6f206469737472696275746f72000000000000000000000000000000000000600082015250565b600061221f600e83611f2f565b915061222a826121e9565b602082019050919050565b6000602082019050818103600083015261224e81612212565b9050919050565b60008151905061226481611d5a565b92915050565b6000602082840312156122805761227f6118b2565b5b600061228e84828501612255565b91505092915050565b7f4f776e61626c653a206e6577206f776e657220697320746865207a65726f206160008201527f6464726573730000000000000000000000000000000000000000000000000000602082015250565b60006122f3602683611f2f565b91506122fe82612297565b604082019050919050565b60006020820190508181036000830152612322816122e6565b9050919050565b7f2177686974656c69737400000000000000000000000000000000000000000000600082015250565b600061235f600a83611f2f565b915061236a82612329565b602082019050919050565b6000602082019050818103600083015261238e81612352565b9050919050565b7f696e76616c69642070726f706f73616c00000000000000000000000000000000600082015250565b60006123cb601083611f2f565b91506123d682612395565b602082019050919050565b600060208201905081810360008301526123fa816123be565b9050919050565b7f696e76616c69642063686f696365000000000000000000000000000000000000600082015250565b6000612437600e83611f2f565b915061244282612401565b602082019050919050565b600060208201905081810360008301526124668161242a565b9050919050565b6000612478826119f3565b9150612483836119f3565b9250828202612491816119f3565b915082820484148315176124a8576124a7611fdb565b5b5092915050565b7f4e487b7100000000000000000000000000000000000000000000000000000000600052601260045260246000fd5b60006124e9826119f3565b91506124f4836119f3565b925082612504576125036124af565b5b828204905092915050565b600061251a826119f3565b9150612525836119f3565b925082820390508181111561253d5761253c611fdb565b5b92915050565b60006060820190506125586000830186611a27565b61256560208301856119fd565b61257260408301846119fd565b949350505050565b7f4f776e61626c653a2063616c6c6572206973206e6f7420746865206f776e6572600082015250565b60006125b0602083611f2f565b91506125bb8261257a565b602082019050919050565b600060208201905081810360008301526125df816125a3565b9050919050565b60006040820190506125fb6000830185611a27565b61260860208301846119fd565b9392505050565b60006060820190506126246000830186611a27565b6126316020830185611a27565b61263e60408301846119fd565b949350505050565b60008151905061265581611e06565b92915050565b600060208284031215612671576126706118b2565b5b600061267f84828501612646565b91505092915050565b7f5361666545524332303a204552433230206f7065726174696f6e20646964206e60008201527f6f74207375636365656400000000000000000000000000000000000000000000602082015250565b60006126e4602a83611f2f565b91506126ef82612688565b604082019050919050565b60006020820190508181036000830152612713816126d7565b9050919050565b7f416464726573733a20696e73756666696369656e742062616c616e636520666f60008201527f722063616c6c0000000000000000000000000000000000000000000000000000602082015250565b6000612776602683611f2f565b91506127818261271a565b604082019050919050565b600060208201905081810360008301526127a581612769565b9050919050565b600081519050919050565b600081905092915050565b60005b838110156127e05780820151818401526020810190506127c5565b60008484015250505050565b60006127f7826127ac565b61280181856127b7565b93506128118185602086016127c2565b80840191505092915050565b600061282982846127ec565b915081905092915050565b7f416464726573733a2063616c6c20746f206e6f6e2d636f6e7472616374000000600082015250565b600061286a601d83611f2f565b915061287582612834565b602082019050919050565b600060208201905081810360008301526128998161285d565b9050919050565b600081519050919050565b60006128b6826128a0565b6128c08185611f2f565b93506128d08185602086016127c2565b6128d981611a56565b840191505092915050565b600060208201905081810360008301526128fe81846128ab565b90509291505056fea26469706673582212206e889beb683caf1f62e2bbebc4d8f527b78f6fb82c8e74da567981460f856e3864736f6c63430008110033",
  "linkReferences": {},
  "deployedLinkReferences": {}
}