{
  "_format": "hh-sol-artifact-1",
  "contractName": "VotiumVeCRV",
  "sourceName": "contracts/VotiumVeCRV.sol",
  "abi": [
    {
      "inputs": [
        {
          "internalType": "address",
          "name": "feeAddress_",
          "type": "address"
        },
        {
          "internalType": "address",
          "name": "teamMember",
          "type": "address"
        },
        {
          "internalType": "address",
          "name": "distributor_",
          "type": "address"
        },
        {
          "internalType": "address",
          "name": "gc_",
          "type": "address"
        },
        {
          "internalType": "uint256",
          "name": "platformFee_",
          "type": "uint256"
        }
      ],
      "stateMutability": "nonpayable",
      "type": "constructor"
    },
    {
      "anonymous": false,
      "inputs": [
        {
          "indexed": false,
          "internalType": "address",
          "name": "_token",
          "type": "address"
        }
      ],
      "name": "Listed",
      "type": "event"
    },
    {
      "anonymous": false,
      "inputs": [
        {
          "indexed": false,
          "internalType": "address",
          "name": "_member",
          "type": "address"
        },
        {
          "indexed": false,
          "internalType": "bool",
          "name": "_approval",
          "type": "bool"
        }
      ],
      "name": "ModifiedTeam",
      "type": "event"
    },
    {
      "anonymous": false,
      "inputs": [
        {
          "indexed": true,
          "internalType": "address",
          "name": "_token",
          "type": "address"
        },
        {
          "indexed": false,
          "internalType": "uint256",
          "name": "_amount",
          "type": "uint256"
        },
        {
          "indexed": true,
          "internalType": "uint256",
          "name": "_week",
          "type": "uint256"
        },
        {
          "indexed": true,
          "internalType": "address",
          "name": "_gauge",
          "type": "address"
        }
      ],
      "name": "NewReward",
      "type": "event"
    },
    {
      "anonymous": false,
      "inputs": [
        {
          "indexed": true,
          "internalType": "address",
          "name": "previousOwner",
          "type": "address"
        },
        {
          "indexed": true,
          "internalType": "address",
          "name": "newOwner",
          "type": "address"
        }
      ],
      "name": "OwnershipTransferred",
      "type": "event"
    },
    {
      "anonymous": false,
      "inputs": [
        {
          "indexed": false,
          "internalType": "address",
          "name": "_token",
          "type": "address"
        }
      ],
      "name": "Unlisted",
      "type": "event"
    },
    {
      "anonymous": false,
      "inputs": [
        {
          "indexed": false,
          "internalType": "address",
          "name": "_distributor",
          "type": "address"
        }
      ],
      "name": "UpdatedDistributor",
      "type": "event"
    },
    {
      "anonymous": false,
      "inputs": [
        {
          "indexed": false,
          "internalType": "uint256",
          "name": "_feeAmount",
          "type": "uint256"
        }
      ],
      "name": "UpdatedFee",
      "type": "event"
    },
    {
      "inputs": [],
      "name": "DENOMINATOR",
      "outputs": [
        {
          "internalType": "uint256",
          "name": "",
          "type": "uint256"
        }
      ],
      "stateMutability": "view",
      "type": "function"
    },
    {
      "inputs": [
        {
          "internalType": "address",
          "name": "",
          "type": "address"
        }
      ],
      "name": "approvedTeam",
      "outputs": [
        {
          "internalType": "bool",
          "name": "",
          "type": "bool"
        }
      ],
      "stateMutability": "view",
      "type": "function"
    },
    {
      "inputs": [
        {
          "internalType": "address",
          "name": "",
          "type": "address"
        },
        {
          "internalType": "uint256",
          "name": "",
          "type": "uint256"
        }
      ],
      "name": "bribeInfoMap",
      "outputs": [
        {
          "internalType": "address",
          "name": "token",
          "type": "address"
        },
        {
          "internalType": "uint256",
          "name": "amount",
          "type": "uint256"
        },
        {
          "internalType": "uint256",
          "name": "round",
          "type": "uint256"
        },
        {
          "internalType": "address",
          "name": "gauge",
          "type": "address"
        },
        {
          "internalType": "uint256",
          "name": "time",
          "type": "uint256"
        }
      ],
      "stateMutability": "view",
      "type": "function"
    },
    {
      "inputs": [
        {
          "internalType": "address",
          "name": "_token",
          "type": "address"
        },
        {
          "internalType": "uint256",
          "name": "_amount",
          "type": "uint256"
        },
        {
          "internalType": "uint256",
          "name": "_week",
          "type": "uint256"
        },
        {
          "internalType": "address",
          "name": "_gauge",
          "type": "address"
        }
      ],
      "name": "depositReward",
      "outputs": [],
      "stateMutability": "nonpayable",
      "type": "function"
    },
    {
      "inputs": [],
      "name": "distributor",
      "outputs": [
        {
          "internalType": "address",
          "name": "",
          "type": "address"
        }
      ],
      "stateMutability": "view",
      "type": "function"
    },
    {
      "inputs": [],
      "name": "feeAddress",
      "outputs": [
        {
          "internalType": "address",
          "name": "",
          "type": "address"
        }
      ],
      "stateMutability": "view",
      "type": "function"
    },
    {
      "inputs": [],
      "name": "gc",
      "outputs": [
        {
          "internalType": "contract GController",
          "name": "",
          "type": "address"
        }
      ],
      "stateMutability": "view",
      "type": "function"
    },
    {
      "inputs": [
        {
          "internalType": "address",
          "name": "user",
          "type": "address"
        }
      ],
      "name": "getBribeInfo",
      "outputs": [
        {
          "components": [
            {
              "internalType": "address",
              "name": "token",
              "type": "address"
            },
            {
              "internalType": "uint256",
              "name": "amount",
              "type": "uint256"
            },
            {
              "internalType": "uint256",
              "name": "round",
              "type": "uint256"
            },
            {
              "internalType": "address",
              "name": "gauge",
              "type": "address"
            },
            {
              "internalType": "uint256",
              "name": "time",
              "type": "uint256"
            }
          ],
          "internalType": "struct VotiumVeCRV.BribeInfo[]",
          "name": "",
          "type": "tuple[]"
        }
      ],
      "stateMutability": "view",
      "type": "function"
    },
    {
      "inputs": [
        {
          "internalType": "address",
          "name": "_token",
          "type": "address"
        }
      ],
      "name": "listToken",
      "outputs": [],
      "stateMutability": "nonpayable",
      "type": "function"
    },
    {
      "inputs": [
        {
          "internalType": "address[]",
          "name": "_tokens",
          "type": "address[]"
        }
      ],
      "name": "listTokens",
      "outputs": [],
      "stateMutability": "nonpayable",
      "type": "function"
    },
    {
      "inputs": [
        {
          "internalType": "address",
          "name": "_member",
          "type": "address"
        },
        {
          "internalType": "bool",
          "name": "_approval",
          "type": "bool"
        }
      ],
      "name": "modifyTeam",
      "outputs": [],
      "stateMutability": "nonpayable",
      "type": "function"
    },
    {
      "inputs": [],
      "name": "owner",
      "outputs": [
        {
          "internalType": "address",
          "name": "",
          "type": "address"
        }
      ],
      "stateMutability": "view",
      "type": "function"
    },
    {
      "inputs": [],
      "name": "platformFee",
      "outputs": [
        {
          "internalType": "uint256",
          "name": "",
          "type": "uint256"
        }
      ],
      "stateMutability": "view",
      "type": "function"
    },
    {
      "inputs": [],
      "name": "renounceOwnership",
      "outputs": [],
      "stateMutability": "nonpayable",
      "type": "function"
    },
    {
      "inputs": [
        {
          "internalType": "address",
          "name": "",
          "type": "address"
        }
      ],
      "name": "tokenListed",
      "outputs": [
        {
          "internalType": "bool",
          "name": "",
          "type": "bool"
        }
      ],
      "stateMutability": "view",
      "type": "function"
    },
    {
      "inputs": [
        {
          "internalType": "address",
          "name": "newOwner",
          "type": "address"
        }
      ],
      "name": "transferOwnership",
      "outputs": [],
      "stateMutability": "nonpayable",
      "type": "function"
    },
    {
      "inputs": [
        {
          "internalType": "address",
          "name": "_token",
          "type": "address"
        }
      ],
      "name": "unlistToken",
      "outputs": [],
      "stateMutability": "nonpayable",
      "type": "function"
    },
    {
      "inputs": [
        {
          "internalType": "address",
          "name": "_distributor",
          "type": "address"
        }
      ],
      "name": "updateDistributor",
      "outputs": [],
      "stateMutability": "nonpayable",
      "type": "function"
    },
    {
      "inputs": [
        {
          "internalType": "address",
          "name": "_feeAddress",
          "type": "address"
        }
      ],
      "name": "updateFeeAddress",
      "outputs": [],
      "stateMutability": "nonpayable",
      "type": "function"
    },
    {
      "inputs": [
        {
          "internalType": "uint256",
          "name": "_feeAmount",
          "type": "uint256"
        }
      ],
      "name": "updateFeeAmount",
      "outputs": [],
      "stateMutability": "nonpayable",
      "type": "function"
    },
    {
      "inputs": [
        {
          "internalType": "address",
          "name": "_gc",
          "type": "address"
        }
      ],
      "name": "updateGaugeController",
      "outputs": [],
      "stateMutability": "nonpayable",
      "type": "function"
    },
    {
      "inputs": [],
      "name": "week",
      "outputs": [
        {
          "internalType": "uint256",
          "name": "",
          "type": "uint256"
        }
      ],
      "stateMutability": "view",
      "type": "function"
    }
  ],
  "bytecode": "0x608060405260c86004553480156200001657600080fd5b50604051620029a2380380620029a283398181016040528101906200003c9190620003a6565b6200005c620000506200023560201b60201c565b6200023d60201b60201c565b84600360006101000a81548173ffffffffffffffffffffffffffffffffffffffff021916908373ffffffffffffffffffffffffffffffffffffffff1602179055506001600260003373ffffffffffffffffffffffffffffffffffffffff1673ffffffffffffffffffffffffffffffffffffffff16815260200190815260200160002060006101000a81548160ff0219169083151502179055506001600260008673ffffffffffffffffffffffffffffffffffffffff1673ffffffffffffffffffffffffffffffffffffffff16815260200190815260200160002060006101000a81548160ff02191690831515021790555082600560006101000a81548173ffffffffffffffffffffffffffffffffffffffff021916908373ffffffffffffffffffffffffffffffffffffffff16021790555081600660006101000a81548173ffffffffffffffffffffffffffffffffffffffff021916908373ffffffffffffffffffffffffffffffffffffffff160217905550600081118015620001e1575061271081105b62000223576040517f08c379a00000000000000000000000000000000000000000000000000000000081526004016200021a906200048f565b60405180910390fd5b806004819055505050505050620004b1565b600033905090565b60008060009054906101000a900473ffffffffffffffffffffffffffffffffffffffff169050816000806101000a81548173ffffffffffffffffffffffffffffffffffffffff021916908373ffffffffffffffffffffffffffffffffffffffff1602179055508173ffffffffffffffffffffffffffffffffffffffff168173ffffffffffffffffffffffffffffffffffffffff167f8be0079c531659141344cd1fd0a4f28419497f9722a3daafe3b4186f6b6457e060405160405180910390a35050565b600080fd5b600073ffffffffffffffffffffffffffffffffffffffff82169050919050565b6000620003338262000306565b9050919050565b620003458162000326565b81146200035157600080fd5b50565b60008151905062000365816200033a565b92915050565b6000819050919050565b62000380816200036b565b81146200038c57600080fd5b50565b600081519050620003a08162000375565b92915050565b600080600080600060a08688031215620003c557620003c462000301565b5b6000620003d58882890162000354565b9550506020620003e88882890162000354565b9450506040620003fb8882890162000354565b93505060606200040e8882890162000354565b925050608062000421888289016200038f565b9150509295509295909350565b600082825260208201905092915050565b7f696e76616c696420706c6174666f726d20666565000000000000000000000000600082015250565b6000620004776014836200042e565b915062000484826200043f565b602082019050919050565b60006020820190508181036000830152620004aa8162000468565b9050919050565b6124e180620004c16000396000f3fe608060405234801561001057600080fd5b50600436106101425760003560e01c80639ea55bb0116100b8578063bbcaac381161007c578063bbcaac3814610341578063bc30a6181461035d578063bfe1092814610379578063c325c0d214610397578063f2fde38b146103b3578063f90388f4146103cf57610142565b80639ea55bb0146102a15780639fb99fc3146102bd578063a7ab30e1146102d9578063abcb993414610309578063ac0679a61461032557610142565b8063412753581161010a57806341275358146101ef5780634995b4581461020d578063715018a61461022b5780638da5cb5b146102355780638f3b80b214610253578063918f86741461028357610142565b80630d2f4f31146101475780631b71d85f146101635780631fc1e25f1461018157806326232a2e1461019d5780633c399297146101bb575b600080fd5b610161600480360381019061015c9190611687565b6103ff565b005b61016b610865565b604051610178919061174d565b60405180910390f35b61019b60048036038101906101969190611768565b61088b565b005b6101a56109af565b6040516101b291906117a4565b60405180910390f35b6101d560048036038101906101d091906117bf565b6109b5565b6040516101e695949392919061180e565b60405180910390f35b6101f7610a48565b6040516102049190611861565b60405180910390f35b610215610a6e565b60405161022291906117a4565b60405180910390f35b610233610a84565b005b61023d610a98565b60405161024a9190611861565b60405180910390f35b61026d60048036038101906102689190611768565b610ac1565b60405161027a9190611897565b60405180910390f35b61028b610ae1565b60405161029891906117a4565b60405180910390f35b6102bb60048036038101906102b691906118b2565b610ae7565b005b6102d760048036038101906102d29190611a38565b610b80565b005b6102f360048036038101906102ee9190611768565b610cf6565b6040516103009190611897565b60405180910390f35b610323600480360381019061031e9190611768565b610d16565b005b61033f600480360381019061033a9190611aad565b610db0565b005b61035b60048036038101906103569190611768565b610e4c565b005b61037760048036038101906103729190611768565b610e98565b005b610381610f1b565b60405161038e9190611861565b60405180910390f35b6103b160048036038101906103ac9190611768565b610f41565b005b6103cd60048036038101906103c89190611768565b610f8d565b005b6103e960048036038101906103e49190611768565b611010565b6040516103f69190611c22565b60405180910390f35b60011515600160008673ffffffffffffffffffffffffffffffffffffffff1673ffffffffffffffffffffffffffffffffffffffff16815260200190815260200160002060009054906101000a900460ff16151514610492576040517f08c379a000000000000000000000000000000000000000000000000000000000815260040161048990611ca1565b60405180910390fd5b61049a610a6e565b82116104db576040517f08c379a00000000000000000000000000000000000000000000000000000000081526004016104d290611d0d565b60405180910390fd5b60076104e5610a6e565b6104ef9190611d5c565b8210610530576040517f08c379a000000000000000000000000000000000000000000000000000000000815260040161052790611ddc565b60405180910390fd5b600073ffffffffffffffffffffffffffffffffffffffff16600560009054906101000a900473ffffffffffffffffffffffffffffffffffffffff1673ffffffffffffffffffffffffffffffffffffffff16036105c1576040517f08c379a00000000000000000000000000000000000000000000000000000000081526004016105b890611e48565b60405180910390fd5b6000612710600454856105d49190611e68565b6105de9190611ed9565b9050600081856105ee9190611f0a565b905061063f33600360009054906101000a900473ffffffffffffffffffffffffffffffffffffffff16848973ffffffffffffffffffffffffffffffffffffffff16611178909392919063ffffffff16565b61068e33600560009054906101000a900473ffffffffffffffffffffffffffffffffffffffff16838973ffffffffffffffffffffffffffffffffffffffff16611178909392919063ffffffff16565b8273ffffffffffffffffffffffffffffffffffffffff16848773ffffffffffffffffffffffffffffffffffffffff167f51c8cd367a987b8c2f652c101ea7076ec8e4dfd33c4c77bb80e018e7143b6512846040516106ec91906117a4565b60405180910390a4600760003373ffffffffffffffffffffffffffffffffffffffff1673ffffffffffffffffffffffffffffffffffffffff1681526020019081526020016000206040518060a001604052808873ffffffffffffffffffffffffffffffffffffffff1681526020018781526020018681526020018573ffffffffffffffffffffffffffffffffffffffff16815260200142815250908060018154018082558091505060019003906000526020600020906005020160009091909190915060008201518160000160006101000a81548173ffffffffffffffffffffffffffffffffffffffff021916908373ffffffffffffffffffffffffffffffffffffffff160217905550602082015181600101556040820151816002015560608201518160030160006101000a81548173ffffffffffffffffffffffffffffffffffffffff021916908373ffffffffffffffffffffffffffffffffffffffff160217905550608082015181600401555050505050505050565b600660009054906101000a900473ffffffffffffffffffffffffffffffffffffffff1681565b60011515600260003373ffffffffffffffffffffffffffffffffffffffff1673ffffffffffffffffffffffffffffffffffffffff16815260200190815260200160002060009054906101000a900460ff1615151461091e576040517f08c379a000000000000000000000000000000000000000000000000000000000815260040161091590611f8a565b60405180910390fd5b60018060008373ffffffffffffffffffffffffffffffffffffffff1673ffffffffffffffffffffffffffffffffffffffff16815260200190815260200160002060006101000a81548160ff0219169083151502179055507ffb3fdb4942f7aa0b8ecdf8508875e7f6c8142bb7870f0455b87a9f093608bc82816040516109a49190611861565b60405180910390a150565b60045481565b600760205281600052604060002081815481106109d157600080fd5b9060005260206000209060050201600091509150508060000160009054906101000a900473ffffffffffffffffffffffffffffffffffffffff16908060010154908060020154908060030160009054906101000a900473ffffffffffffffffffffffffffffffffffffffff16908060040154905085565b600360009054906101000a900473ffffffffffffffffffffffffffffffffffffffff1681565b600062093a8042610a7f9190611ed9565b905090565b610a8c611201565b610a96600061127f565b565b60008060009054906101000a900473ffffffffffffffffffffffffffffffffffffffff16905090565b60026020528060005260406000206000915054906101000a900460ff1681565b61271081565b610aef611201565b600081118015610b00575061271081105b610b3f576040517f08c379a0000000000000000000000000000000000000000000000000000000008152600401610b3690611ff6565b60405180910390fd5b806004819055507f545f541f608330014315921189568bf5b2266925f757d74e5ad89ae1d2d6438c81604051610b7591906117a4565b60405180910390a150565b60011515600260003373ffffffffffffffffffffffffffffffffffffffff1673ffffffffffffffffffffffffffffffffffffffff16815260200190815260200160002060009054906101000a900460ff16151514610c13576040517f08c379a0000000000000000000000000000000000000000000000000000000008152600401610c0a90611f8a565b60405180910390fd5b60005b8151811015610cf2576001806000848481518110610c3757610c36612016565b5b602002602001015173ffffffffffffffffffffffffffffffffffffffff1673ffffffffffffffffffffffffffffffffffffffff16815260200190815260200160002060006101000a81548160ff0219169083151502179055507ffb3fdb4942f7aa0b8ecdf8508875e7f6c8142bb7870f0455b87a9f093608bc82828281518110610cc457610cc3612016565b5b6020026020010151604051610cd99190611861565b60405180910390a180610ceb90612045565b9050610c16565b5050565b60016020528060005260406000206000915054906101000a900460ff1681565b610d1e611201565b6000600160008373ffffffffffffffffffffffffffffffffffffffff1673ffffffffffffffffffffffffffffffffffffffff16815260200190815260200160002060006101000a81548160ff0219169083151502179055507fc48322c2e165c864176005884983dd81c87a9fc8258ca6a1967d17b26cd8d0e381604051610da59190611861565b60405180910390a150565b610db8611201565b80600260008473ffffffffffffffffffffffffffffffffffffffff1673ffffffffffffffffffffffffffffffffffffffff16815260200190815260200160002060006101000a81548160ff0219169083151502179055507fae0b47afe292832708082f706affd0f37c4a556bd6dbeafe9b6a8562251c5a408282604051610e4092919061208d565b60405180910390a15050565b610e54611201565b80600360006101000a81548173ffffffffffffffffffffffffffffffffffffffff021916908373ffffffffffffffffffffffffffffffffffffffff16021790555050565b610ea0611201565b80600560006101000a81548173ffffffffffffffffffffffffffffffffffffffff021916908373ffffffffffffffffffffffffffffffffffffffff1602179055507f9941240ae138e71bb3f963c4f6fd96e99fb386a8e63563343f9294902bdbf74481604051610f109190611861565b60405180910390a150565b600560009054906101000a900473ffffffffffffffffffffffffffffffffffffffff1681565b610f49611201565b80600660006101000a81548173ffffffffffffffffffffffffffffffffffffffff021916908373ffffffffffffffffffffffffffffffffffffffff16021790555050565b610f95611201565b600073ffffffffffffffffffffffffffffffffffffffff168173ffffffffffffffffffffffffffffffffffffffff1603611004576040517f08c379a0000000000000000000000000000000000000000000000000000000008152600401610ffb90612128565b60405180910390fd5b61100d8161127f565b50565b6060600760008373ffffffffffffffffffffffffffffffffffffffff1673ffffffffffffffffffffffffffffffffffffffff168152602001908152602001600020805480602002602001604051908101604052809291908181526020016000905b8282101561116d57838290600052602060002090600502016040518060a00160405290816000820160009054906101000a900473ffffffffffffffffffffffffffffffffffffffff1673ffffffffffffffffffffffffffffffffffffffff1673ffffffffffffffffffffffffffffffffffffffff16815260200160018201548152602001600282015481526020016003820160009054906101000a900473ffffffffffffffffffffffffffffffffffffffff1673ffffffffffffffffffffffffffffffffffffffff1673ffffffffffffffffffffffffffffffffffffffff16815260200160048201548152505081526020019060010190611071565b505050509050919050565b6111fb846323b872dd60e01b85858560405160240161119993929190612148565b604051602081830303815290604052907bffffffffffffffffffffffffffffffffffffffffffffffffffffffff19166020820180517bffffffffffffffffffffffffffffffffffffffffffffffffffffffff8381831617835250505050611343565b50505050565b61120961140a565b73ffffffffffffffffffffffffffffffffffffffff16611227610a98565b73ffffffffffffffffffffffffffffffffffffffff161461127d576040517f08c379a0000000000000000000000000000000000000000000000000000000008152600401611274906121cb565b60405180910390fd5b565b60008060009054906101000a900473ffffffffffffffffffffffffffffffffffffffff169050816000806101000a81548173ffffffffffffffffffffffffffffffffffffffff021916908373ffffffffffffffffffffffffffffffffffffffff1602179055508173ffffffffffffffffffffffffffffffffffffffff168173ffffffffffffffffffffffffffffffffffffffff167f8be0079c531659141344cd1fd0a4f28419497f9722a3daafe3b4186f6b6457e060405160405180910390a35050565b60006113a5826040518060400160405280602081526020017f5361666545524332303a206c6f772d6c6576656c2063616c6c206661696c65648152508573ffffffffffffffffffffffffffffffffffffffff166114129092919063ffffffff16565b905060008151111561140557808060200190518101906113c59190612200565b611404576040517f08c379a00000000000000000000000000000000000000000000000000000000081526004016113fb9061229f565b60405180910390fd5b5b505050565b600033905090565b6060611421848460008561142a565b90509392505050565b60608247101561146f576040517f08c379a000000000000000000000000000000000000000000000000000000000815260040161146690612331565b60405180910390fd5b6000808673ffffffffffffffffffffffffffffffffffffffff16858760405161149891906123c2565b60006040518083038185875af1925050503d80600081146114d5576040519150601f19603f3d011682016040523d82523d6000602084013e6114da565b606091505b50915091506114eb878383876114f7565b92505050949350505050565b60608315611559576000835103611551576115118561156c565b611550576040517f08c379a000000000000000000000000000000000000000000000000000000000815260040161154790612425565b60405180910390fd5b5b829050611564565b611563838361158f565b5b949350505050565b6000808273ffffffffffffffffffffffffffffffffffffffff163b119050919050565b6000825111156115a25781518083602001fd5b806040517f08c379a00000000000000000000000000000000000000000000000000000000081526004016115d69190612489565b60405180910390fd5b6000604051905090565b600080fd5b600080fd5b600073ffffffffffffffffffffffffffffffffffffffff82169050919050565b600061161e826115f3565b9050919050565b61162e81611613565b811461163957600080fd5b50565b60008135905061164b81611625565b92915050565b6000819050919050565b61166481611651565b811461166f57600080fd5b50565b6000813590506116818161165b565b92915050565b600080600080608085870312156116a1576116a06115e9565b5b60006116af8782880161163c565b94505060206116c087828801611672565b93505060406116d187828801611672565b92505060606116e28782880161163c565b91505092959194509250565b6000819050919050565b600061171361170e611709846115f3565b6116ee565b6115f3565b9050919050565b6000611725826116f8565b9050919050565b60006117378261171a565b9050919050565b6117478161172c565b82525050565b6000602082019050611762600083018461173e565b92915050565b60006020828403121561177e5761177d6115e9565b5b600061178c8482850161163c565b91505092915050565b61179e81611651565b82525050565b60006020820190506117b96000830184611795565b92915050565b600080604083850312156117d6576117d56115e9565b5b60006117e48582860161163c565b92505060206117f585828601611672565b9150509250929050565b61180881611613565b82525050565b600060a08201905061182360008301886117ff565b6118306020830187611795565b61183d6040830186611795565b61184a60608301856117ff565b6118576080830184611795565b9695505050505050565b600060208201905061187660008301846117ff565b92915050565b60008115159050919050565b6118918161187c565b82525050565b60006020820190506118ac6000830184611888565b92915050565b6000602082840312156118c8576118c76115e9565b5b60006118d684828501611672565b91505092915050565b600080fd5b6000601f19601f8301169050919050565b7f4e487b7100000000000000000000000000000000000000000000000000000000600052604160045260246000fd5b61192d826118e4565b810181811067ffffffffffffffff8211171561194c5761194b6118f5565b5b80604052505050565b600061195f6115df565b905061196b8282611924565b919050565b600067ffffffffffffffff82111561198b5761198a6118f5565b5b602082029050602081019050919050565b600080fd5b60006119b46119af84611970565b611955565b905080838252602082019050602084028301858111156119d7576119d661199c565b5b835b81811015611a0057806119ec888261163c565b8452602084019350506020810190506119d9565b5050509392505050565b600082601f830112611a1f57611a1e6118df565b5b8135611a2f8482602086016119a1565b91505092915050565b600060208284031215611a4e57611a4d6115e9565b5b600082013567ffffffffffffffff811115611a6c57611a6b6115ee565b5b611a7884828501611a0a565b91505092915050565b611a8a8161187c565b8114611a9557600080fd5b50565b600081359050611aa781611a81565b92915050565b60008060408385031215611ac457611ac36115e9565b5b6000611ad28582860161163c565b9250506020611ae385828601611a98565b9150509250929050565b600081519050919050565b600082825260208201905092915050565b6000819050602082019050919050565b611b2281611613565b82525050565b611b3181611651565b82525050565b60a082016000820151611b4d6000850182611b19565b506020820151611b606020850182611b28565b506040820151611b736040850182611b28565b506060820151611b866060850182611b19565b506080820151611b996080850182611b28565b50505050565b6000611bab8383611b37565b60a08301905092915050565b6000602082019050919050565b6000611bcf82611aed565b611bd98185611af8565b9350611be483611b09565b8060005b83811015611c15578151611bfc8882611b9f565b9750611c0783611bb7565b925050600181019050611be8565b5085935050505092915050565b60006020820190508181036000830152611c3c8184611bc4565b905092915050565b600082825260208201905092915050565b7f746f6b656e20756e6c6973746564000000000000000000000000000000000000600082015250565b6000611c8b600e83611c44565b9150611c9682611c55565b602082019050919050565b60006020820190508181036000830152611cba81611c7e565b9050919050565b7f7765656b20657870697265640000000000000000000000000000000000000000600082015250565b6000611cf7600c83611c44565b9150611d0282611cc1565b602082019050919050565b60006020820190508181036000830152611d2681611cea565b9050919050565b7f4e487b7100000000000000000000000000000000000000000000000000000000600052601160045260246000fd5b6000611d6782611651565b9150611d7283611651565b9250828201905080821115611d8a57611d89611d2d565b5b92915050565b7f6d6f7265207468616e2036207765656b73206168656164000000000000000000600082015250565b6000611dc6601783611c44565b9150611dd182611d90565b602082019050919050565b60006020820190508181036000830152611df581611db9565b9050919050565b7f6469737472696275746f72206e6f742073657400000000000000000000000000600082015250565b6000611e32601383611c44565b9150611e3d82611dfc565b602082019050919050565b60006020820190508181036000830152611e6181611e25565b9050919050565b6000611e7382611651565b9150611e7e83611651565b9250828202611e8c81611651565b91508282048414831517611ea357611ea2611d2d565b5b5092915050565b7f4e487b7100000000000000000000000000000000000000000000000000000000600052601260045260246000fd5b6000611ee482611651565b9150611eef83611651565b925082611eff57611efe611eaa565b5b828204905092915050565b6000611f1582611651565b9150611f2083611651565b9250828203905081811115611f3857611f37611d2d565b5b92915050565b7f5465616d206f6e6c790000000000000000000000000000000000000000000000600082015250565b6000611f74600983611c44565b9150611f7f82611f3e565b602082019050919050565b60006020820190508181036000830152611fa381611f67565b9050919050565b7f696e76616c696420706c6174666f726d20666565000000000000000000000000600082015250565b6000611fe0601483611c44565b9150611feb82611faa565b602082019050919050565b6000602082019050818103600083015261200f81611fd3565b9050919050565b7f4e487b7100000000000000000000000000000000000000000000000000000000600052603260045260246000fd5b600061205082611651565b91507fffffffffffffffffffffffffffffffffffffffffffffffffffffffffffffffff820361208257612081611d2d565b5b600182019050919050565b60006040820190506120a260008301856117ff565b6120af6020830184611888565b9392505050565b7f4f776e61626c653a206e6577206f776e657220697320746865207a65726f206160008201527f6464726573730000000000000000000000000000000000000000000000000000602082015250565b6000612112602683611c44565b915061211d826120b6565b604082019050919050565b6000602082019050818103600083015261214181612105565b9050919050565b600060608201905061215d60008301866117ff565b61216a60208301856117ff565b6121776040830184611795565b949350505050565b7f4f776e61626c653a2063616c6c6572206973206e6f7420746865206f776e6572600082015250565b60006121b5602083611c44565b91506121c08261217f565b602082019050919050565b600060208201905081810360008301526121e4816121a8565b9050919050565b6000815190506121fa81611a81565b92915050565b600060208284031215612216576122156115e9565b5b6000612224848285016121eb565b91505092915050565b7f5361666545524332303a204552433230206f7065726174696f6e20646964206e60008201527f6f74207375636365656400000000000000000000000000000000000000000000602082015250565b6000612289602a83611c44565b91506122948261222d565b604082019050919050565b600060208201905081810360008301526122b88161227c565b9050919050565b7f416464726573733a20696e73756666696369656e742062616c616e636520666f60008201527f722063616c6c0000000000000000000000000000000000000000000000000000602082015250565b600061231b602683611c44565b9150612326826122bf565b604082019050919050565b6000602082019050818103600083015261234a8161230e565b9050919050565b600081519050919050565b600081905092915050565b60005b8381101561238557808201518184015260208101905061236a565b60008484015250505050565b600061239c82612351565b6123a6818561235c565b93506123b6818560208601612367565b80840191505092915050565b60006123ce8284612391565b915081905092915050565b7f416464726573733a2063616c6c20746f206e6f6e2d636f6e7472616374000000600082015250565b600061240f601d83611c44565b915061241a826123d9565b602082019050919050565b6000602082019050818103600083015261243e81612402565b9050919050565b600081519050919050565b600061245b82612445565b6124658185611c44565b9350612475818560208601612367565b61247e816118e4565b840191505092915050565b600060208201905081810360008301526124a38184612450565b90509291505056fea26469706673582212201adf88b1d5bf389e7a5a783667ec6885deb07e24e0e75ae5903c4b0a4947356364736f6c63430008110033",
  "linkReferences": {},
  "deployedLinkReferences": {}
}