{
  "_format": "hh-sol-artifact-1",
  "contractName": "VotiumBribe",
  "sourceName": "contracts/VotiumBribe.sol",
  "abi": [
    {
      "inputs": [
        {
          "internalType": "address",
          "name": "feeAddress_",
          "type": "address"
        },
        {
          "internalType": "address",
          "name": "teamMember",
          "type": "address"
        },
        {
          "internalType": "uint256",
          "name": "platformFee_",
          "type": "uint256"
        }
      ],
      "stateMutability": "nonpayable",
      "type": "constructor"
    },
    {
      "anonymous": false,
      "inputs": [
        {
          "indexed": false,
          "internalType": "address",
          "name": "_token",
          "type": "address"
        },
        {
          "indexed": false,
          "internalType": "uint256",
          "name": "_amount",
          "type": "uint256"
        },
        {
          "indexed": true,
          "internalType": "bytes32",
          "name": "_proposal",
          "type": "bytes32"
        },
        {
          "indexed": false,
          "internalType": "uint256",
          "name": "_choiceIndex",
          "type": "uint256"
        }
      ],
      "name": "Bribed",
      "type": "event"
    },
    {
      "anonymous": false,
      "inputs": [
        {
          "indexed": false,
          "internalType": "bytes32",
          "name": "_proposal",
          "type": "bytes32"
        }
      ],
      "name": "Initiated",
      "type": "event"
    },
    {
      "anonymous": false,
      "inputs": [
        {
          "indexed": false,
          "internalType": "address",
          "name": "_member",
          "type": "address"
        },
        {
          "indexed": false,
          "internalType": "bool",
          "name": "_approval",
          "type": "bool"
        }
      ],
      "name": "ModifiedTeam",
      "type": "event"
    },
    {
      "anonymous": false,
      "inputs": [
        {
          "indexed": true,
          "internalType": "address",
          "name": "previousOwner",
          "type": "address"
        },
        {
          "indexed": true,
          "internalType": "address",
          "name": "newOwner",
          "type": "address"
        }
      ],
      "name": "OwnershipTransferred",
      "type": "event"
    },
    {
      "anonymous": false,
      "inputs": [
        {
          "indexed": true,
          "internalType": "address",
          "name": "_token",
          "type": "address"
        },
        {
          "indexed": false,
          "internalType": "address",
          "name": "_distributor",
          "type": "address"
        }
      ],
      "name": "UpdatedDistributor",
      "type": "event"
    },
    {
      "anonymous": false,
      "inputs": [
        {
          "indexed": false,
          "internalType": "uint256",
          "name": "_feeAmount",
          "type": "uint256"
        }
      ],
      "name": "UpdatedFee",
      "type": "event"
    },
    {
      "anonymous": false,
      "inputs": [
        {
          "indexed": false,
          "internalType": "bool",
          "name": "_requireWhitelist",
          "type": "bool"
        }
      ],
      "name": "WhitelistRequirement",
      "type": "event"
    },
    {
      "anonymous": false,
      "inputs": [
        {
          "indexed": false,
          "internalType": "address",
          "name": "_token",
          "type": "address"
        }
      ],
      "name": "Whitelisted",
      "type": "event"
    },
    {
      "inputs": [],
      "name": "DENOMINATOR",
      "outputs": [
        {
          "internalType": "uint256",
          "name": "",
          "type": "uint256"
        }
      ],
      "stateMutability": "view",
      "type": "function"
    },
    {
      "inputs": [
        {
          "internalType": "bytes32",
          "name": "_hash",
          "type": "bytes32"
        }
      ],
      "name": "approveDelegationVote",
      "outputs": [],
      "stateMutability": "nonpayable",
      "type": "function"
    },
    {
      "inputs": [
        {
          "internalType": "address",
          "name": "",
          "type": "address"
        }
      ],
      "name": "approvedTeam",
      "outputs": [
        {
          "internalType": "bool",
          "name": "",
          "type": "bool"
        }
      ],
      "stateMutability": "view",
      "type": "function"
    },
    {
      "inputs": [
        {
          "internalType": "address",
          "name": "",
          "type": "address"
        }
      ],
      "name": "bribeInfoMap",
      "outputs": [
        {
          "internalType": "address",
          "name": "token",
          "type": "address"
        },
        {
          "internalType": "uint256",
          "name": "amount",
          "type": "uint256"
        },
        {
          "internalType": "bytes32",
          "name": "proposal",
          "type": "bytes32"
        },
        {
          "internalType": "uint256",
          "name": "choiceIndex",
          "type": "uint256"
        },
        {
          "internalType": "uint256",
          "name": "time",
          "type": "uint256"
        }
      ],
      "stateMutability": "view",
      "type": "function"
    },
    {
      "inputs": [
        {
          "internalType": "bytes32",
          "name": "",
          "type": "bytes32"
        }
      ],
      "name": "delegationHash",
      "outputs": [
        {
          "internalType": "bool",
          "name": "",
          "type": "bool"
        }
      ],
      "stateMutability": "view",
      "type": "function"
    },
    {
      "inputs": [
        {
          "internalType": "address",
          "name": "_token",
          "type": "address"
        },
        {
          "internalType": "uint256",
          "name": "_amount",
          "type": "uint256"
        },
        {
          "internalType": "bytes32",
          "name": "_proposal",
          "type": "bytes32"
        },
        {
          "internalType": "uint256",
          "name": "_choiceIndex",
          "type": "uint256"
        }
      ],
      "name": "depositBribe",
      "outputs": [],
      "stateMutability": "nonpayable",
      "type": "function"
    },
    {
      "inputs": [],
      "name": "feeAddress",
      "outputs": [
        {
          "internalType": "address",
          "name": "",
          "type": "address"
        }
      ],
      "stateMutability": "view",
      "type": "function"
    },
    {
      "inputs": [
        {
          "internalType": "address",
          "name": "user",
          "type": "address"
        }
      ],
      "name": "getBribeInfo",
      "outputs": [
        {
          "components": [
            {
              "internalType": "address",
              "name": "token",
              "type": "address"
            },
            {
              "internalType": "uint256",
              "name": "amount",
              "type": "uint256"
            },
            {
              "internalType": "bytes32",
              "name": "proposal",
              "type": "bytes32"
            },
            {
              "internalType": "uint256",
              "name": "choiceIndex",
              "type": "uint256"
            },
            {
              "internalType": "uint256",
              "name": "time",
              "type": "uint256"
            }
          ],
          "internalType": "struct VotiumBribe.BribeInfo",
          "name": "",
          "type": "tuple"
        }
      ],
      "stateMutability": "view",
      "type": "function"
    },
    {
      "inputs": [
        {
          "internalType": "bytes32",
          "name": "_proposal",
          "type": "bytes32"
        },
        {
          "internalType": "uint256",
          "name": "_deadline",
          "type": "uint256"
        },
        {
          "internalType": "uint256",
          "name": "_maxIndex",
          "type": "uint256"
        }
      ],
      "name": "initiateProposal",
      "outputs": [],
      "stateMutability": "nonpayable",
      "type": "function"
    },
    {
      "inputs": [
        {
          "internalType": "bytes32",
          "name": "_hash",
          "type": "bytes32"
        },
        {
          "internalType": "bytes",
          "name": "_signature",
          "type": "bytes"
        }
      ],
      "name": "isWinningSignature",
      "outputs": [
        {
          "internalType": "bool",
          "name": "",
          "type": "bool"
        }
      ],
      "stateMutability": "view",
      "type": "function"
    },
    {
      "inputs": [
        {
          "internalType": "address",
          "name": "_member",
          "type": "address"
        },
        {
          "internalType": "bool",
          "name": "_approval",
          "type": "bool"
        }
      ],
      "name": "modifyTeam",
      "outputs": [],
      "stateMutability": "nonpayable",
      "type": "function"
    },
    {
      "inputs": [],
      "name": "owner",
      "outputs": [
        {
          "internalType": "address",
          "name": "",
          "type": "address"
        }
      ],
      "stateMutability": "view",
      "type": "function"
    },
    {
      "inputs": [],
      "name": "platformFee",
      "outputs": [
        {
          "internalType": "uint256",
          "name": "",
          "type": "uint256"
        }
      ],
      "stateMutability": "view",
      "type": "function"
    },
    {
      "inputs": [
        {
          "internalType": "bytes32",
          "name": "",
          "type": "bytes32"
        }
      ],
      "name": "proposalInfo",
      "outputs": [
        {
          "internalType": "uint256",
          "name": "deadline",
          "type": "uint256"
        },
        {
          "internalType": "uint256",
          "name": "maxIndex",
          "type": "uint256"
        }
      ],
      "stateMutability": "view",
      "type": "function"
    },
    {
      "inputs": [],
      "name": "renounceOwnership",
      "outputs": [],
      "stateMutability": "nonpayable",
      "type": "function"
    },
    {
      "inputs": [],
      "name": "requireWhitelist",
      "outputs": [
        {
          "internalType": "bool",
          "name": "",
          "type": "bool"
        }
      ],
      "stateMutability": "view",
      "type": "function"
    },
    {
      "inputs": [
        {
          "internalType": "bool",
          "name": "_requireWhitelist",
          "type": "bool"
        }
      ],
      "name": "setWhitelistRequired",
      "outputs": [],
      "stateMutability": "nonpayable",
      "type": "function"
    },
    {
      "inputs": [
        {
          "internalType": "address",
          "name": "",
          "type": "address"
        }
      ],
      "name": "tokenInfo",
      "outputs": [
        {
          "internalType": "bool",
          "name": "whitelist",
          "type": "bool"
        },
        {
          "internalType": "address",
          "name": "distributor",
          "type": "address"
        }
      ],
      "stateMutability": "view",
      "type": "function"
    },
    {
      "inputs": [
        {
          "internalType": "address",
          "name": "newOwner",
          "type": "address"
        }
      ],
      "name": "transferOwnership",
      "outputs": [],
      "stateMutability": "nonpayable",
      "type": "function"
    },
    {
      "inputs": [
        {
          "internalType": "address",
          "name": "_token",
          "type": "address"
        }
      ],
      "name": "transferToDistributor",
      "outputs": [],
      "stateMutability": "nonpayable",
      "type": "function"
    },
    {
      "inputs": [
        {
          "internalType": "address",
          "name": "_token",
          "type": "address"
        },
        {
          "internalType": "address",
          "name": "_distributor",
          "type": "address"
        }
      ],
      "name": "updateDistributor",
      "outputs": [],
      "stateMutability": "nonpayable",
      "type": "function"
    },
    {
      "inputs": [
        {
          "internalType": "address",
          "name": "_feeAddress",
          "type": "address"
        }
      ],
      "name": "updateFeeAddress",
      "outputs": [],
      "stateMutability": "nonpayable",
      "type": "function"
    },
    {
      "inputs": [
        {
          "internalType": "uint256",
          "name": "_feeAmount",
          "type": "uint256"
        }
      ],
      "name": "updateFeeAmount",
      "outputs": [],
      "stateMutability": "nonpayable",
      "type": "function"
    },
    {
      "inputs": [
        {
          "internalType": "address",
          "name": "_token",
          "type": "address"
        }
      ],
      "name": "whitelistToken",
      "outputs": [],
      "stateMutability": "nonpayable",
      "type": "function"
    },
    {
      "inputs": [
        {
          "internalType": "address[]",
          "name": "_tokens",
          "type": "address[]"
        }
      ],
      "name": "whitelistTokens",
      "outputs": [],
      "stateMutability": "nonpayable",
      "type": "function"
    }
  ],
  "bytecode": "0x608060405273e39b8617d571cee5e75e1ec6b2bb40ddc8cf6fa3600660006101000a81548173ffffffffffffffffffffffffffffffffffffffff021916908373ffffffffffffffffffffffffffffffffffffffff1602179055506101906007556000600860006101000a81548160ff0219169083151502179055503480156200008757600080fd5b50604051620031ae380380620031ae8339818101604052810190620000ad919062000393565b620000cd620000c16200022260201b60201c565b6200022a60201b60201c565b82600660006101000a81548173ffffffffffffffffffffffffffffffffffffffff021916908373ffffffffffffffffffffffffffffffffffffffff1602179055506001600560003373ffffffffffffffffffffffffffffffffffffffff1673ffffffffffffffffffffffffffffffffffffffff16815260200190815260200160002060006101000a81548160ff0219169083151502179055506001600560008473ffffffffffffffffffffffffffffffffffffffff1673ffffffffffffffffffffffffffffffffffffffff16815260200190815260200160002060006101000a81548160ff021916908315150217905550600081118015620001d0575061271081105b62000212576040517f08c379a0000000000000000000000000000000000000000000000000000000008152600401620002099062000450565b60405180910390fd5b8060078190555050505062000472565b600033905090565b60008060009054906101000a900473ffffffffffffffffffffffffffffffffffffffff169050816000806101000a81548173ffffffffffffffffffffffffffffffffffffffff021916908373ffffffffffffffffffffffffffffffffffffffff1602179055508173ffffffffffffffffffffffffffffffffffffffff168173ffffffffffffffffffffffffffffffffffffffff167f8be0079c531659141344cd1fd0a4f28419497f9722a3daafe3b4186f6b6457e060405160405180910390a35050565b600080fd5b600073ffffffffffffffffffffffffffffffffffffffff82169050919050565b60006200032082620002f3565b9050919050565b620003328162000313565b81146200033e57600080fd5b50565b600081519050620003528162000327565b92915050565b6000819050919050565b6200036d8162000358565b81146200037957600080fd5b50565b6000815190506200038d8162000362565b92915050565b600080600060608486031215620003af57620003ae620002ee565b5b6000620003bf8682870162000341565b9350506020620003d28682870162000341565b9250506040620003e5868287016200037c565b9150509250925092565b600082825260208201905092915050565b7f696e76616c696420706c6174666f726d20666565000000000000000000000000600082015250565b600062000438601483620003ef565b9150620004458262000400565b602082019050919050565b600060208201905081810360008301526200046b8162000429565b9050919050565b612d2c80620004826000396000f3fe608060405234801561001057600080fd5b50600436106101735760003560e01c8063918f8674116100de578063b5c12f4d11610097578063f2fde38b11610071578063f2fde38b14610425578063f5dab71114610441578063f7b5d4a014610472578063f90388f41461048e57610173565b8063b5c12f4d146103b9578063bbcaac38146103d5578063ef65b041146103f157610173565b8063918f86741461030f57806392800f861461032d578063986ec135146103495780639ea55bb014610365578063ac0679a614610381578063b4c3ed941461039d57610173565b80635d3a8999116101305780635d3a89991461024d5780636247f6f21461027d578063715018a614610299578063856734c4146102a35780638da5cb5b146102c15780638f3b80b2146102df57610173565b806314ee0a5e146101785780631fac1379146101a857806326232a2e146101c457806341275358146101e25780634cb1e9e31461020057806353da67f61461021c575b600080fd5b610192600480360381019061018d9190611bdf565b6104be565b60405161019f9190611c27565b60405180910390f35b6101c260048036038101906101bd9190611ca0565b6104de565b005b6101cc6105b9565b6040516101d99190611cf9565b60405180910390f35b6101ea6105bf565b6040516101f79190611d23565b60405180910390f35b61021a60048036038101906102159190611e97565b6105e5565b005b61023660048036038101906102319190611bdf565b610761565b604051610244929190611ee0565b60405180910390f35b61026760048036038101906102629190611fbe565b610785565b6040516102749190611c27565b60405180910390f35b6102976004803603810190610292919061201a565b6107b0565b005b6102a16108d8565b005b6102ab6108ec565b6040516102b89190611c27565b60405180910390f35b6102c96108ff565b6040516102d69190611d23565b60405180910390f35b6102f960048036038101906102f4919061201a565b610928565b6040516103069190611c27565b60405180910390f35b610317610948565b6040516103249190611cf9565b60405180910390f35b61034760048036038101906103429190611bdf565b61094e565b005b610363600480360381019061035e9190612073565b610a10565b005b61037f600480360381019061037a91906120c6565b610bb0565b005b61039b6004803603810190610396919061211f565b610c3d565b005b6103b760048036038101906103b2919061201a565b610cd9565b005b6103d360048036038101906103ce919061215f565b610f4c565b005b6103ef60048036038101906103ea919061201a565b610fa8565b005b61040b6004803603810190610406919061201a565b610ff4565b60405161041c95949392919061219b565b60405180910390f35b61043f600480360381019061043a919061201a565b61104a565b005b61045b6004803603810190610456919061201a565b6110cd565b6040516104699291906121ee565b60405180910390f35b61048c60048036038101906104879190612217565b61111e565b005b6104a860048036038101906104a3919061201a565b611589565b6040516104b59190612313565b60405180910390f35b60046020528060005260406000206000915054906101000a900460ff1681565b6104e6611660565b80600360008473ffffffffffffffffffffffffffffffffffffffff1673ffffffffffffffffffffffffffffffffffffffff16815260200190815260200160002060000160016101000a81548173ffffffffffffffffffffffffffffffffffffffff021916908373ffffffffffffffffffffffffffffffffffffffff1602179055508173ffffffffffffffffffffffffffffffffffffffff167ffbeb7d6e3dcb0b2bee779c64bea292263c335a0ad3f39c459aec2a70b0745653826040516105ad9190611d23565b60405180910390a25050565b60075481565b600660009054906101000a900473ffffffffffffffffffffffffffffffffffffffff1681565b60011515600560003373ffffffffffffffffffffffffffffffffffffffff1673ffffffffffffffffffffffffffffffffffffffff16815260200190815260200160002060009054906101000a900460ff16151514610678576040517f08c379a000000000000000000000000000000000000000000000000000000000815260040161066f9061238b565b60405180910390fd5b60005b815181101561075d5760016003600084848151811061069d5761069c6123ab565b5b602002602001015173ffffffffffffffffffffffffffffffffffffffff1673ffffffffffffffffffffffffffffffffffffffff16815260200190815260200160002060000160006101000a81548160ff0219169083151502179055507faab7954e9d246b167ef88aeddad35209ca2489d95a8aeb59e288d9b19fae5a5482828151811061072d5761072c6123ab565b5b60200260200101516040516107429190611d23565b60405180910390a1808061075590612409565b91505061067b565b5050565b60026020528060005260406000206000915090508060000154908060010154905082565b60006004600084815260200190815260200160002060009054906101000a900460ff16905092915050565b60011515600560003373ffffffffffffffffffffffffffffffffffffffff1673ffffffffffffffffffffffffffffffffffffffff16815260200190815260200160002060009054906101000a900460ff16151514610843576040517f08c379a000000000000000000000000000000000000000000000000000000000815260040161083a9061238b565b60405180910390fd5b6001600360008373ffffffffffffffffffffffffffffffffffffffff1673ffffffffffffffffffffffffffffffffffffffff16815260200190815260200160002060000160006101000a81548160ff0219169083151502179055507faab7954e9d246b167ef88aeddad35209ca2489d95a8aeb59e288d9b19fae5a54816040516108cd9190611d23565b60405180910390a150565b6108e0611660565b6108ea60006116de565b565b600860009054906101000a900460ff1681565b60008060009054906101000a900473ffffffffffffffffffffffffffffffffffffffff16905090565b60056020528060005260406000206000915054906101000a900460ff1681565b61271081565b60011515600560003373ffffffffffffffffffffffffffffffffffffffff1673ffffffffffffffffffffffffffffffffffffffff16815260200190815260200160002060009054906101000a900460ff161515146109e1576040517f08c379a00000000000000000000000000000000000000000000000000000000081526004016109d89061238b565b60405180910390fd5b60016004600083815260200190815260200160002060006101000a81548160ff02191690831515021790555050565b60011515600560003373ffffffffffffffffffffffffffffffffffffffff1673ffffffffffffffffffffffffffffffffffffffff16815260200190815260200160002060009054906101000a900460ff16151514610aa3576040517f08c379a0000000000000000000000000000000000000000000000000000000008152600401610a9a9061238b565b60405180910390fd5b6000600260008581526020019081526020016000206000015414610afc576040517f08c379a0000000000000000000000000000000000000000000000000000000008152600401610af39061249d565b60405180910390fd5b428211610b3e576040517f08c379a0000000000000000000000000000000000000000000000000000000008152600401610b3590612509565b60405180910390fd5b8160026000858152602001908152602001600020600001819055508060026000858152602001908152602001600020600101819055507f08007a3b331cd9bd3d1d3667a3724ba04d1b2799b75845215f1944debbdf844f83604051610ba39190612529565b60405180910390a1505050565b610bb8611660565b6101908110610bfc576040517f08c379a0000000000000000000000000000000000000000000000000000000008152600401610bf390612590565b60405180910390fd5b806007819055507f545f541f608330014315921189568bf5b2266925f757d74e5ad89ae1d2d6438c81604051610c329190611cf9565b60405180910390a150565b610c45611660565b80600560008473ffffffffffffffffffffffffffffffffffffffff1673ffffffffffffffffffffffffffffffffffffffff16815260200190815260200160002060006101000a81548160ff0219169083151502179055507fae0b47afe292832708082f706affd0f37c4a556bd6dbeafe9b6a8562251c5a408282604051610ccd9291906125b0565b60405180910390a15050565b60011515600560003373ffffffffffffffffffffffffffffffffffffffff1673ffffffffffffffffffffffffffffffffffffffff16815260200190815260200160002060009054906101000a900460ff16151514610d6c576040517f08c379a0000000000000000000000000000000000000000000000000000000008152600401610d639061238b565b60405180910390fd5b600073ffffffffffffffffffffffffffffffffffffffff16600360008373ffffffffffffffffffffffffffffffffffffffff1673ffffffffffffffffffffffffffffffffffffffff16815260200190815260200160002060000160019054906101000a900473ffffffffffffffffffffffffffffffffffffffff1673ffffffffffffffffffffffffffffffffffffffff1603610e3d576040517f08c379a0000000000000000000000000000000000000000000000000000000008152600401610e3490612625565b60405180910390fd5b60008173ffffffffffffffffffffffffffffffffffffffff166370a08231306040518263ffffffff1660e01b8152600401610e789190611d23565b602060405180830381865afa158015610e95573d6000803e3d6000fd5b505050506040513d601f19601f82011682018060405250810190610eb9919061265a565b9050610f48600360008473ffffffffffffffffffffffffffffffffffffffff1673ffffffffffffffffffffffffffffffffffffffff16815260200190815260200160002060000160019054906101000a900473ffffffffffffffffffffffffffffffffffffffff16828473ffffffffffffffffffffffffffffffffffffffff166117a29092919063ffffffff16565b5050565b610f54611660565b80600860006101000a81548160ff0219169083151502179055507f1fc0ad5b128ce828ca9ef82c0a5b404f173ff52a5e9a3607c182f38a6bbdb1b781604051610f9d9190611c27565b60405180910390a150565b610fb0611660565b80600660006101000a81548173ffffffffffffffffffffffffffffffffffffffff021916908373ffffffffffffffffffffffffffffffffffffffff16021790555050565b60016020528060005260406000206000915090508060000160009054906101000a900473ffffffffffffffffffffffffffffffffffffffff16908060010154908060020154908060030154908060040154905085565b611052611660565b600073ffffffffffffffffffffffffffffffffffffffff168173ffffffffffffffffffffffffffffffffffffffff16036110c1576040517f08c379a00000000000000000000000000000000000000000000000000000000081526004016110b8906126f9565b60405180910390fd5b6110ca816116de565b50565b60036020528060005260406000206000915090508060000160009054906101000a900460ff16908060000160019054906101000a900473ffffffffffffffffffffffffffffffffffffffff16905082565b60011515600860009054906101000a900460ff161515036111d05760011515600360008673ffffffffffffffffffffffffffffffffffffffff1673ffffffffffffffffffffffffffffffffffffffff16815260200190815260200160002060000160009054906101000a900460ff161515146111cf576040517f08c379a00000000000000000000000000000000000000000000000000000000081526004016111c690612765565b60405180910390fd5b5b42600260008481526020019081526020016000206000015411611228576040517f08c379a000000000000000000000000000000000000000000000000000000000815260040161121f906127d1565b60405180910390fd5b8060026000848152602001908152602001600020600101541015611281576040517f08c379a00000000000000000000000000000000000000000000000000000000081526004016112789061283d565b60405180910390fd5b600061271060075485611294919061285d565b61129e91906128ce565b9050600081856112ae91906128ff565b90506112ff33600660009054906101000a900473ffffffffffffffffffffffffffffffffffffffff16848973ffffffffffffffffffffffffffffffffffffffff16611828909392919063ffffffff16565b600073ffffffffffffffffffffffffffffffffffffffff16600360008873ffffffffffffffffffffffffffffffffffffffff1673ffffffffffffffffffffffffffffffffffffffff16815260200190815260200160002060000160019054906101000a900473ffffffffffffffffffffffffffffffffffffffff1673ffffffffffffffffffffffffffffffffffffffff16036113c7576113c23330838973ffffffffffffffffffffffffffffffffffffffff16611828909392919063ffffffff16565b611457565b61145633600360008973ffffffffffffffffffffffffffffffffffffffff1673ffffffffffffffffffffffffffffffffffffffff16815260200190815260200160002060000160019054906101000a900473ffffffffffffffffffffffffffffffffffffffff16838973ffffffffffffffffffffffffffffffffffffffff16611828909392919063ffffffff16565b5b837f74bd0b58587a15767427910140bcf99db1ef7f905cb0a2983a72cd203395422787838660405161148b93929190612933565b60405180910390a26040518060a001604052808773ffffffffffffffffffffffffffffffffffffffff16815260200186815260200185815260200184815260200142815250600160003373ffffffffffffffffffffffffffffffffffffffff1673ffffffffffffffffffffffffffffffffffffffff16815260200190815260200160002060008201518160000160006101000a81548173ffffffffffffffffffffffffffffffffffffffff021916908373ffffffffffffffffffffffffffffffffffffffff16021790555060208201518160010155604082015181600201556060820151816003015560808201518160040155905050505050505050565b611591611b4d565b600160008373ffffffffffffffffffffffffffffffffffffffff1673ffffffffffffffffffffffffffffffffffffffff1681526020019081526020016000206040518060a00160405290816000820160009054906101000a900473ffffffffffffffffffffffffffffffffffffffff1673ffffffffffffffffffffffffffffffffffffffff1673ffffffffffffffffffffffffffffffffffffffff1681526020016001820154815260200160028201548152602001600382015481526020016004820154815250509050919050565b6116686118b1565b73ffffffffffffffffffffffffffffffffffffffff166116866108ff565b73ffffffffffffffffffffffffffffffffffffffff16146116dc576040517f08c379a00000000000000000000000000000000000000000000000000000000081526004016116d3906129b6565b60405180910390fd5b565b60008060009054906101000a900473ffffffffffffffffffffffffffffffffffffffff169050816000806101000a81548173ffffffffffffffffffffffffffffffffffffffff021916908373ffffffffffffffffffffffffffffffffffffffff1602179055508173ffffffffffffffffffffffffffffffffffffffff168173ffffffffffffffffffffffffffffffffffffffff167f8be0079c531659141344cd1fd0a4f28419497f9722a3daafe3b4186f6b6457e060405160405180910390a35050565b6118238363a9059cbb60e01b84846040516024016117c19291906129d6565b604051602081830303815290604052907bffffffffffffffffffffffffffffffffffffffffffffffffffffffff19166020820180517bffffffffffffffffffffffffffffffffffffffffffffffffffffffff83818316178352505050506118b9565b505050565b6118ab846323b872dd60e01b858585604051602401611849939291906129ff565b604051602081830303815290604052907bffffffffffffffffffffffffffffffffffffffffffffffffffffffff19166020820180517bffffffffffffffffffffffffffffffffffffffffffffffffffffffff83818316178352505050506118b9565b50505050565b600033905090565b600061191b826040518060400160405280602081526020017f5361666545524332303a206c6f772d6c6576656c2063616c6c206661696c65648152508573ffffffffffffffffffffffffffffffffffffffff166119809092919063ffffffff16565b905060008151111561197b578080602001905181019061193b9190612a4b565b61197a576040517f08c379a000000000000000000000000000000000000000000000000000000000815260040161197190612aea565b60405180910390fd5b5b505050565b606061198f8484600085611998565b90509392505050565b6060824710156119dd576040517f08c379a00000000000000000000000000000000000000000000000000000000081526004016119d490612b7c565b60405180910390fd5b6000808673ffffffffffffffffffffffffffffffffffffffff168587604051611a069190612c0d565b60006040518083038185875af1925050503d8060008114611a43576040519150601f19603f3d011682016040523d82523d6000602084013e611a48565b606091505b5091509150611a5987838387611a65565b92505050949350505050565b60608315611ac7576000835103611abf57611a7f85611ada565b611abe576040517f08c379a0000000000000000000000000000000000000000000000000000000008152600401611ab590612c70565b60405180910390fd5b5b829050611ad2565b611ad18383611afd565b5b949350505050565b6000808273ffffffffffffffffffffffffffffffffffffffff163b119050919050565b600082511115611b105781518083602001fd5b806040517f08c379a0000000000000000000000000000000000000000000000000000000008152600401611b449190612cd4565b60405180910390fd5b6040518060a00160405280600073ffffffffffffffffffffffffffffffffffffffff168152602001600081526020016000801916815260200160008152602001600081525090565b6000604051905090565b600080fd5b600080fd5b6000819050919050565b611bbc81611ba9565b8114611bc757600080fd5b50565b600081359050611bd981611bb3565b92915050565b600060208284031215611bf557611bf4611b9f565b5b6000611c0384828501611bca565b91505092915050565b60008115159050919050565b611c2181611c0c565b82525050565b6000602082019050611c3c6000830184611c18565b92915050565b600073ffffffffffffffffffffffffffffffffffffffff82169050919050565b6000611c6d82611c42565b9050919050565b611c7d81611c62565b8114611c8857600080fd5b50565b600081359050611c9a81611c74565b92915050565b60008060408385031215611cb757611cb6611b9f565b5b6000611cc585828601611c8b565b9250506020611cd685828601611c8b565b9150509250929050565b6000819050919050565b611cf381611ce0565b82525050565b6000602082019050611d0e6000830184611cea565b92915050565b611d1d81611c62565b82525050565b6000602082019050611d386000830184611d14565b92915050565b600080fd5b6000601f19601f8301169050919050565b7f4e487b7100000000000000000000000000000000000000000000000000000000600052604160045260246000fd5b611d8c82611d43565b810181811067ffffffffffffffff82111715611dab57611daa611d54565b5b80604052505050565b6000611dbe611b95565b9050611dca8282611d83565b919050565b600067ffffffffffffffff821115611dea57611de9611d54565b5b602082029050602081019050919050565b600080fd5b6000611e13611e0e84611dcf565b611db4565b90508083825260208201905060208402830185811115611e3657611e35611dfb565b5b835b81811015611e5f5780611e4b8882611c8b565b845260208401935050602081019050611e38565b5050509392505050565b600082601f830112611e7e57611e7d611d3e565b5b8135611e8e848260208601611e00565b91505092915050565b600060208284031215611ead57611eac611b9f565b5b600082013567ffffffffffffffff811115611ecb57611eca611ba4565b5b611ed784828501611e69565b91505092915050565b6000604082019050611ef56000830185611cea565b611f026020830184611cea565b9392505050565b600080fd5b600067ffffffffffffffff821115611f2957611f28611d54565b5b611f3282611d43565b9050602081019050919050565b82818337600083830152505050565b6000611f61611f5c84611f0e565b611db4565b905082815260208101848484011115611f7d57611f7c611f09565b5b611f88848285611f3f565b509392505050565b600082601f830112611fa557611fa4611d3e565b5b8135611fb5848260208601611f4e565b91505092915050565b60008060408385031215611fd557611fd4611b9f565b5b6000611fe385828601611bca565b925050602083013567ffffffffffffffff81111561200457612003611ba4565b5b61201085828601611f90565b9150509250929050565b6000602082840312156120305761202f611b9f565b5b600061203e84828501611c8b565b91505092915050565b61205081611ce0565b811461205b57600080fd5b50565b60008135905061206d81612047565b92915050565b60008060006060848603121561208c5761208b611b9f565b5b600061209a86828701611bca565b93505060206120ab8682870161205e565b92505060406120bc8682870161205e565b9150509250925092565b6000602082840312156120dc576120db611b9f565b5b60006120ea8482850161205e565b91505092915050565b6120fc81611c0c565b811461210757600080fd5b50565b600081359050612119816120f3565b92915050565b6000806040838503121561213657612135611b9f565b5b600061214485828601611c8b565b92505060206121558582860161210a565b9150509250929050565b60006020828403121561217557612174611b9f565b5b60006121838482850161210a565b91505092915050565b61219581611ba9565b82525050565b600060a0820190506121b06000830188611d14565b6121bd6020830187611cea565b6121ca604083018661218c565b6121d76060830185611cea565b6121e46080830184611cea565b9695505050505050565b60006040820190506122036000830185611c18565b6122106020830184611d14565b9392505050565b6000806000806080858703121561223157612230611b9f565b5b600061223f87828801611c8b565b94505060206122508782880161205e565b935050604061226187828801611bca565b92505060606122728782880161205e565b91505092959194509250565b61228781611c62565b82525050565b61229681611ce0565b82525050565b6122a581611ba9565b82525050565b60a0820160008201516122c1600085018261227e565b5060208201516122d4602085018261228d565b5060408201516122e7604085018261229c565b5060608201516122fa606085018261228d565b50608082015161230d608085018261228d565b50505050565b600060a08201905061232860008301846122ab565b92915050565b600082825260208201905092915050565b7f5465616d206f6e6c790000000000000000000000000000000000000000000000600082015250565b600061237560098361232e565b91506123808261233f565b602082019050919050565b600060208201905081810360008301526123a481612368565b9050919050565b7f4e487b7100000000000000000000000000000000000000000000000000000000600052603260045260246000fd5b7f4e487b7100000000000000000000000000000000000000000000000000000000600052601160045260246000fd5b600061241482611ce0565b91507fffffffffffffffffffffffffffffffffffffffffffffffffffffffffffffffff8203612446576124456123da565b5b600182019050919050565b7f6578697374730000000000000000000000000000000000000000000000000000600082015250565b600061248760068361232e565b915061249282612451565b602082019050919050565b600060208201905081810360008301526124b68161247a565b9050919050565b7f696e76616c696420646561646c696e6500000000000000000000000000000000600082015250565b60006124f360108361232e565b91506124fe826124bd565b602082019050919050565b60006020820190508181036000830152612522816124e6565b9050919050565b600060208201905061253e600083018461218c565b92915050565b7f6d61782066656500000000000000000000000000000000000000000000000000600082015250565b600061257a60078361232e565b915061258582612544565b602082019050919050565b600060208201905081810360008301526125a98161256d565b9050919050565b60006040820190506125c56000830185611d14565b6125d26020830184611c18565b9392505050565b7f6e6f206469737472696275746f72000000000000000000000000000000000000600082015250565b600061260f600e8361232e565b915061261a826125d9565b602082019050919050565b6000602082019050818103600083015261263e81612602565b9050919050565b60008151905061265481612047565b92915050565b6000602082840312156126705761266f611b9f565b5b600061267e84828501612645565b91505092915050565b7f4f776e61626c653a206e6577206f776e657220697320746865207a65726f206160008201527f6464726573730000000000000000000000000000000000000000000000000000602082015250565b60006126e360268361232e565b91506126ee82612687565b604082019050919050565b60006020820190508181036000830152612712816126d6565b9050919050565b7f2177686974656c69737400000000000000000000000000000000000000000000600082015250565b600061274f600a8361232e565b915061275a82612719565b602082019050919050565b6000602082019050818103600083015261277e81612742565b9050919050565b7f696e76616c69642070726f706f73616c00000000000000000000000000000000600082015250565b60006127bb60108361232e565b91506127c682612785565b602082019050919050565b600060208201905081810360008301526127ea816127ae565b9050919050565b7f696e76616c69642063686f696365000000000000000000000000000000000000600082015250565b6000612827600e8361232e565b9150612832826127f1565b602082019050919050565b600060208201905081810360008301526128568161281a565b9050919050565b600061286882611ce0565b915061287383611ce0565b925082820261288181611ce0565b91508282048414831517612898576128976123da565b5b5092915050565b7f4e487b7100000000000000000000000000000000000000000000000000000000600052601260045260246000fd5b60006128d982611ce0565b91506128e483611ce0565b9250826128f4576128f361289f565b5b828204905092915050565b600061290a82611ce0565b915061291583611ce0565b925082820390508181111561292d5761292c6123da565b5b92915050565b60006060820190506129486000830186611d14565b6129556020830185611cea565b6129626040830184611cea565b949350505050565b7f4f776e61626c653a2063616c6c6572206973206e6f7420746865206f776e6572600082015250565b60006129a060208361232e565b91506129ab8261296a565b602082019050919050565b600060208201905081810360008301526129cf81612993565b9050919050565b60006040820190506129eb6000830185611d14565b6129f86020830184611cea565b9392505050565b6000606082019050612a146000830186611d14565b612a216020830185611d14565b612a2e6040830184611cea565b949350505050565b600081519050612a45816120f3565b92915050565b600060208284031215612a6157612a60611b9f565b5b6000612a6f84828501612a36565b91505092915050565b7f5361666545524332303a204552433230206f7065726174696f6e20646964206e60008201527f6f74207375636365656400000000000000000000000000000000000000000000602082015250565b6000612ad4602a8361232e565b9150612adf82612a78565b604082019050919050565b60006020820190508181036000830152612b0381612ac7565b9050919050565b7f416464726573733a20696e73756666696369656e742062616c616e636520666f60008201527f722063616c6c0000000000000000000000000000000000000000000000000000602082015250565b6000612b6660268361232e565b9150612b7182612b0a565b604082019050919050565b60006020820190508181036000830152612b9581612b59565b9050919050565b600081519050919050565b600081905092915050565b60005b83811015612bd0578082015181840152602081019050612bb5565b60008484015250505050565b6000612be782612b9c565b612bf18185612ba7565b9350612c01818560208601612bb2565b80840191505092915050565b6000612c198284612bdc565b915081905092915050565b7f416464726573733a2063616c6c20746f206e6f6e2d636f6e7472616374000000600082015250565b6000612c5a601d8361232e565b9150612c6582612c24565b602082019050919050565b60006020820190508181036000830152612c8981612c4d565b9050919050565b600081519050919050565b6000612ca682612c90565b612cb0818561232e565b9350612cc0818560208601612bb2565b612cc981611d43565b840191505092915050565b60006020820190508181036000830152612cee8184612c9b565b90509291505056fea2646970667358221220de25ce875c869951a8be6fdba75ca54d08f60607fdc44289cba38b87b678b42764736f6c63430008110033",
  "linkReferences": {},
  "deployedLinkReferences": {}
}