{
  "_format": "hh-sol-artifact-1",
  "contractName": "VotiumVeCRV",
  "sourceName": "contracts/VotiumVeCRV.sol",
  "abi": [
    {
      "inputs": [
        {
          "internalType": "address",
          "name": "feeAddress_",
          "type": "address"
        },
        {
          "internalType": "address",
          "name": "teamMember",
          "type": "address"
        },
        {
          "internalType": "address",
          "name": "distributor_",
          "type": "address"
        },
        {
          "internalType": "address",
          "name": "gc_",
          "type": "address"
        },
        {
          "internalType": "uint256",
          "name": "platformFee_",
          "type": "uint256"
        }
      ],
      "stateMutability": "nonpayable",
      "type": "constructor"
    },
    {
      "anonymous": false,
      "inputs": [
        {
          "indexed": false,
          "internalType": "address",
          "name": "_token",
          "type": "address"
        }
      ],
      "name": "Listed",
      "type": "event"
    },
    {
      "anonymous": false,
      "inputs": [
        {
          "indexed": false,
          "internalType": "address",
          "name": "_member",
          "type": "address"
        },
        {
          "indexed": false,
          "internalType": "bool",
          "name": "_approval",
          "type": "bool"
        }
      ],
      "name": "ModifiedTeam",
      "type": "event"
    },
    {
      "anonymous": false,
      "inputs": [
        {
          "indexed": true,
          "internalType": "address",
          "name": "_token",
          "type": "address"
        },
        {
          "indexed": false,
          "internalType": "uint256",
          "name": "_amount",
          "type": "uint256"
        },
        {
          "indexed": true,
          "internalType": "uint256",
          "name": "_week",
          "type": "uint256"
        },
        {
          "indexed": true,
          "internalType": "address",
          "name": "_gauge",
          "type": "address"
        }
      ],
      "name": "NewReward",
      "type": "event"
    },
    {
      "anonymous": false,
      "inputs": [
        {
          "indexed": true,
          "internalType": "address",
          "name": "previousOwner",
          "type": "address"
        },
        {
          "indexed": true,
          "internalType": "address",
          "name": "newOwner",
          "type": "address"
        }
      ],
      "name": "OwnershipTransferred",
      "type": "event"
    },
    {
      "anonymous": false,
      "inputs": [
        {
          "indexed": false,
          "internalType": "address",
          "name": "_token",
          "type": "address"
        }
      ],
      "name": "Unlisted",
      "type": "event"
    },
    {
      "anonymous": false,
      "inputs": [
        {
          "indexed": false,
          "internalType": "address",
          "name": "_distributor",
          "type": "address"
        }
      ],
      "name": "UpdatedDistributor",
      "type": "event"
    },
    {
      "anonymous": false,
      "inputs": [
        {
          "indexed": false,
          "internalType": "uint256",
          "name": "_feeAmount",
          "type": "uint256"
        }
      ],
      "name": "UpdatedFee",
      "type": "event"
    },
    {
      "inputs": [],
      "name": "DENOMINATOR",
      "outputs": [
        {
          "internalType": "uint256",
          "name": "",
          "type": "uint256"
        }
      ],
      "stateMutability": "view",
      "type": "function"
    },
    {
      "inputs": [
        {
          "internalType": "address",
          "name": "",
          "type": "address"
        }
      ],
      "name": "approvedTeam",
      "outputs": [
        {
          "internalType": "bool",
          "name": "",
          "type": "bool"
        }
      ],
      "stateMutability": "view",
      "type": "function"
    },
    {
      "inputs": [
        {
          "internalType": "address",
          "name": "",
          "type": "address"
        }
      ],
      "name": "bribeInfoMap",
      "outputs": [
        {
          "internalType": "address",
          "name": "token",
          "type": "address"
        },
        {
          "internalType": "uint256",
          "name": "amount",
          "type": "uint256"
        },
        {
          "internalType": "uint256",
          "name": "round",
          "type": "uint256"
        },
        {
          "internalType": "address",
          "name": "gauge",
          "type": "address"
        },
        {
          "internalType": "uint256",
          "name": "time",
          "type": "uint256"
        }
      ],
      "stateMutability": "view",
      "type": "function"
    },
    {
      "inputs": [
        {
          "internalType": "address",
          "name": "_token",
          "type": "address"
        },
        {
          "internalType": "uint256",
          "name": "_amount",
          "type": "uint256"
        },
        {
          "internalType": "uint256",
          "name": "_week",
          "type": "uint256"
        },
        {
          "internalType": "address",
          "name": "_gauge",
          "type": "address"
        }
      ],
      "name": "depositReward",
      "outputs": [],
      "stateMutability": "nonpayable",
      "type": "function"
    },
    {
      "inputs": [],
      "name": "distributor",
      "outputs": [
        {
          "internalType": "address",
          "name": "",
          "type": "address"
        }
      ],
      "stateMutability": "view",
      "type": "function"
    },
    {
      "inputs": [],
      "name": "feeAddress",
      "outputs": [
        {
          "internalType": "address",
          "name": "",
          "type": "address"
        }
      ],
      "stateMutability": "view",
      "type": "function"
    },
    {
      "inputs": [],
      "name": "gc",
      "outputs": [
        {
          "internalType": "contract GController",
          "name": "",
          "type": "address"
        }
      ],
      "stateMutability": "view",
      "type": "function"
    },
    {
      "inputs": [
        {
          "internalType": "address",
          "name": "user",
          "type": "address"
        }
      ],
      "name": "getBribeInfo",
      "outputs": [
        {
          "components": [
            {
              "internalType": "address",
              "name": "token",
              "type": "address"
            },
            {
              "internalType": "uint256",
              "name": "amount",
              "type": "uint256"
            },
            {
              "internalType": "uint256",
              "name": "round",
              "type": "uint256"
            },
            {
              "internalType": "address",
              "name": "gauge",
              "type": "address"
            },
            {
              "internalType": "uint256",
              "name": "time",
              "type": "uint256"
            }
          ],
          "internalType": "struct VotiumVeCRV.BribeInfo",
          "name": "",
          "type": "tuple"
        }
      ],
      "stateMutability": "view",
      "type": "function"
    },
    {
      "inputs": [
        {
          "internalType": "address",
          "name": "_token",
          "type": "address"
        }
      ],
      "name": "listToken",
      "outputs": [],
      "stateMutability": "nonpayable",
      "type": "function"
    },
    {
      "inputs": [
        {
          "internalType": "address[]",
          "name": "_tokens",
          "type": "address[]"
        }
      ],
      "name": "listTokens",
      "outputs": [],
      "stateMutability": "nonpayable",
      "type": "function"
    },
    {
      "inputs": [
        {
          "internalType": "address",
          "name": "_member",
          "type": "address"
        },
        {
          "internalType": "bool",
          "name": "_approval",
          "type": "bool"
        }
      ],
      "name": "modifyTeam",
      "outputs": [],
      "stateMutability": "nonpayable",
      "type": "function"
    },
    {
      "inputs": [],
      "name": "owner",
      "outputs": [
        {
          "internalType": "address",
          "name": "",
          "type": "address"
        }
      ],
      "stateMutability": "view",
      "type": "function"
    },
    {
      "inputs": [],
      "name": "platformFee",
      "outputs": [
        {
          "internalType": "uint256",
          "name": "",
          "type": "uint256"
        }
      ],
      "stateMutability": "view",
      "type": "function"
    },
    {
      "inputs": [],
      "name": "renounceOwnership",
      "outputs": [],
      "stateMutability": "nonpayable",
      "type": "function"
    },
    {
      "inputs": [
        {
          "internalType": "address",
          "name": "",
          "type": "address"
        }
      ],
      "name": "tokenListed",
      "outputs": [
        {
          "internalType": "bool",
          "name": "",
          "type": "bool"
        }
      ],
      "stateMutability": "view",
      "type": "function"
    },
    {
      "inputs": [
        {
          "internalType": "address",
          "name": "newOwner",
          "type": "address"
        }
      ],
      "name": "transferOwnership",
      "outputs": [],
      "stateMutability": "nonpayable",
      "type": "function"
    },
    {
      "inputs": [
        {
          "internalType": "address",
          "name": "_token",
          "type": "address"
        }
      ],
      "name": "unlistToken",
      "outputs": [],
      "stateMutability": "nonpayable",
      "type": "function"
    },
    {
      "inputs": [
        {
          "internalType": "address",
          "name": "_distributor",
          "type": "address"
        }
      ],
      "name": "updateDistributor",
      "outputs": [],
      "stateMutability": "nonpayable",
      "type": "function"
    },
    {
      "inputs": [
        {
          "internalType": "address",
          "name": "_feeAddress",
          "type": "address"
        }
      ],
      "name": "updateFeeAddress",
      "outputs": [],
      "stateMutability": "nonpayable",
      "type": "function"
    },
    {
      "inputs": [
        {
          "internalType": "uint256",
          "name": "_feeAmount",
          "type": "uint256"
        }
      ],
      "name": "updateFeeAmount",
      "outputs": [],
      "stateMutability": "nonpayable",
      "type": "function"
    },
    {
      "inputs": [
        {
          "internalType": "address",
          "name": "_gc",
          "type": "address"
        }
      ],
      "name": "updateGaugeController",
      "outputs": [],
      "stateMutability": "nonpayable",
      "type": "function"
    },
    {
      "inputs": [],
      "name": "week",
      "outputs": [
        {
          "internalType": "uint256",
          "name": "",
          "type": "uint256"
        }
      ],
      "stateMutability": "view",
      "type": "function"
    }
  ],
  "bytecode": "0x608060405260c86004553480156200001657600080fd5b506040516200287d3803806200287d83398181016040528101906200003c9190620003a6565b6200005c620000506200023560201b60201c565b6200023d60201b60201c565b84600360006101000a81548173ffffffffffffffffffffffffffffffffffffffff021916908373ffffffffffffffffffffffffffffffffffffffff1602179055506001600260003373ffffffffffffffffffffffffffffffffffffffff1673ffffffffffffffffffffffffffffffffffffffff16815260200190815260200160002060006101000a81548160ff0219169083151502179055506001600260008673ffffffffffffffffffffffffffffffffffffffff1673ffffffffffffffffffffffffffffffffffffffff16815260200190815260200160002060006101000a81548160ff02191690831515021790555082600560006101000a81548173ffffffffffffffffffffffffffffffffffffffff021916908373ffffffffffffffffffffffffffffffffffffffff16021790555081600660006101000a81548173ffffffffffffffffffffffffffffffffffffffff021916908373ffffffffffffffffffffffffffffffffffffffff160217905550600081118015620001e1575061271081105b62000223576040517f08c379a00000000000000000000000000000000000000000000000000000000081526004016200021a906200048f565b60405180910390fd5b806004819055505050505050620004b1565b600033905090565b60008060009054906101000a900473ffffffffffffffffffffffffffffffffffffffff169050816000806101000a81548173ffffffffffffffffffffffffffffffffffffffff021916908373ffffffffffffffffffffffffffffffffffffffff1602179055508173ffffffffffffffffffffffffffffffffffffffff168173ffffffffffffffffffffffffffffffffffffffff167f8be0079c531659141344cd1fd0a4f28419497f9722a3daafe3b4186f6b6457e060405160405180910390a35050565b600080fd5b600073ffffffffffffffffffffffffffffffffffffffff82169050919050565b6000620003338262000306565b9050919050565b620003458162000326565b81146200035157600080fd5b50565b60008151905062000365816200033a565b92915050565b6000819050919050565b62000380816200036b565b81146200038c57600080fd5b50565b600081519050620003a08162000375565b92915050565b600080600080600060a08688031215620003c557620003c462000301565b5b6000620003d58882890162000354565b9550506020620003e88882890162000354565b9450506040620003fb8882890162000354565b93505060606200040e8882890162000354565b925050608062000421888289016200038f565b9150509295509295909350565b600082825260208201905092915050565b7f696e76616c696420706c6174666f726d20666565000000000000000000000000600082015250565b6000620004776014836200042e565b915062000484826200043f565b602082019050919050565b60006020820190508181036000830152620004aa8162000468565b9050919050565b6123bc80620004c16000396000f3fe608060405234801561001057600080fd5b50600436106101425760003560e01c80639fb99fc3116100b8578063bc30a6181161007c578063bc30a61814610329578063bfe1092814610345578063c325c0d214610363578063ef65b0411461037f578063f2fde38b146103b3578063f90388f4146103cf57610142565b80639fb99fc314610289578063a7ab30e1146102a5578063abcb9934146102d5578063ac0679a6146102f1578063bbcaac381461030d57610142565b80634995b4581161010a5780634995b458146101d9578063715018a6146101f75780638da5cb5b146102015780638f3b80b21461021f578063918f86741461024f5780639ea55bb01461026d57610142565b80630d2f4f31146101475780631b71d85f146101635780631fc1e25f1461018157806326232a2e1461019d57806341275358146101bb575b600080fd5b610161600480360381019061015c9190611658565b6103ff565b005b61016b61083d565b604051610178919061171e565b60405180910390f35b61019b60048036038101906101969190611739565b610863565b005b6101a5610987565b6040516101b29190611775565b60405180910390f35b6101c361098d565b6040516101d0919061179f565b60405180910390f35b6101e16109b3565b6040516101ee9190611775565b60405180910390f35b6101ff6109c9565b005b6102096109dd565b604051610216919061179f565b60405180910390f35b61023960048036038101906102349190611739565b610a06565b60405161024691906117d5565b60405180910390f35b610257610a26565b6040516102649190611775565b60405180910390f35b610287600480360381019061028291906117f0565b610a2c565b005b6102a3600480360381019061029e9190611976565b610ac5565b005b6102bf60048036038101906102ba9190611739565b610c3b565b6040516102cc91906117d5565b60405180910390f35b6102ef60048036038101906102ea9190611739565b610c5b565b005b61030b600480360381019061030691906119eb565b610cf5565b005b61032760048036038101906103229190611739565b610d91565b005b610343600480360381019061033e9190611739565b610ddd565b005b61034d610e60565b60405161035a919061179f565b60405180910390f35b61037d60048036038101906103789190611739565b610e86565b005b61039960048036038101906103949190611739565b610ed2565b6040516103aa959493929190611a2b565b60405180910390f35b6103cd60048036038101906103c89190611739565b610f48565b005b6103e960048036038101906103e49190611739565b610fcb565b6040516103f69190611b04565b60405180910390f35b60011515600160008673ffffffffffffffffffffffffffffffffffffffff1673ffffffffffffffffffffffffffffffffffffffff16815260200190815260200160002060009054906101000a900460ff16151514610492576040517f08c379a000000000000000000000000000000000000000000000000000000000815260040161048990611b7c565b60405180910390fd5b61049a6109b3565b82116104db576040517f08c379a00000000000000000000000000000000000000000000000000000000081526004016104d290611be8565b60405180910390fd5b60076104e56109b3565b6104ef9190611c37565b8210610530576040517f08c379a000000000000000000000000000000000000000000000000000000000815260040161052790611cb7565b60405180910390fd5b600073ffffffffffffffffffffffffffffffffffffffff16600560009054906101000a900473ffffffffffffffffffffffffffffffffffffffff1673ffffffffffffffffffffffffffffffffffffffff16036105c1576040517f08c379a00000000000000000000000000000000000000000000000000000000081526004016105b890611d23565b60405180910390fd5b6000612710600454856105d49190611d43565b6105de9190611db4565b9050600081856105ee9190611de5565b905061063f33600360009054906101000a900473ffffffffffffffffffffffffffffffffffffffff16848973ffffffffffffffffffffffffffffffffffffffff166110ee909392919063ffffffff16565b61068e33600560009054906101000a900473ffffffffffffffffffffffffffffffffffffffff16838973ffffffffffffffffffffffffffffffffffffffff166110ee909392919063ffffffff16565b8273ffffffffffffffffffffffffffffffffffffffff16848773ffffffffffffffffffffffffffffffffffffffff167f51c8cd367a987b8c2f652c101ea7076ec8e4dfd33c4c77bb80e018e7143b6512846040516106ec9190611775565b60405180910390a46040518060a001604052808773ffffffffffffffffffffffffffffffffffffffff1681526020018681526020018581526020018473ffffffffffffffffffffffffffffffffffffffff16815260200142815250600760003373ffffffffffffffffffffffffffffffffffffffff1673ffffffffffffffffffffffffffffffffffffffff16815260200190815260200160002060008201518160000160006101000a81548173ffffffffffffffffffffffffffffffffffffffff021916908373ffffffffffffffffffffffffffffffffffffffff160217905550602082015181600101556040820151816002015560608201518160030160006101000a81548173ffffffffffffffffffffffffffffffffffffffff021916908373ffffffffffffffffffffffffffffffffffffffff16021790555060808201518160040155905050505050505050565b600660009054906101000a900473ffffffffffffffffffffffffffffffffffffffff1681565b60011515600260003373ffffffffffffffffffffffffffffffffffffffff1673ffffffffffffffffffffffffffffffffffffffff16815260200190815260200160002060009054906101000a900460ff161515146108f6576040517f08c379a00000000000000000000000000000000000000000000000000000000081526004016108ed90611e65565b60405180910390fd5b60018060008373ffffffffffffffffffffffffffffffffffffffff1673ffffffffffffffffffffffffffffffffffffffff16815260200190815260200160002060006101000a81548160ff0219169083151502179055507ffb3fdb4942f7aa0b8ecdf8508875e7f6c8142bb7870f0455b87a9f093608bc828160405161097c919061179f565b60405180910390a150565b60045481565b600360009054906101000a900473ffffffffffffffffffffffffffffffffffffffff1681565b600062093a80426109c49190611db4565b905090565b6109d1611177565b6109db60006111f5565b565b60008060009054906101000a900473ffffffffffffffffffffffffffffffffffffffff16905090565b60026020528060005260406000206000915054906101000a900460ff1681565b61271081565b610a34611177565b600081118015610a45575061271081105b610a84576040517f08c379a0000000000000000000000000000000000000000000000000000000008152600401610a7b90611ed1565b60405180910390fd5b806004819055507f545f541f608330014315921189568bf5b2266925f757d74e5ad89ae1d2d6438c81604051610aba9190611775565b60405180910390a150565b60011515600260003373ffffffffffffffffffffffffffffffffffffffff1673ffffffffffffffffffffffffffffffffffffffff16815260200190815260200160002060009054906101000a900460ff16151514610b58576040517f08c379a0000000000000000000000000000000000000000000000000000000008152600401610b4f90611e65565b60405180910390fd5b60005b8151811015610c37576001806000848481518110610b7c57610b7b611ef1565b5b602002602001015173ffffffffffffffffffffffffffffffffffffffff1673ffffffffffffffffffffffffffffffffffffffff16815260200190815260200160002060006101000a81548160ff0219169083151502179055507ffb3fdb4942f7aa0b8ecdf8508875e7f6c8142bb7870f0455b87a9f093608bc82828281518110610c0957610c08611ef1565b5b6020026020010151604051610c1e919061179f565b60405180910390a180610c3090611f20565b9050610b5b565b5050565b60016020528060005260406000206000915054906101000a900460ff1681565b610c63611177565b6000600160008373ffffffffffffffffffffffffffffffffffffffff1673ffffffffffffffffffffffffffffffffffffffff16815260200190815260200160002060006101000a81548160ff0219169083151502179055507fc48322c2e165c864176005884983dd81c87a9fc8258ca6a1967d17b26cd8d0e381604051610cea919061179f565b60405180910390a150565b610cfd611177565b80600260008473ffffffffffffffffffffffffffffffffffffffff1673ffffffffffffffffffffffffffffffffffffffff16815260200190815260200160002060006101000a81548160ff0219169083151502179055507fae0b47afe292832708082f706affd0f37c4a556bd6dbeafe9b6a8562251c5a408282604051610d85929190611f68565b60405180910390a15050565b610d99611177565b80600360006101000a81548173ffffffffffffffffffffffffffffffffffffffff021916908373ffffffffffffffffffffffffffffffffffffffff16021790555050565b610de5611177565b80600560006101000a81548173ffffffffffffffffffffffffffffffffffffffff021916908373ffffffffffffffffffffffffffffffffffffffff1602179055507f9941240ae138e71bb3f963c4f6fd96e99fb386a8e63563343f9294902bdbf74481604051610e55919061179f565b60405180910390a150565b600560009054906101000a900473ffffffffffffffffffffffffffffffffffffffff1681565b610e8e611177565b80600660006101000a81548173ffffffffffffffffffffffffffffffffffffffff021916908373ffffffffffffffffffffffffffffffffffffffff16021790555050565b60076020528060005260406000206000915090508060000160009054906101000a900473ffffffffffffffffffffffffffffffffffffffff16908060010154908060020154908060030160009054906101000a900473ffffffffffffffffffffffffffffffffffffffff16908060040154905085565b610f50611177565b600073ffffffffffffffffffffffffffffffffffffffff168173ffffffffffffffffffffffffffffffffffffffff1603610fbf576040517f08c379a0000000000000000000000000000000000000000000000000000000008152600401610fb690612003565b60405180910390fd5b610fc8816111f5565b50565b610fd3611555565b600760008373ffffffffffffffffffffffffffffffffffffffff1673ffffffffffffffffffffffffffffffffffffffff1681526020019081526020016000206040518060a00160405290816000820160009054906101000a900473ffffffffffffffffffffffffffffffffffffffff1673ffffffffffffffffffffffffffffffffffffffff1673ffffffffffffffffffffffffffffffffffffffff16815260200160018201548152602001600282015481526020016003820160009054906101000a900473ffffffffffffffffffffffffffffffffffffffff1673ffffffffffffffffffffffffffffffffffffffff1673ffffffffffffffffffffffffffffffffffffffff1681526020016004820154815250509050919050565b611171846323b872dd60e01b85858560405160240161110f93929190612023565b604051602081830303815290604052907bffffffffffffffffffffffffffffffffffffffffffffffffffffffff19166020820180517bffffffffffffffffffffffffffffffffffffffffffffffffffffffff83818316178352505050506112b9565b50505050565b61117f611380565b73ffffffffffffffffffffffffffffffffffffffff1661119d6109dd565b73ffffffffffffffffffffffffffffffffffffffff16146111f3576040517f08c379a00000000000000000000000000000000000000000000000000000000081526004016111ea906120a6565b60405180910390fd5b565b60008060009054906101000a900473ffffffffffffffffffffffffffffffffffffffff169050816000806101000a81548173ffffffffffffffffffffffffffffffffffffffff021916908373ffffffffffffffffffffffffffffffffffffffff1602179055508173ffffffffffffffffffffffffffffffffffffffff168173ffffffffffffffffffffffffffffffffffffffff167f8be0079c531659141344cd1fd0a4f28419497f9722a3daafe3b4186f6b6457e060405160405180910390a35050565b600061131b826040518060400160405280602081526020017f5361666545524332303a206c6f772d6c6576656c2063616c6c206661696c65648152508573ffffffffffffffffffffffffffffffffffffffff166113889092919063ffffffff16565b905060008151111561137b578080602001905181019061133b91906120db565b61137a576040517f08c379a00000000000000000000000000000000000000000000000000000000081526004016113719061217a565b60405180910390fd5b5b505050565b600033905090565b606061139784846000856113a0565b90509392505050565b6060824710156113e5576040517f08c379a00000000000000000000000000000000000000000000000000000000081526004016113dc9061220c565b60405180910390fd5b6000808673ffffffffffffffffffffffffffffffffffffffff16858760405161140e919061229d565b60006040518083038185875af1925050503d806000811461144b576040519150601f19603f3d011682016040523d82523d6000602084013e611450565b606091505b50915091506114618783838761146d565b92505050949350505050565b606083156114cf5760008351036114c757611487856114e2565b6114c6576040517f08c379a00000000000000000000000000000000000000000000000000000000081526004016114bd90612300565b60405180910390fd5b5b8290506114da565b6114d98383611505565b5b949350505050565b6000808273ffffffffffffffffffffffffffffffffffffffff163b119050919050565b6000825111156115185781518083602001fd5b806040517f08c379a000000000000000000000000000000000000000000000000000000000815260040161154c9190612364565b60405180910390fd5b6040518060a00160405280600073ffffffffffffffffffffffffffffffffffffffff1681526020016000815260200160008152602001600073ffffffffffffffffffffffffffffffffffffffff168152602001600081525090565b6000604051905090565b600080fd5b600080fd5b600073ffffffffffffffffffffffffffffffffffffffff82169050919050565b60006115ef826115c4565b9050919050565b6115ff816115e4565b811461160a57600080fd5b50565b60008135905061161c816115f6565b92915050565b6000819050919050565b61163581611622565b811461164057600080fd5b50565b6000813590506116528161162c565b92915050565b60008060008060808587031215611672576116716115ba565b5b60006116808782880161160d565b945050602061169187828801611643565b93505060406116a287828801611643565b92505060606116b38782880161160d565b91505092959194509250565b6000819050919050565b60006116e46116df6116da846115c4565b6116bf565b6115c4565b9050919050565b60006116f6826116c9565b9050919050565b6000611708826116eb565b9050919050565b611718816116fd565b82525050565b6000602082019050611733600083018461170f565b92915050565b60006020828403121561174f5761174e6115ba565b5b600061175d8482850161160d565b91505092915050565b61176f81611622565b82525050565b600060208201905061178a6000830184611766565b92915050565b611799816115e4565b82525050565b60006020820190506117b46000830184611790565b92915050565b60008115159050919050565b6117cf816117ba565b82525050565b60006020820190506117ea60008301846117c6565b92915050565b600060208284031215611806576118056115ba565b5b600061181484828501611643565b91505092915050565b600080fd5b6000601f19601f8301169050919050565b7f4e487b7100000000000000000000000000000000000000000000000000000000600052604160045260246000fd5b61186b82611822565b810181811067ffffffffffffffff8211171561188a57611889611833565b5b80604052505050565b600061189d6115b0565b90506118a98282611862565b919050565b600067ffffffffffffffff8211156118c9576118c8611833565b5b602082029050602081019050919050565b600080fd5b60006118f26118ed846118ae565b611893565b90508083825260208201905060208402830185811115611915576119146118da565b5b835b8181101561193e578061192a888261160d565b845260208401935050602081019050611917565b5050509392505050565b600082601f83011261195d5761195c61181d565b5b813561196d8482602086016118df565b91505092915050565b60006020828403121561198c5761198b6115ba565b5b600082013567ffffffffffffffff8111156119aa576119a96115bf565b5b6119b684828501611948565b91505092915050565b6119c8816117ba565b81146119d357600080fd5b50565b6000813590506119e5816119bf565b92915050565b60008060408385031215611a0257611a016115ba565b5b6000611a108582860161160d565b9250506020611a21858286016119d6565b9150509250929050565b600060a082019050611a406000830188611790565b611a4d6020830187611766565b611a5a6040830186611766565b611a676060830185611790565b611a746080830184611766565b9695505050505050565b611a87816115e4565b82525050565b611a9681611622565b82525050565b60a082016000820151611ab26000850182611a7e565b506020820151611ac56020850182611a8d565b506040820151611ad86040850182611a8d565b506060820151611aeb6060850182611a7e565b506080820151611afe6080850182611a8d565b50505050565b600060a082019050611b196000830184611a9c565b92915050565b600082825260208201905092915050565b7f746f6b656e20756e6c6973746564000000000000000000000000000000000000600082015250565b6000611b66600e83611b1f565b9150611b7182611b30565b602082019050919050565b60006020820190508181036000830152611b9581611b59565b9050919050565b7f7765656b20657870697265640000000000000000000000000000000000000000600082015250565b6000611bd2600c83611b1f565b9150611bdd82611b9c565b602082019050919050565b60006020820190508181036000830152611c0181611bc5565b9050919050565b7f4e487b7100000000000000000000000000000000000000000000000000000000600052601160045260246000fd5b6000611c4282611622565b9150611c4d83611622565b9250828201905080821115611c6557611c64611c08565b5b92915050565b7f6d6f7265207468616e2036207765656b73206168656164000000000000000000600082015250565b6000611ca1601783611b1f565b9150611cac82611c6b565b602082019050919050565b60006020820190508181036000830152611cd081611c94565b9050919050565b7f6469737472696275746f72206e6f742073657400000000000000000000000000600082015250565b6000611d0d601383611b1f565b9150611d1882611cd7565b602082019050919050565b60006020820190508181036000830152611d3c81611d00565b9050919050565b6000611d4e82611622565b9150611d5983611622565b9250828202611d6781611622565b91508282048414831517611d7e57611d7d611c08565b5b5092915050565b7f4e487b7100000000000000000000000000000000000000000000000000000000600052601260045260246000fd5b6000611dbf82611622565b9150611dca83611622565b925082611dda57611dd9611d85565b5b828204905092915050565b6000611df082611622565b9150611dfb83611622565b9250828203905081811115611e1357611e12611c08565b5b92915050565b7f5465616d206f6e6c790000000000000000000000000000000000000000000000600082015250565b6000611e4f600983611b1f565b9150611e5a82611e19565b602082019050919050565b60006020820190508181036000830152611e7e81611e42565b9050919050565b7f696e76616c696420706c6174666f726d20666565000000000000000000000000600082015250565b6000611ebb601483611b1f565b9150611ec682611e85565b602082019050919050565b60006020820190508181036000830152611eea81611eae565b9050919050565b7f4e487b7100000000000000000000000000000000000000000000000000000000600052603260045260246000fd5b6000611f2b82611622565b91507fffffffffffffffffffffffffffffffffffffffffffffffffffffffffffffffff8203611f5d57611f5c611c08565b5b600182019050919050565b6000604082019050611f7d6000830185611790565b611f8a60208301846117c6565b9392505050565b7f4f776e61626c653a206e6577206f776e657220697320746865207a65726f206160008201527f6464726573730000000000000000000000000000000000000000000000000000602082015250565b6000611fed602683611b1f565b9150611ff882611f91565b604082019050919050565b6000602082019050818103600083015261201c81611fe0565b9050919050565b60006060820190506120386000830186611790565b6120456020830185611790565b6120526040830184611766565b949350505050565b7f4f776e61626c653a2063616c6c6572206973206e6f7420746865206f776e6572600082015250565b6000612090602083611b1f565b915061209b8261205a565b602082019050919050565b600060208201905081810360008301526120bf81612083565b9050919050565b6000815190506120d5816119bf565b92915050565b6000602082840312156120f1576120f06115ba565b5b60006120ff848285016120c6565b91505092915050565b7f5361666545524332303a204552433230206f7065726174696f6e20646964206e60008201527f6f74207375636365656400000000000000000000000000000000000000000000602082015250565b6000612164602a83611b1f565b915061216f82612108565b604082019050919050565b6000602082019050818103600083015261219381612157565b9050919050565b7f416464726573733a20696e73756666696369656e742062616c616e636520666f60008201527f722063616c6c0000000000000000000000000000000000000000000000000000602082015250565b60006121f6602683611b1f565b91506122018261219a565b604082019050919050565b60006020820190508181036000830152612225816121e9565b9050919050565b600081519050919050565b600081905092915050565b60005b83811015612260578082015181840152602081019050612245565b60008484015250505050565b60006122778261222c565b6122818185612237565b9350612291818560208601612242565b80840191505092915050565b60006122a9828461226c565b915081905092915050565b7f416464726573733a2063616c6c20746f206e6f6e2d636f6e7472616374000000600082015250565b60006122ea601d83611b1f565b91506122f5826122b4565b602082019050919050565b60006020820190508181036000830152612319816122dd565b9050919050565b600081519050919050565b600061233682612320565b6123408185611b1f565b9350612350818560208601612242565b61235981611822565b840191505092915050565b6000602082019050818103600083015261237e818461232b565b90509291505056fea2646970667358221220e7c98f9275fee8866a992b61eae56a137ba6cc7fd838ae3713710c8ac9641a4b64736f6c63430008110033",
  "linkReferences": {},
  "deployedLinkReferences": {}
}