{
  "_format": "hh-sol-artifact-1",
  "contractName": "VotiumVeCRV",
  "sourceName": "contracts/VotiumVeCRV.sol",
  "abi": [
    {
      "inputs": [
        {
          "internalType": "address",
          "name": "feeAddress_",
          "type": "address"
        },
        {
          "internalType": "address",
          "name": "teamMember",
          "type": "address"
        },
        {
          "internalType": "address",
          "name": "distributor_",
          "type": "address"
        },
        {
          "internalType": "address",
          "name": "gc_",
          "type": "address"
        },
        {
          "internalType": "uint256",
          "name": "platformFee_",
          "type": "uint256"
        }
      ],
      "stateMutability": "nonpayable",
      "type": "constructor"
    },
    {
      "anonymous": false,
      "inputs": [
        {
          "indexed": false,
          "internalType": "address",
          "name": "_token",
          "type": "address"
        }
      ],
      "name": "Listed",
      "type": "event"
    },
    {
      "anonymous": false,
      "inputs": [
        {
          "indexed": false,
          "internalType": "address",
          "name": "_member",
          "type": "address"
        },
        {
          "indexed": false,
          "internalType": "bool",
          "name": "_approval",
          "type": "bool"
        }
      ],
      "name": "ModifiedTeam",
      "type": "event"
    },
    {
      "anonymous": false,
      "inputs": [
        {
          "indexed": true,
          "internalType": "address",
          "name": "_token",
          "type": "address"
        },
        {
          "indexed": false,
          "internalType": "uint256",
          "name": "_amount",
          "type": "uint256"
        },
        {
          "indexed": true,
          "internalType": "uint256",
          "name": "_week",
          "type": "uint256"
        },
        {
          "indexed": true,
          "internalType": "address",
          "name": "_gauge",
          "type": "address"
        }
      ],
      "name": "NewReward",
      "type": "event"
    },
    {
      "anonymous": false,
      "inputs": [
        {
          "indexed": true,
          "internalType": "address",
          "name": "previousOwner",
          "type": "address"
        },
        {
          "indexed": true,
          "internalType": "address",
          "name": "newOwner",
          "type": "address"
        }
      ],
      "name": "OwnershipTransferred",
      "type": "event"
    },
    {
      "anonymous": false,
      "inputs": [
        {
          "indexed": false,
          "internalType": "address",
          "name": "_token",
          "type": "address"
        }
      ],
      "name": "Unlisted",
      "type": "event"
    },
    {
      "anonymous": false,
      "inputs": [
        {
          "indexed": false,
          "internalType": "address",
          "name": "_distributor",
          "type": "address"
        }
      ],
      "name": "UpdatedDistributor",
      "type": "event"
    },
    {
      "anonymous": false,
      "inputs": [
        {
          "indexed": false,
          "internalType": "uint256",
          "name": "_feeAmount",
          "type": "uint256"
        }
      ],
      "name": "UpdatedFee",
      "type": "event"
    },
    {
      "inputs": [],
      "name": "DENOMINATOR",
      "outputs": [
        {
          "internalType": "uint256",
          "name": "",
          "type": "uint256"
        }
      ],
      "stateMutability": "view",
      "type": "function"
    },
    {
      "inputs": [
        {
          "internalType": "address",
          "name": "",
          "type": "address"
        }
      ],
      "name": "approvedTeam",
      "outputs": [
        {
          "internalType": "bool",
          "name": "",
          "type": "bool"
        }
      ],
      "stateMutability": "view",
      "type": "function"
    },
    {
      "inputs": [
        {
          "internalType": "address",
          "name": "_token",
          "type": "address"
        },
        {
          "internalType": "uint256",
          "name": "_amount",
          "type": "uint256"
        },
        {
          "internalType": "uint256",
          "name": "_week",
          "type": "uint256"
        },
        {
          "internalType": "address",
          "name": "_gauge",
          "type": "address"
        }
      ],
      "name": "depositReward",
      "outputs": [],
      "stateMutability": "nonpayable",
      "type": "function"
    },
    {
      "inputs": [],
      "name": "distributor",
      "outputs": [
        {
          "internalType": "address",
          "name": "",
          "type": "address"
        }
      ],
      "stateMutability": "view",
      "type": "function"
    },
    {
      "inputs": [],
      "name": "feeAddress",
      "outputs": [
        {
          "internalType": "address",
          "name": "",
          "type": "address"
        }
      ],
      "stateMutability": "view",
      "type": "function"
    },
    {
      "inputs": [],
      "name": "gc",
      "outputs": [
        {
          "internalType": "contract GController",
          "name": "",
          "type": "address"
        }
      ],
      "stateMutability": "view",
      "type": "function"
    },
    {
      "inputs": [
        {
          "internalType": "address",
          "name": "_token",
          "type": "address"
        }
      ],
      "name": "listToken",
      "outputs": [],
      "stateMutability": "nonpayable",
      "type": "function"
    },
    {
      "inputs": [
        {
          "internalType": "address[]",
          "name": "_tokens",
          "type": "address[]"
        }
      ],
      "name": "listTokens",
      "outputs": [],
      "stateMutability": "nonpayable",
      "type": "function"
    },
    {
      "inputs": [
        {
          "internalType": "address",
          "name": "_member",
          "type": "address"
        },
        {
          "internalType": "bool",
          "name": "_approval",
          "type": "bool"
        }
      ],
      "name": "modifyTeam",
      "outputs": [],
      "stateMutability": "nonpayable",
      "type": "function"
    },
    {
      "inputs": [],
      "name": "owner",
      "outputs": [
        {
          "internalType": "address",
          "name": "",
          "type": "address"
        }
      ],
      "stateMutability": "view",
      "type": "function"
    },
    {
      "inputs": [],
      "name": "platformFee",
      "outputs": [
        {
          "internalType": "uint256",
          "name": "",
          "type": "uint256"
        }
      ],
      "stateMutability": "view",
      "type": "function"
    },
    {
      "inputs": [],
      "name": "renounceOwnership",
      "outputs": [],
      "stateMutability": "nonpayable",
      "type": "function"
    },
    {
      "inputs": [
        {
          "internalType": "address",
          "name": "",
          "type": "address"
        }
      ],
      "name": "tokenListed",
      "outputs": [
        {
          "internalType": "bool",
          "name": "",
          "type": "bool"
        }
      ],
      "stateMutability": "view",
      "type": "function"
    },
    {
      "inputs": [
        {
          "internalType": "address",
          "name": "newOwner",
          "type": "address"
        }
      ],
      "name": "transferOwnership",
      "outputs": [],
      "stateMutability": "nonpayable",
      "type": "function"
    },
    {
      "inputs": [
        {
          "internalType": "address",
          "name": "_token",
          "type": "address"
        }
      ],
      "name": "unlistToken",
      "outputs": [],
      "stateMutability": "nonpayable",
      "type": "function"
    },
    {
      "inputs": [
        {
          "internalType": "address",
          "name": "_distributor",
          "type": "address"
        }
      ],
      "name": "updateDistributor",
      "outputs": [],
      "stateMutability": "nonpayable",
      "type": "function"
    },
    {
      "inputs": [
        {
          "internalType": "address",
          "name": "_feeAddress",
          "type": "address"
        }
      ],
      "name": "updateFeeAddress",
      "outputs": [],
      "stateMutability": "nonpayable",
      "type": "function"
    },
    {
      "inputs": [
        {
          "internalType": "uint256",
          "name": "_feeAmount",
          "type": "uint256"
        }
      ],
      "name": "updateFeeAmount",
      "outputs": [],
      "stateMutability": "nonpayable",
      "type": "function"
    },
    {
      "inputs": [
        {
          "internalType": "address",
          "name": "_gc",
          "type": "address"
        }
      ],
      "name": "updateGaugeController",
      "outputs": [],
      "stateMutability": "nonpayable",
      "type": "function"
    },
    {
      "inputs": [],
      "name": "week",
      "outputs": [
        {
          "internalType": "uint256",
          "name": "",
          "type": "uint256"
        }
      ],
      "stateMutability": "view",
      "type": "function"
    }
  ],
  "bytecode": "0x608060405260c86004553480156200001657600080fd5b50604051620023da380380620023da83398181016040528101906200003c9190620003a6565b6200005c620000506200023560201b60201c565b6200023d60201b60201c565b84600360006101000a81548173ffffffffffffffffffffffffffffffffffffffff021916908373ffffffffffffffffffffffffffffffffffffffff1602179055506001600260003373ffffffffffffffffffffffffffffffffffffffff1673ffffffffffffffffffffffffffffffffffffffff16815260200190815260200160002060006101000a81548160ff0219169083151502179055506001600260008673ffffffffffffffffffffffffffffffffffffffff1673ffffffffffffffffffffffffffffffffffffffff16815260200190815260200160002060006101000a81548160ff02191690831515021790555082600560006101000a81548173ffffffffffffffffffffffffffffffffffffffff021916908373ffffffffffffffffffffffffffffffffffffffff16021790555081600660006101000a81548173ffffffffffffffffffffffffffffffffffffffff021916908373ffffffffffffffffffffffffffffffffffffffff160217905550600081118015620001e1575061271081105b62000223576040517f08c379a00000000000000000000000000000000000000000000000000000000081526004016200021a906200048f565b60405180910390fd5b806004819055505050505050620004b1565b600033905090565b60008060009054906101000a900473ffffffffffffffffffffffffffffffffffffffff169050816000806101000a81548173ffffffffffffffffffffffffffffffffffffffff021916908373ffffffffffffffffffffffffffffffffffffffff1602179055508173ffffffffffffffffffffffffffffffffffffffff168173ffffffffffffffffffffffffffffffffffffffff167f8be0079c531659141344cd1fd0a4f28419497f9722a3daafe3b4186f6b6457e060405160405180910390a35050565b600080fd5b600073ffffffffffffffffffffffffffffffffffffffff82169050919050565b6000620003338262000306565b9050919050565b620003458162000326565b81146200035157600080fd5b50565b60008151905062000365816200033a565b92915050565b6000819050919050565b62000380816200036b565b81146200038c57600080fd5b50565b600081519050620003a08162000375565b92915050565b600080600080600060a08688031215620003c557620003c462000301565b5b6000620003d58882890162000354565b9550506020620003e88882890162000354565b9450506040620003fb8882890162000354565b93505060606200040e8882890162000354565b925050608062000421888289016200038f565b9150509295509295909350565b600082825260208201905092915050565b7f696e76616c696420706c6174666f726d20666565000000000000000000000000600082015250565b6000620004776014836200042e565b915062000484826200043f565b602082019050919050565b60006020820190508181036000830152620004aa8162000468565b9050919050565b611f1980620004c16000396000f3fe608060405234801561001057600080fd5b506004361061012c5760003560e01c80639ea55bb0116100ad578063bbcaac3811610071578063bbcaac38146102f7578063bc30a61814610313578063bfe109281461032f578063c325c0d21461034d578063f2fde38b146103695761012c565b80639ea55bb0146102575780639fb99fc314610273578063a7ab30e11461028f578063abcb9934146102bf578063ac0679a6146102db5761012c565b80634995b458116100f45780634995b458146101c3578063715018a6146101e15780638da5cb5b146101eb5780638f3b80b214610209578063918f8674146102395761012c565b80630d2f4f31146101315780631b71d85f1461014d5780631fc1e25f1461016b57806326232a2e1461018757806341275358146101a5575b600080fd5b61014b600480360381019061014691906112a9565b610385565b005b610155610682565b604051610162919061136f565b60405180910390f35b6101856004803603810190610180919061138a565b6106a8565b005b61018f6107cc565b60405161019c91906113c6565b60405180910390f35b6101ad6107d2565b6040516101ba91906113f0565b60405180910390f35b6101cb6107f8565b6040516101d891906113c6565b60405180910390f35b6101e961080e565b005b6101f3610822565b60405161020091906113f0565b60405180910390f35b610223600480360381019061021e919061138a565b61084b565b6040516102309190611426565b60405180910390f35b61024161086b565b60405161024e91906113c6565b60405180910390f35b610271600480360381019061026c9190611441565b610871565b005b61028d600480360381019061028891906115c7565b61090a565b005b6102a960048036038101906102a4919061138a565b610a80565b6040516102b69190611426565b60405180910390f35b6102d960048036038101906102d4919061138a565b610aa0565b005b6102f560048036038101906102f0919061163c565b610b3a565b005b610311600480360381019061030c919061138a565b610bd6565b005b61032d6004803603810190610328919061138a565b610c22565b005b610337610ca5565b60405161034491906113f0565b60405180910390f35b6103676004803603810190610362919061138a565b610ccb565b005b610383600480360381019061037e919061138a565b610d17565b005b60011515600160008673ffffffffffffffffffffffffffffffffffffffff1673ffffffffffffffffffffffffffffffffffffffff16815260200190815260200160002060009054906101000a900460ff16151514610418576040517f08c379a000000000000000000000000000000000000000000000000000000000815260040161040f906116d9565b60405180910390fd5b6104206107f8565b8211610461576040517f08c379a000000000000000000000000000000000000000000000000000000000815260040161045890611745565b60405180910390fd5b600761046b6107f8565b6104759190611794565b82106104b6576040517f08c379a00000000000000000000000000000000000000000000000000000000081526004016104ad90611814565b60405180910390fd5b600073ffffffffffffffffffffffffffffffffffffffff16600560009054906101000a900473ffffffffffffffffffffffffffffffffffffffff1673ffffffffffffffffffffffffffffffffffffffff1603610547576040517f08c379a000000000000000000000000000000000000000000000000000000000815260040161053e90611880565b60405180910390fd5b60006127106004548561055a91906118a0565b6105649190611911565b9050600081856105749190611942565b90506105c533600360009054906101000a900473ffffffffffffffffffffffffffffffffffffffff16848973ffffffffffffffffffffffffffffffffffffffff16610d9a909392919063ffffffff16565b61061433600560009054906101000a900473ffffffffffffffffffffffffffffffffffffffff16838973ffffffffffffffffffffffffffffffffffffffff16610d9a909392919063ffffffff16565b8273ffffffffffffffffffffffffffffffffffffffff16848773ffffffffffffffffffffffffffffffffffffffff167f51c8cd367a987b8c2f652c101ea7076ec8e4dfd33c4c77bb80e018e7143b65128460405161067291906113c6565b60405180910390a4505050505050565b600660009054906101000a900473ffffffffffffffffffffffffffffffffffffffff1681565b60011515600260003373ffffffffffffffffffffffffffffffffffffffff1673ffffffffffffffffffffffffffffffffffffffff16815260200190815260200160002060009054906101000a900460ff1615151461073b576040517f08c379a0000000000000000000000000000000000000000000000000000000008152600401610732906119c2565b60405180910390fd5b60018060008373ffffffffffffffffffffffffffffffffffffffff1673ffffffffffffffffffffffffffffffffffffffff16815260200190815260200160002060006101000a81548160ff0219169083151502179055507ffb3fdb4942f7aa0b8ecdf8508875e7f6c8142bb7870f0455b87a9f093608bc82816040516107c191906113f0565b60405180910390a150565b60045481565b600360009054906101000a900473ffffffffffffffffffffffffffffffffffffffff1681565b600062093a80426108099190611911565b905090565b610816610e23565b6108206000610ea1565b565b60008060009054906101000a900473ffffffffffffffffffffffffffffffffffffffff16905090565b60026020528060005260406000206000915054906101000a900460ff1681565b61271081565b610879610e23565b60008111801561088a575061271081105b6108c9576040517f08c379a00000000000000000000000000000000000000000000000000000000081526004016108c090611a2e565b60405180910390fd5b806004819055507f545f541f608330014315921189568bf5b2266925f757d74e5ad89ae1d2d6438c816040516108ff91906113c6565b60405180910390a150565b60011515600260003373ffffffffffffffffffffffffffffffffffffffff1673ffffffffffffffffffffffffffffffffffffffff16815260200190815260200160002060009054906101000a900460ff1615151461099d576040517f08c379a0000000000000000000000000000000000000000000000000000000008152600401610994906119c2565b60405180910390fd5b60005b8151811015610a7c5760018060008484815181106109c1576109c0611a4e565b5b602002602001015173ffffffffffffffffffffffffffffffffffffffff1673ffffffffffffffffffffffffffffffffffffffff16815260200190815260200160002060006101000a81548160ff0219169083151502179055507ffb3fdb4942f7aa0b8ecdf8508875e7f6c8142bb7870f0455b87a9f093608bc82828281518110610a4e57610a4d611a4e565b5b6020026020010151604051610a6391906113f0565b60405180910390a180610a7590611a7d565b90506109a0565b5050565b60016020528060005260406000206000915054906101000a900460ff1681565b610aa8610e23565b6000600160008373ffffffffffffffffffffffffffffffffffffffff1673ffffffffffffffffffffffffffffffffffffffff16815260200190815260200160002060006101000a81548160ff0219169083151502179055507fc48322c2e165c864176005884983dd81c87a9fc8258ca6a1967d17b26cd8d0e381604051610b2f91906113f0565b60405180910390a150565b610b42610e23565b80600260008473ffffffffffffffffffffffffffffffffffffffff1673ffffffffffffffffffffffffffffffffffffffff16815260200190815260200160002060006101000a81548160ff0219169083151502179055507fae0b47afe292832708082f706affd0f37c4a556bd6dbeafe9b6a8562251c5a408282604051610bca929190611ac5565b60405180910390a15050565b610bde610e23565b80600360006101000a81548173ffffffffffffffffffffffffffffffffffffffff021916908373ffffffffffffffffffffffffffffffffffffffff16021790555050565b610c2a610e23565b80600560006101000a81548173ffffffffffffffffffffffffffffffffffffffff021916908373ffffffffffffffffffffffffffffffffffffffff1602179055507f9941240ae138e71bb3f963c4f6fd96e99fb386a8e63563343f9294902bdbf74481604051610c9a91906113f0565b60405180910390a150565b600560009054906101000a900473ffffffffffffffffffffffffffffffffffffffff1681565b610cd3610e23565b80600660006101000a81548173ffffffffffffffffffffffffffffffffffffffff021916908373ffffffffffffffffffffffffffffffffffffffff16021790555050565b610d1f610e23565b600073ffffffffffffffffffffffffffffffffffffffff168173ffffffffffffffffffffffffffffffffffffffff1603610d8e576040517f08c379a0000000000000000000000000000000000000000000000000000000008152600401610d8590611b60565b60405180910390fd5b610d9781610ea1565b50565b610e1d846323b872dd60e01b858585604051602401610dbb93929190611b80565b604051602081830303815290604052907bffffffffffffffffffffffffffffffffffffffffffffffffffffffff19166020820180517bffffffffffffffffffffffffffffffffffffffffffffffffffffffff8381831617835250505050610f65565b50505050565b610e2b61102c565b73ffffffffffffffffffffffffffffffffffffffff16610e49610822565b73ffffffffffffffffffffffffffffffffffffffff1614610e9f576040517f08c379a0000000000000000000000000000000000000000000000000000000008152600401610e9690611c03565b60405180910390fd5b565b60008060009054906101000a900473ffffffffffffffffffffffffffffffffffffffff169050816000806101000a81548173ffffffffffffffffffffffffffffffffffffffff021916908373ffffffffffffffffffffffffffffffffffffffff1602179055508173ffffffffffffffffffffffffffffffffffffffff168173ffffffffffffffffffffffffffffffffffffffff167f8be0079c531659141344cd1fd0a4f28419497f9722a3daafe3b4186f6b6457e060405160405180910390a35050565b6000610fc7826040518060400160405280602081526020017f5361666545524332303a206c6f772d6c6576656c2063616c6c206661696c65648152508573ffffffffffffffffffffffffffffffffffffffff166110349092919063ffffffff16565b90506000815111156110275780806020019051810190610fe79190611c38565b611026576040517f08c379a000000000000000000000000000000000000000000000000000000000815260040161101d90611cd7565b60405180910390fd5b5b505050565b600033905090565b6060611043848460008561104c565b90509392505050565b606082471015611091576040517f08c379a000000000000000000000000000000000000000000000000000000000815260040161108890611d69565b60405180910390fd5b6000808673ffffffffffffffffffffffffffffffffffffffff1685876040516110ba9190611dfa565b60006040518083038185875af1925050503d80600081146110f7576040519150601f19603f3d011682016040523d82523d6000602084013e6110fc565b606091505b509150915061110d87838387611119565b92505050949350505050565b6060831561117b576000835103611173576111338561118e565b611172576040517f08c379a000000000000000000000000000000000000000000000000000000000815260040161116990611e5d565b60405180910390fd5b5b829050611186565b61118583836111b1565b5b949350505050565b6000808273ffffffffffffffffffffffffffffffffffffffff163b119050919050565b6000825111156111c45781518083602001fd5b806040517f08c379a00000000000000000000000000000000000000000000000000000000081526004016111f89190611ec1565b60405180910390fd5b6000604051905090565b600080fd5b600080fd5b600073ffffffffffffffffffffffffffffffffffffffff82169050919050565b600061124082611215565b9050919050565b61125081611235565b811461125b57600080fd5b50565b60008135905061126d81611247565b92915050565b6000819050919050565b61128681611273565b811461129157600080fd5b50565b6000813590506112a38161127d565b92915050565b600080600080608085870312156112c3576112c261120b565b5b60006112d18782880161125e565b94505060206112e287828801611294565b93505060406112f387828801611294565b92505060606113048782880161125e565b91505092959194509250565b6000819050919050565b600061133561133061132b84611215565b611310565b611215565b9050919050565b60006113478261131a565b9050919050565b60006113598261133c565b9050919050565b6113698161134e565b82525050565b60006020820190506113846000830184611360565b92915050565b6000602082840312156113a05761139f61120b565b5b60006113ae8482850161125e565b91505092915050565b6113c081611273565b82525050565b60006020820190506113db60008301846113b7565b92915050565b6113ea81611235565b82525050565b600060208201905061140560008301846113e1565b92915050565b60008115159050919050565b6114208161140b565b82525050565b600060208201905061143b6000830184611417565b92915050565b6000602082840312156114575761145661120b565b5b600061146584828501611294565b91505092915050565b600080fd5b6000601f19601f8301169050919050565b7f4e487b7100000000000000000000000000000000000000000000000000000000600052604160045260246000fd5b6114bc82611473565b810181811067ffffffffffffffff821117156114db576114da611484565b5b80604052505050565b60006114ee611201565b90506114fa82826114b3565b919050565b600067ffffffffffffffff82111561151a57611519611484565b5b602082029050602081019050919050565b600080fd5b600061154361153e846114ff565b6114e4565b905080838252602082019050602084028301858111156115665761156561152b565b5b835b8181101561158f578061157b888261125e565b845260208401935050602081019050611568565b5050509392505050565b600082601f8301126115ae576115ad61146e565b5b81356115be848260208601611530565b91505092915050565b6000602082840312156115dd576115dc61120b565b5b600082013567ffffffffffffffff8111156115fb576115fa611210565b5b61160784828501611599565b91505092915050565b6116198161140b565b811461162457600080fd5b50565b60008135905061163681611610565b92915050565b600080604083850312156116535761165261120b565b5b60006116618582860161125e565b925050602061167285828601611627565b9150509250929050565b600082825260208201905092915050565b7f746f6b656e20756e6c6973746564000000000000000000000000000000000000600082015250565b60006116c3600e8361167c565b91506116ce8261168d565b602082019050919050565b600060208201905081810360008301526116f2816116b6565b9050919050565b7f7765656b20657870697265640000000000000000000000000000000000000000600082015250565b600061172f600c8361167c565b915061173a826116f9565b602082019050919050565b6000602082019050818103600083015261175e81611722565b9050919050565b7f4e487b7100000000000000000000000000000000000000000000000000000000600052601160045260246000fd5b600061179f82611273565b91506117aa83611273565b92508282019050808211156117c2576117c1611765565b5b92915050565b7f6d6f7265207468616e2036207765656b73206168656164000000000000000000600082015250565b60006117fe60178361167c565b9150611809826117c8565b602082019050919050565b6000602082019050818103600083015261182d816117f1565b9050919050565b7f6469737472696275746f72206e6f742073657400000000000000000000000000600082015250565b600061186a60138361167c565b915061187582611834565b602082019050919050565b600060208201905081810360008301526118998161185d565b9050919050565b60006118ab82611273565b91506118b683611273565b92508282026118c481611273565b915082820484148315176118db576118da611765565b5b5092915050565b7f4e487b7100000000000000000000000000000000000000000000000000000000600052601260045260246000fd5b600061191c82611273565b915061192783611273565b925082611937576119366118e2565b5b828204905092915050565b600061194d82611273565b915061195883611273565b92508282039050818111156119705761196f611765565b5b92915050565b7f5465616d206f6e6c790000000000000000000000000000000000000000000000600082015250565b60006119ac60098361167c565b91506119b782611976565b602082019050919050565b600060208201905081810360008301526119db8161199f565b9050919050565b7f696e76616c696420706c6174666f726d20666565000000000000000000000000600082015250565b6000611a1860148361167c565b9150611a23826119e2565b602082019050919050565b60006020820190508181036000830152611a4781611a0b565b9050919050565b7f4e487b7100000000000000000000000000000000000000000000000000000000600052603260045260246000fd5b6000611a8882611273565b91507fffffffffffffffffffffffffffffffffffffffffffffffffffffffffffffffff8203611aba57611ab9611765565b5b600182019050919050565b6000604082019050611ada60008301856113e1565b611ae76020830184611417565b9392505050565b7f4f776e61626c653a206e6577206f776e657220697320746865207a65726f206160008201527f6464726573730000000000000000000000000000000000000000000000000000602082015250565b6000611b4a60268361167c565b9150611b5582611aee565b604082019050919050565b60006020820190508181036000830152611b7981611b3d565b9050919050565b6000606082019050611b9560008301866113e1565b611ba260208301856113e1565b611baf60408301846113b7565b949350505050565b7f4f776e61626c653a2063616c6c6572206973206e6f7420746865206f776e6572600082015250565b6000611bed60208361167c565b9150611bf882611bb7565b602082019050919050565b60006020820190508181036000830152611c1c81611be0565b9050919050565b600081519050611c3281611610565b92915050565b600060208284031215611c4e57611c4d61120b565b5b6000611c5c84828501611c23565b91505092915050565b7f5361666545524332303a204552433230206f7065726174696f6e20646964206e60008201527f6f74207375636365656400000000000000000000000000000000000000000000602082015250565b6000611cc1602a8361167c565b9150611ccc82611c65565b604082019050919050565b60006020820190508181036000830152611cf081611cb4565b9050919050565b7f416464726573733a20696e73756666696369656e742062616c616e636520666f60008201527f722063616c6c0000000000000000000000000000000000000000000000000000602082015250565b6000611d5360268361167c565b9150611d5e82611cf7565b604082019050919050565b60006020820190508181036000830152611d8281611d46565b9050919050565b600081519050919050565b600081905092915050565b60005b83811015611dbd578082015181840152602081019050611da2565b60008484015250505050565b6000611dd482611d89565b611dde8185611d94565b9350611dee818560208601611d9f565b80840191505092915050565b6000611e068284611dc9565b915081905092915050565b7f416464726573733a2063616c6c20746f206e6f6e2d636f6e7472616374000000600082015250565b6000611e47601d8361167c565b9150611e5282611e11565b602082019050919050565b60006020820190508181036000830152611e7681611e3a565b9050919050565b600081519050919050565b6000611e9382611e7d565b611e9d818561167c565b9350611ead818560208601611d9f565b611eb681611473565b840191505092915050565b60006020820190508181036000830152611edb8184611e88565b90509291505056fea2646970667358221220876d5f89c43884ccb10f063f6e4bcc6197e87e7bd4cbd6fee7a7aeacd22a9b7864736f6c63430008110033",
  "linkReferences": {},
  "deployedLinkReferences": {}
}